{
  "contractName": "BeneficiariesVault",
  "abi": [
    {
      "inputs": [
        {
          "internalType": "address",
          "name": "_vaultOwner",
          "type": "address"
        }
      ],
      "stateMutability": "nonpayable",
      "type": "constructor"
    },
    {
      "anonymous": false,
      "inputs": [
        {
          "indexed": false,
          "internalType": "address",
          "name": "sender",
          "type": "address"
        },
        {
          "indexed": false,
          "internalType": "uint256",
          "name": "value",
          "type": "uint256"
        }
      ],
      "name": "Deposit",
      "type": "event"
    },
    {
      "stateMutability": "payable",
      "type": "receive"
    },
    {
      "inputs": [],
      "name": "isOwner",
      "outputs": [
        {
          "internalType": "bool",
          "name": "",
          "type": "bool"
        }
      ],
      "stateMutability": "view",
      "type": "function"
    },
    {
      "inputs": [],
      "name": "isBeneficiary",
      "outputs": [
        {
          "internalType": "bool",
          "name": "",
          "type": "bool"
        }
      ],
      "stateMutability": "view",
      "type": "function"
    },
    {
      "inputs": [],
      "name": "getContractBalance",
      "outputs": [
        {
          "internalType": "uint256",
          "name": "",
          "type": "uint256"
        }
      ],
      "stateMutability": "view",
      "type": "function"
    },
    {
      "inputs": [
        {
          "internalType": "address",
          "name": "_beneficiaryAddress",
          "type": "address"
        }
      ],
      "name": "getBeneficiaryStruct",
      "outputs": [
        {
          "components": [
            {
              "internalType": "string",
              "name": "email",
              "type": "string"
            },
            {
              "internalType": "string",
              "name": "name",
              "type": "string"
            },
            {
              "internalType": "address",
              "name": "beneficiarAddress",
              "type": "address"
            },
            {
              "internalType": "bool",
              "name": "verifiedAddress",
              "type": "bool"
            },
            {
              "internalType": "uint256",
              "name": "amount",
              "type": "uint256"
            }
          ],
          "internalType": "struct BeneficiariesVault.BeneficiariesStruct",
          "name": "",
          "type": "tuple"
        }
      ],
      "stateMutability": "view",
      "type": "function"
    },
    {
      "inputs": [
        {
          "internalType": "address",
          "name": "_newBeneficiaryAddress",
          "type": "address"
        },
        {
          "internalType": "string",
          "name": "_newBeneficiaryEmail",
          "type": "string"
        },
        {
          "internalType": "string",
          "name": "_newBeneficiaryName",
          "type": "string"
        }
      ],
      "name": "ow_AddBeneficiary",
      "outputs": [],
      "stateMutability": "nonpayable",
      "type": "function"
    },
    {
      "inputs": [
        {
          "internalType": "address",
          "name": "_beneficiaryAddress",
          "type": "address"
        },
        {
          "internalType": "uint256",
          "name": "_amount",
          "type": "uint256"
        }
      ],
      "name": "ow_UpdateBeneficiaryAmount",
      "outputs": [],
      "stateMutability": "nonpayable",
      "type": "function"
    },
    {
      "inputs": [
        {
          "internalType": "address",
          "name": "_beneficiaryAddress",
          "type": "address"
        }
      ],
      "name": "ow_RemoveBeneficiary",
      "outputs": [],
      "stateMutability": "nonpayable",
      "type": "function"
    },
    {
      "inputs": [
        {
          "internalType": "uint256",
          "name": "_amount",
          "type": "uint256"
        }
      ],
      "name": "ow_Withdraw",
      "outputs": [],
      "stateMutability": "payable",
      "type": "function"
    },
    {
      "inputs": [],
      "name": "ow_GetBeneficiariesLength",
      "outputs": [
        {
          "internalType": "uint256",
          "name": "",
          "type": "uint256"
        }
      ],
      "stateMutability": "view",
      "type": "function"
    },
    {
      "inputs": [
        {
          "internalType": "uint256",
          "name": "index",
          "type": "uint256"
        }
      ],
      "name": "ow_GetBeneficiariesAtIndex",
      "outputs": [
        {
          "internalType": "address",
          "name": "",
          "type": "address"
        }
      ],
      "stateMutability": "view",
      "type": "function"
    },
    {
      "inputs": [],
      "name": "ow_GetUnassignAmount",
      "outputs": [
        {
          "internalType": "uint256",
          "name": "",
          "type": "uint256"
        }
      ],
      "stateMutability": "view",
      "type": "function"
    },
    {
      "inputs": [],
      "name": "ow_GetOwnerPageSummary",
      "outputs": [
        {
          "internalType": "uint256",
          "name": "",
          "type": "uint256"
        },
        {
          "internalType": "uint256",
          "name": "",
          "type": "uint256"
        },
        {
          "internalType": "uint256",
          "name": "",
          "type": "uint256"
        }
      ],
      "stateMutability": "view",
      "type": "function"
    },
    {
      "inputs": [
        {
          "internalType": "address payable",
          "name": "_beneficiaryAddress",
          "type": "address"
        }
      ],
      "name": "be_Withdraw",
      "outputs": [],
      "stateMutability": "payable",
      "type": "function"
    },
    {
      "inputs": [],
      "name": "be_VerifyAddress",
      "outputs": [],
      "stateMutability": "payable",
      "type": "function"
    },
    {
      "inputs": [
        {
          "internalType": "uint256",
          "name": "_numberOfDays",
          "type": "uint256"
        }
      ],
      "name": "ow_SetDeadlineFromToday",
      "outputs": [],
      "stateMutability": "nonpayable",
      "type": "function"
    },
    {
      "inputs": [],
      "name": "getDeadlineTimestamp",
      "outputs": [
        {
          "internalType": "uint256",
          "name": "",
          "type": "uint256"
        }
      ],
      "stateMutability": "view",
      "type": "function"
    },
    {
      "inputs": [],
      "name": "isWithdrawAllowed",
      "outputs": [
        {
          "internalType": "bool",
          "name": "",
          "type": "bool"
        }
      ],
      "stateMutability": "view",
      "type": "function"
    }
  ],
  "bytecode": "0x60806040523480156200001157600080fd5b5060405162002a2038038062002a208339818101604052810190620000379190620000d0565b6301e1338042620000499190620000fc565b6005819055506000600660006101000a81548160ff021916908315150217905550806000806101000a81548173ffffffffffffffffffffffffffffffffffffffff021916908373ffffffffffffffffffffffffffffffffffffffff160217905550600060018190555050620001e0565b600081519050620000ca81620001c6565b92915050565b600060208284031215620000e357600080fd5b6000620000f384828501620000b9565b91505092915050565b600062000109826200018d565b915062000116836200018d565b9250827fffffffffffffffffffffffffffffffffffffffffffffffffffffffffffffffff038211156200014e576200014d62000197565b5b828201905092915050565b600062000166826200016d565b9050919050565b600073ffffffffffffffffffffffffffffffffffffffff82169050919050565b6000819050919050565b7f4e487b7100000000000000000000000000000000000000000000000000000000600052601160045260246000fd5b620001d18162000159565b8114620001dd57600080fd5b50565b61283080620001f06000396000f3fe6080604052600436106101025760003560e01c806379cd9a3111610095578063a63c496711610064578063a63c49671461038f578063b1e2ccd4146103b8578063dfc6e9c2146103d4578063e4fdcfe914610401578063f6cd8dc11461040b57610189565b806379cd9a31146102e35780637b70209f1461030e5780637e6d0fa0146103395780638f32d59b1461036457610189565b806349578fcf116100d157806349578fcf1461023b5780636e6addd4146102645780636f9fb98a1461028d578063715875d8146102b857610189565b80630d62d37b1461018e5780632383ff81146101b757806335fe629b146101d35780633af55ac31461021057610189565b366101895761010f610448565b61014e576040517f08c379a000000000000000000000000000000000000000000000000000000000815260040161014590612398565b60405180910390fd5b7fe1fffcc4923d04b559f4d29a8bfc6cda04eb5b0d3c460751c2402c5c5cc9109c333460405161017f929190612254565b60405180910390a1005b600080fd5b34801561019a57600080fd5b506101b560048036038101906101b09190611b99565b610485565b005b6101d160048036038101906101cc9190611af1565b610732565b005b3480156101df57600080fd5b506101fa60048036038101906101f59190611bd5565b6107ef565b6040516102079190612239565b60405180910390f35b34801561021c57600080fd5b50610225610868565b604051610232919061247a565b60405180910390f35b34801561024757600080fd5b50610262600480360381019061025d9190611ac8565b610913565b005b34801561027057600080fd5b5061028b60048036038101906102869190611bd5565b610aff565b005b34801561029957600080fd5b506102a2610bb9565b6040516102af919061247a565b60405180910390f35b3480156102c457600080fd5b506102cd610c1a565b6040516102da919061247a565b60405180910390f35b3480156102ef57600080fd5b506102f8610c7d565b604051610305919061247a565b60405180910390f35b34801561031a57600080fd5b50610323610cd5565b604051610330919061227d565b60405180910390f35b34801561034557600080fd5b5061034e610ce5565b60405161035b919061227d565b60405180910390f35b34801561037057600080fd5b50610379610448565b604051610386919061227d565b60405180910390f35b34801561039b57600080fd5b506103b660048036038101906103b19190611b1a565b610d5b565b005b6103d260048036038101906103cd9190611bd5565b610f33565b005b3480156103e057600080fd5b506103e9610fa6565b6040516103f893929190612495565b60405180910390f35b610409611015565b005b34801561041757600080fd5b50610432600480360381019061042d9190611ac8565b611152565b60405161043f9190612458565b60405180910390f35b60003373ffffffffffffffffffffffffffffffffffffffff166104696113eb565b73ffffffffffffffffffffffffffffffffffffffff1614905090565b8161048f81611414565b6104ce576040517f08c379a00000000000000000000000000000000000000000000000000000000081526004016104c590612418565b60405180910390fd5b6104d6610448565b610515576040517f08c379a000000000000000000000000000000000000000000000000000000000815260040161050c90612398565b60405180910390fd5b60011515600460008573ffffffffffffffffffffffffffffffffffffffff1673ffffffffffffffffffffffffffffffffffffffff16815260200190815260200160002060020160149054906101000a900460ff161515146105ab576040517f08c379a00000000000000000000000000000000000000000000000000000000081526004016105a2906123f8565b60405180910390fd5b6105b3610868565b8211156105f5576040517f08c379a00000000000000000000000000000000000000000000000000000000081526004016105ec90612378565b60405180910390fd5b600080610646600154600460008873ffffffffffffffffffffffffffffffffffffffff1673ffffffffffffffffffffffffffffffffffffffff16815260200190815260200160002060030154611431565b915091508161068a576040517f08c379a0000000000000000000000000000000000000000000000000000000008152600401610681906123d8565b60405180910390fd5b6000806106978387611459565b91509150816106db576040517f08c379a00000000000000000000000000000000000000000000000000000000081526004016106d2906123b8565b60405180910390fd5b85600460008973ffffffffffffffffffffffffffffffffffffffff1673ffffffffffffffffffffffffffffffffffffffff168152602001908152602001600020600301819055508060018190555050505050505050565b8061073c81611414565b61077b576040517f08c379a000000000000000000000000000000000000000000000000000000000815260040161077290612418565b60405180910390fd5b610783610ce5565b6107c2576040517f08c379a00000000000000000000000000000000000000000000000000000000081526004016107b990612438565b60405180910390fd5b6107eb348373ffffffffffffffffffffffffffffffffffffffff1661148890919063ffffffff16565b5050565b60006107f9610448565b610838576040517f08c379a000000000000000000000000000000000000000000000000000000000815260040161082f90612398565b60405180910390fd5b610842600261157c565b821061084d57600080fd5b61086182600261159190919063ffffffff16565b9050919050565b6000610872610448565b6108b1576040517f08c379a00000000000000000000000000000000000000000000000000000000081526004016108a890612398565b60405180910390fd5b6000806108c76108bf610bb9565b600154611431565b915091508161090b576040517f08c379a0000000000000000000000000000000000000000000000000000000008152600401610902906123d8565b60405180910390fd5b809250505090565b8061091d81611414565b61095c576040517f08c379a000000000000000000000000000000000000000000000000000000000815260040161095390612418565b60405180910390fd5b610964610448565b6109a3576040517f08c379a000000000000000000000000000000000000000000000000000000000815260040161099a90612398565b60405180910390fd5b6000806109f4600154600460008773ffffffffffffffffffffffffffffffffffffffff1673ffffffffffffffffffffffffffffffffffffffff16815260200190815260200160002060030154611431565b9150915081610a38576040517f08c379a0000000000000000000000000000000000000000000000000000000008152600401610a2f906123d8565b60405180910390fd5b80600181905550600460008573ffffffffffffffffffffffffffffffffffffffff1673ffffffffffffffffffffffffffffffffffffffff16815260200190815260200160002060008082016000610a8f91906118f7565b600182016000610a9f91906118f7565b6002820160006101000a81549073ffffffffffffffffffffffffffffffffffffffff02191690556002820160146101000a81549060ff021916905560038201600090555050610af88460026115ab90919063ffffffff16565b5050505050565b610b07610448565b610b46576040517f08c379a0000000000000000000000000000000000000000000000000000000008152600401610b3d90612398565b60405180910390fd5b600781118015610b57575061016d81105b610b96576040517f08c379a0000000000000000000000000000000000000000000000000000000008152600401610b8d906122b8565b60405180910390fd5b6201518081610ba591906125bb565b42610bb09190612565565b60058190555050565b600033610bc4610448565b80610bd45750610bd381611414565b5b610c13576040517f08c379a0000000000000000000000000000000000000000000000000000000008152600401610c0a906122d8565b60405180910390fd5b4791505090565b600033610c25610448565b80610c355750610c3481611414565b5b610c74576040517f08c379a0000000000000000000000000000000000000000000000000000000008152600401610c6b906122d8565b60405180910390fd5b60055491505090565b6000610c87610448565b610cc6576040517f08c379a0000000000000000000000000000000000000000000000000000000008152600401610cbd90612398565b60405180910390fd5b610cd0600261157c565b905090565b6000610ce033611414565b905090565b600033610cf0610448565b80610d005750610cff81611414565b5b610d3f576040517f08c379a0000000000000000000000000000000000000000000000000000000008152600401610d36906122d8565b60405180910390fd5b600554421115610d525760019150610d57565b600091505b5090565b610d63610448565b610da2576040517f08c379a0000000000000000000000000000000000000000000000000000000008152600401610d9990612398565b60405180910390fd5b610dab83611414565b15610deb576040517f08c379a0000000000000000000000000000000000000000000000000000000008152600401610de290612358565b60405180910390fd5b6040518060a001604052808381526020018281526020018473ffffffffffffffffffffffffffffffffffffffff1681526020016000151581526020016000815250600460008573ffffffffffffffffffffffffffffffffffffffff1673ffffffffffffffffffffffffffffffffffffffff1681526020019081526020016000206000820151816000019080519060200190610e87929190611937565b506020820151816001019080519060200190610ea4929190611937565b5060408201518160020160006101000a81548173ffffffffffffffffffffffffffffffffffffffff021916908373ffffffffffffffffffffffffffffffffffffffff16021790555060608201518160020160146101000a81548160ff02191690831515021790555060808201518160030155905050610f2d8360026115db90919063ffffffff16565b50505050565b610f3b610448565b610f7a576040517f08c379a0000000000000000000000000000000000000000000000000000000008152600401610f7190612398565b60405180910390fd5b610fa3813373ffffffffffffffffffffffffffffffffffffffff1661148890919063ffffffff16565b50565b6000806000610fb3610448565b610ff2576040517f08c379a0000000000000000000000000000000000000000000000000000000008152600401610fe990612398565b60405180910390fd5b610ffa610bb9565b611002610868565b61100a610c7d565b925092509250909192565b3361101f81611414565b61105e576040517f08c379a000000000000000000000000000000000000000000000000000000000815260040161105590612418565b60405180910390fd5b60001515600460003373ffffffffffffffffffffffffffffffffffffffff1673ffffffffffffffffffffffffffffffffffffffff16815260200190815260200160002060020160149054906101000a900460ff161515146110f4576040517f08c379a00000000000000000000000000000000000000000000000000000000081526004016110eb906122f8565b60405180910390fd5b6001600460003373ffffffffffffffffffffffffffffffffffffffff1673ffffffffffffffffffffffffffffffffffffffff16815260200190815260200160002060020160146101000a81548160ff02191690831515021790555050565b61115a6119bd565b33611163610448565b80611173575061117281611414565b5b6111b2576040517f08c379a00000000000000000000000000000000000000000000000000000000081526004016111a9906122d8565b60405180910390fd5b6111bb83611414565b6111fa576040517f08c379a00000000000000000000000000000000000000000000000000000000081526004016111f190612418565b60405180910390fd5b600460008473ffffffffffffffffffffffffffffffffffffffff1673ffffffffffffffffffffffffffffffffffffffff1681526020019081526020016000206040518060a0016040529081600082018054611254906126e5565b80601f0160208091040260200160405190810160405280929190818152602001828054611280906126e5565b80156112cd5780601f106112a2576101008083540402835291602001916112cd565b820191906000526020600020905b8154815290600101906020018083116112b057829003601f168201915b505050505081526020016001820180546112e6906126e5565b80601f0160208091040260200160405190810160405280929190818152602001828054611312906126e5565b801561135f5780601f106113345761010080835404028352916020019161135f565b820191906000526020600020905b81548152906001019060200180831161134257829003601f168201915b505050505081526020016002820160009054906101000a900473ffffffffffffffffffffffffffffffffffffffff1673ffffffffffffffffffffffffffffffffffffffff1673ffffffffffffffffffffffffffffffffffffffff1681526020016002820160149054906101000a900460ff16151515158152602001600382015481525050915050919050565b60008060009054906101000a900473ffffffffffffffffffffffffffffffffffffffff16905090565b600061142a82600261160b90919063ffffffff16565b9050919050565b600080838311156114485760008091509150611452565b6001838503915091505b9250929050565b6000806000838501905084811015611478576000809250925050611481565b60018192509250505b9250929050565b804710156114cb576040517f08c379a00000000000000000000000000000000000000000000000000000000081526004016114c290612338565b60405180910390fd5b60008273ffffffffffffffffffffffffffffffffffffffff16826040516114f190612224565b60006040518083038185875af1925050503d806000811461152e576040519150601f19603f3d011682016040523d82523d6000602084013e611533565b606091505b5050905080611577576040517f08c379a000000000000000000000000000000000000000000000000000000000815260040161156e90612318565b60405180910390fd5b505050565b600061158a8260000161163b565b9050919050565b60006115a0836000018361164c565b60001c905092915050565b60006115d3836000018373ffffffffffffffffffffffffffffffffffffffff1660001b6116e6565b905092915050565b6000611603836000018373ffffffffffffffffffffffffffffffffffffffff1660001b611864565b905092915050565b6000611633836000018373ffffffffffffffffffffffffffffffffffffffff1660001b6118d4565b905092915050565b600081600001805490509050919050565b600081836000018054905011611697576040517f08c379a000000000000000000000000000000000000000000000000000000000815260040161168e90612298565b60405180910390fd5b8260000182815481106116d3577f4e487b7100000000000000000000000000000000000000000000000000000000600052603260045260246000fd5b9060005260206000200154905092915050565b600080836001016000848152602001908152602001600020549050600081146118585760006001826117189190612615565b90506000600186600001805490506117309190612615565b90506000866000018281548110611770577f4e487b7100000000000000000000000000000000000000000000000000000000600052603260045260246000fd5b90600052602060002001549050808760000184815481106117ba577f4e487b7100000000000000000000000000000000000000000000000000000000600052603260045260246000fd5b906000526020600020018190555083876001016000838152602001908152602001600020819055508660000180548061181c577f4e487b7100000000000000000000000000000000000000000000000000000000600052603160045260246000fd5b6001900381819060005260206000200160009055905586600101600087815260200190815260200160002060009055600194505050505061185e565b60009150505b92915050565b600061187083836118d4565b6118c95782600001829080600181540180825580915050600190039060005260206000200160009091909190915055826000018054905083600101600084815260200190815260200160002081905550600190506118ce565b600090505b92915050565b600080836001016000848152602001908152602001600020541415905092915050565b508054611903906126e5565b6000825580601f106119155750611934565b601f0160209004906000526020600020908101906119339190611a04565b5b50565b828054611943906126e5565b90600052602060002090601f01602090048101928261196557600085556119ac565b82601f1061197e57805160ff19168380011785556119ac565b828001600101855582156119ac579182015b828111156119ab578251825591602001919060010190611990565b5b5090506119b99190611a04565b5090565b6040518060a001604052806060815260200160608152602001600073ffffffffffffffffffffffffffffffffffffffff168152602001600015158152602001600081525090565b5b80821115611a1d576000816000905550600101611a05565b5090565b6000611a34611a2f846124fd565b6124cc565b905082815260208101848484011115611a4c57600080fd5b611a578482856126a3565b509392505050565b600081359050611a6e816127b5565b92915050565b600081359050611a83816127cc565b92915050565b600082601f830112611a9a57600080fd5b8135611aaa848260208601611a21565b91505092915050565b600081359050611ac2816127e3565b92915050565b600060208284031215611ada57600080fd5b6000611ae884828501611a5f565b91505092915050565b600060208284031215611b0357600080fd5b6000611b1184828501611a74565b91505092915050565b600080600060608486031215611b2f57600080fd5b6000611b3d86828701611a5f565b935050602084013567ffffffffffffffff811115611b5a57600080fd5b611b6686828701611a89565b925050604084013567ffffffffffffffff811115611b8357600080fd5b611b8f86828701611a89565b9150509250925092565b60008060408385031215611bac57600080fd5b6000611bba85828601611a5f565b9250506020611bcb85828601611ab3565b9150509250929050565b600060208284031215611be757600080fd5b6000611bf584828501611ab3565b91505092915050565b611c0781612649565b82525050565b611c1681612649565b82525050565b611c258161266d565b82525050565b611c348161266d565b82525050565b6000611c458261252d565b611c4f8185612543565b9350611c5f8185602086016126b2565b611c68816127a4565b840191505092915050565b6000611c80602283612554565b91507f456e756d657261626c655365743a20696e646578206f7574206f6620626f756e60008301527f64730000000000000000000000000000000000000000000000000000000000006020830152604082019050919050565b6000611ce6604883612554565b91507f657874656e73696f6e20697320736574206f6e6c7920696e206461797320746860008301527f6174206172652067726561746572207468656e203720616e64206c6f7765722060208301527f7468656e203336350000000000000000000000000000000000000000000000006040830152606082019050919050565b6000611d72602383612554565b91507f61646472657373206973206e6f74206f776e6572206f722062656e656669636960008301527f61727900000000000000000000000000000000000000000000000000000000006020830152604082019050919050565b6000611dd8601d83612554565b91507f74686973206164647265737320616c72656164792076657269666965640000006000830152602082019050919050565b6000611e18603a83612554565b91507f416464726573733a20756e61626c6520746f2073656e642076616c75652c207260008301527f6563697069656e74206d617920686176652072657665727465640000000000006020830152604082019050919050565b6000611e7e601d83612554565b91507f416464726573733a20696e73756666696369656e742062616c616e63650000006000830152602082019050919050565b6000611ebe602283612554565b91507f62656e6566696369617279206164647265737320616c7265616479206578697360008301527f74210000000000000000000000000000000000000000000000000000000000006020830152604082019050919050565b6000611f24601f83612554565b91507f616d6f756e7420697320626967676572207468616e20617661696c61626c65006000830152602082019050919050565b6000611f64602083612554565b91507f4f776e61626c653a2063616c6c6572206973206e6f7420746865206f776e65726000830152602082019050919050565b6000611fa4602783612554565b91507f616d6f756e74206164646974696f6e206e6f7420776f726b696e67206173206560008301527f78706563746564000000000000000000000000000000000000000000000000006020830152604082019050919050565b600061200a600083612538565b9150600082019050919050565b6000612024602d83612554565b91507f736f6d7468696e672069732077726f6e6720696e2074686520616d6f756e747360008301527f2063616c63756c6174696f6e73000000000000000000000000000000000000006020830152604082019050919050565b600061208a602483612554565b91507f62656e65666963696172792061646472657373206e6f7420796574207665726960008301527f66696564000000000000000000000000000000000000000000000000000000006020830152604082019050919050565b60006120f0601e83612554565b91507f62656e65666963696172792061646472657373206e6f7420666f756e642100006000830152602082019050919050565b6000612130602583612554565b91507f7769746864726177206973206e6f7420616c6c6f77656420617420746865206d60008301527f6f6d656e740000000000000000000000000000000000000000000000000000006020830152604082019050919050565b600060a08301600083015184820360008601526121a68282611c3a565b915050602083015184820360208601526121c08282611c3a565b91505060408301516121d56040860182611bfe565b5060608301516121e86060860182611c1c565b5060808301516121fb6080860182612206565b508091505092915050565b61220f81612699565b82525050565b61221e81612699565b82525050565b600061222f82611ffd565b9150819050919050565b600060208201905061224e6000830184611c0d565b92915050565b60006040820190506122696000830185611c0d565b6122766020830184612215565b9392505050565b60006020820190506122926000830184611c2b565b92915050565b600060208201905081810360008301526122b181611c73565b9050919050565b600060208201905081810360008301526122d181611cd9565b9050919050565b600060208201905081810360008301526122f181611d65565b9050919050565b6000602082019050818103600083015261231181611dcb565b9050919050565b6000602082019050818103600083015261233181611e0b565b9050919050565b6000602082019050818103600083015261235181611e71565b9050919050565b6000602082019050818103600083015261237181611eb1565b9050919050565b6000602082019050818103600083015261239181611f17565b9050919050565b600060208201905081810360008301526123b181611f57565b9050919050565b600060208201905081810360008301526123d181611f97565b9050919050565b600060208201905081810360008301526123f181612017565b9050919050565b600060208201905081810360008301526124118161207d565b9050919050565b60006020820190508181036000830152612431816120e3565b9050919050565b6000602082019050818103600083015261245181612123565b9050919050565b600060208201905081810360008301526124728184612189565b905092915050565b600060208201905061248f6000830184612215565b92915050565b60006060820190506124aa6000830186612215565b6124b76020830185612215565b6124c46040830184612215565b949350505050565b6000604051905081810181811067ffffffffffffffff821117156124f3576124f2612775565b5b8060405250919050565b600067ffffffffffffffff82111561251857612517612775565b5b601f19601f8301169050602081019050919050565b600081519050919050565b600081905092915050565b600082825260208201905092915050565b600082825260208201905092915050565b600061257082612699565b915061257b83612699565b9250827fffffffffffffffffffffffffffffffffffffffffffffffffffffffffffffffff038211156125b0576125af612717565b5b828201905092915050565b60006125c682612699565b91506125d183612699565b9250817fffffffffffffffffffffffffffffffffffffffffffffffffffffffffffffffff048311821515161561260a57612609612717565b5b828202905092915050565b600061262082612699565b915061262b83612699565b92508282101561263e5761263d612717565b5b828203905092915050565b600061265482612679565b9050919050565b600061266682612679565b9050919050565b60008115159050919050565b600073ffffffffffffffffffffffffffffffffffffffff82169050919050565b6000819050919050565b82818337600083830152505050565b60005b838110156126d05780820151818401526020810190506126b5565b838111156126df576000848401525b50505050565b600060028204905060018216806126fd57607f821691505b6020821081141561271157612710612746565b5b50919050565b7f4e487b7100000000000000000000000000000000000000000000000000000000600052601160045260246000fd5b7f4e487b7100000000000000000000000000000000000000000000000000000000600052602260045260246000fd5b7f4e487b7100000000000000000000000000000000000000000000000000000000600052604160045260246000fd5b6000601f19601f8301169050919050565b6127be81612649565b81146127c957600080fd5b50565b6127d58161265b565b81146127e057600080fd5b50565b6127ec81612699565b81146127f757600080fd5b5056fea2646970667358221220531bd11d1c9ae923c2da629dfdc3bc366cb39ed31e48adf49d9b8d4aa27714b964736f6c63430008000033",
  "immutableReferences": {},
  "source": "// SPDX-License-Identifier: MIT\npragma solidity ^0.8.0;\n\n//add ownable\nimport \"@openzeppelin/contracts/utils/structs/EnumerableSet.sol\";\nimport \"@openzeppelin/contracts/utils/Address.sol\";\nimport \"@openzeppelin/contracts/utils//math/SafeMath.sol\";\n\ncontract BeneficiariesVault {\n    \n    // public functions that start with prefix ow_ are only for the Owner of the contract\n    // public functions that start with prefix be_ are only for the Beneficiaries\n    // all the other public functions are accesible to the Owner or one of the Beneficiaries but not to any other address (more about access control in the modifiers comments)\n    \n    //START STATE VARIBLES\n    address private _owner;\n    uint private _sumOfAllBeneficiaries;\n    \n    event Deposit(address sender, uint value);\n    \n    using Address for address payable;\n    \n    // Add the library methods\n    using EnumerableSet for EnumerableSet.AddressSet;\n    \n    //using Strings for uint;\n    \n    // Declare a set state variable\n    EnumerableSet.AddressSet private beneficiariesAddresses;\n    \n    struct BeneficiariesStruct {\n        string email;\n        string name;\n        address beneficiarAddress;\n        bool verifiedAddress;\n        uint amount;\n    }\n    \n    //map address to struct\n    mapping(address => BeneficiariesStruct) private beneficiaries;\n    \n    uint deadlineTimestamp;\n    \n    bool withdrawAllowed;\n    \n    //END STATE VARIBLES\n    \n    constructor(address _vaultOwner){\n        //Add a dedline with default of a year from contract creation\n        deadlineTimestamp = block.timestamp + (365 * 1 days);\n        withdrawAllowed = false;\n        _owner = _vaultOwner;\n        _sumOfAllBeneficiaries = 0;\n    }\n    \n    //START UTIL FUNCTIONS\n    \n    function isContains(address  _beneficiaryAddress) private view returns(bool) {\n        return beneficiariesAddresses.contains( _beneficiaryAddress);\n    }\n    \n    function owner() private view returns (address) {\n        return _owner;\n    }\n\n    function isOwner() public view returns(bool){\n        return owner() == msg.sender;\n    }\n\n    function isBeneficiary() public view returns(bool){\n        return isContains(msg.sender);\n    }\n    \n    \n    //END UTIL FUNCTIONS\n    \n    //START MODIFIRES\n    \n    //there are only 2 roles in this contract Owner or Beneficiary\n    //and there are 3 modifiers that provide Access Controll \n    \n     modifier OnlyBeneficiary(address _beneficiaryAddress){\n         require(isContains(_beneficiaryAddress),\"beneficiary address not found!\");\n         _;\n    }\n    \n    modifier OwnerOrBeneficiary(address _address){\n         require(isOwner() || isContains(_address) ,\"address is not owner or beneficiary\");\n         _;       \n    }\n    \n    modifier onlyOwner() {\n        require(isOwner(), \"Ownable: caller is not the owner\");\n        _;\n    }\n    \n    //END MODIFIRES\n    \n    \n    //START CONTRACT PUBLIC API\n    \n    function getContractBalance() public view OwnerOrBeneficiary(msg.sender) returns (uint) {\n        return address(this).balance;\n    }\n    \n    function getBeneficiaryStruct(address _beneficiaryAddress) public view OwnerOrBeneficiary(msg.sender) returns(BeneficiariesStruct memory){\n        \n        require(isContains(_beneficiaryAddress),\"beneficiary address not found!\");\n        \n        return beneficiaries[_beneficiaryAddress];\n    }\n\n    function ow_AddBeneficiary(address _newBeneficiaryAddress, string memory _newBeneficiaryEmail, string memory _newBeneficiaryName) public onlyOwner{\n        \n        require(!isContains(_newBeneficiaryAddress),\"beneficiary address already exist!\");\n        //add to beneficiaries mapping\n        beneficiaries[_newBeneficiaryAddress] = BeneficiariesStruct(_newBeneficiaryEmail,_newBeneficiaryName, _newBeneficiaryAddress, false, 0);\n        //add to beneficiariesAddresses set\n        beneficiariesAddresses.add(_newBeneficiaryAddress);\n    }\n\n    function ow_UpdateBeneficiaryAmount(address _beneficiaryAddress, uint _amount) public OnlyBeneficiary(_beneficiaryAddress) onlyOwner{\n        \n        require(beneficiaries[_beneficiaryAddress].verifiedAddress == true,\"beneficiary address not yet verified\");\n        require(_amount <= ow_GetUnassignAmount() ,\"amount is bigger than available\");\n        //substract the old amount before adding the new one for uscases after when there is more than one update\n        (bool isSub, uint sumMinusOldAmount) = SafeMath.trySub(_sumOfAllBeneficiaries, beneficiaries[_beneficiaryAddress].amount);\n        require(isSub, \"somthing is wrong in the amounts calculations\");\n        \n        (bool isAdd, uint sum) = SafeMath.tryAdd(sumMinusOldAmount, _amount);\n        require(isAdd, \"amount addition not working as expected\");\n        \n        beneficiaries[_beneficiaryAddress].amount = _amount;\n        _sumOfAllBeneficiaries = sum;\n    }\n    \n    function ow_RemoveBeneficiary(address _beneficiaryAddress) public OnlyBeneficiary(_beneficiaryAddress) onlyOwner{\n\n        (bool isSub, uint sumMinusDeletedAccountAmount) = SafeMath.trySub(_sumOfAllBeneficiaries, beneficiaries[_beneficiaryAddress].amount);\n        require(isSub, \"somthing is wrong in the amounts calculations\");\n        _sumOfAllBeneficiaries = sumMinusDeletedAccountAmount;\n        //remove from beneficiaries mapping\n        delete beneficiaries[_beneficiaryAddress];\n        //remove from beneficiariesAddresses set\n        beneficiariesAddresses.remove(_beneficiaryAddress);\n    }\n\n    function ow_Withdraw(uint _amount) payable public onlyOwner{\n        payable(msg.sender).sendValue(_amount);\n    }\n\n    function ow_GetBeneficiariesLength() public view onlyOwner returns(uint) {\n        return beneficiariesAddresses.length();\n    }\n\n    function ow_GetBeneficiariesAtIndex(uint index) public view onlyOwner returns(address) {\n        require(index < beneficiariesAddresses.length());\n        return beneficiariesAddresses.at(index);\n    }\n    \n    function ow_GetUnassignAmount() public view onlyOwner returns(uint) {\n        (bool isSub, uint unassignAmount) = SafeMath.trySub(getContractBalance(), _sumOfAllBeneficiaries);\n        require(isSub, \"somthing is wrong in the amounts calculations\");\n        return unassignAmount;\n    }\n\n    function ow_GetOwnerPageSummary() public view onlyOwner returns(uint, uint, uint) {\n\n        return (\n            getContractBalance(),\n            ow_GetUnassignAmount(),\n            ow_GetBeneficiariesLength()\n        );\n    }\n    \n    function be_Withdraw(address payable _beneficiaryAddress) public payable OnlyBeneficiary(_beneficiaryAddress){\n        //check that withdraw is allowed\n        require(isWithdrawAllowed(), \"withdraw is not allowed at the moment\");\n        //check that the msg.sender\n        \n        _beneficiaryAddress.sendValue(msg.value);//temporary just for check\n\n    }\n\n    function be_VerifyAddress() public payable OnlyBeneficiary(msg.sender){\n        require(beneficiaries[msg.sender].verifiedAddress == false, 'this address already verified');\n        beneficiaries[msg.sender].verifiedAddress = true;\n    }\n    \n    function ow_SetDeadlineFromToday(uint _numberOfDays) public onlyOwner {\n        require(_numberOfDays > 7 && _numberOfDays < 365 , \"extension is set only in days that are greater then 7 and lower then 365\");\n        deadlineTimestamp = block.timestamp + (_numberOfDays * 1 days);\n    }\n    \n    function getDeadlineTimestamp() public view OwnerOrBeneficiary(msg.sender) returns(uint){\n        return deadlineTimestamp;\n    }\n    \n    \n    function isWithdrawAllowed() public view OwnerOrBeneficiary(msg.sender) returns(bool){\n    \n        if(block.timestamp > deadlineTimestamp){\n            return true;\n        }\n        \n        return false;\n    }\n    \n    //only admin deposit to contract\n    receive() external payable onlyOwner{\n        emit Deposit(msg.sender, msg.value);\n    }\n    \n    \n    //END CONTRACT PUBLIC API\n\n }",
  "sourcePath": "/home/yaniv/Desktop/etherum/my-eth-will/contracts/BeneficiariesVault.sol",
  "compiler": {
    "name": "solc",
    "version": "0.8.0+commit.c7dfd78e.Emscripten.clang"
  },
  "schemaVersion": "3.4.1",
  "updatedAt": "2021-07-01T23:15:42.546Z",
  "devdoc": {
    "kind": "dev",
    "methods": {},
    "version": 1
  },
  "userdoc": {
    "kind": "user",
    "methods": {},
    "version": 1
  }
}