{
  "contractName": "BeneficiariesVault",
  "abi": [
    {
      "inputs": [
        {
          "internalType": "address",
          "name": "_vaultOwner",
          "type": "address"
        }
      ],
      "stateMutability": "nonpayable",
      "type": "constructor"
    },
    {
      "anonymous": false,
      "inputs": [
        {
          "indexed": false,
          "internalType": "address",
          "name": "sender",
          "type": "address"
        },
        {
          "indexed": false,
          "internalType": "uint256",
          "name": "value",
          "type": "uint256"
        }
      ],
      "name": "Deposit",
      "type": "event"
    },
    {
      "stateMutability": "payable",
      "type": "receive"
    },
    {
      "inputs": [],
      "name": "isOwner",
      "outputs": [
        {
          "internalType": "bool",
          "name": "",
          "type": "bool"
        }
      ],
      "stateMutability": "view",
      "type": "function"
    },
    {
      "inputs": [],
      "name": "isBeneficiary",
      "outputs": [
        {
          "internalType": "bool",
          "name": "",
          "type": "bool"
        }
      ],
      "stateMutability": "view",
      "type": "function"
    },
    {
      "inputs": [],
      "name": "getContractBalance",
      "outputs": [
        {
          "internalType": "uint256",
          "name": "",
          "type": "uint256"
        }
      ],
      "stateMutability": "view",
      "type": "function"
    },
    {
      "inputs": [
        {
          "internalType": "address",
          "name": "_beneficiaryAddress",
          "type": "address"
        }
      ],
      "name": "getBeneficiaryStruct",
      "outputs": [
        {
          "components": [
            {
              "internalType": "string",
              "name": "email",
              "type": "string"
            },
            {
              "internalType": "string",
              "name": "name",
              "type": "string"
            },
            {
              "internalType": "address",
              "name": "beneficiarAddress",
              "type": "address"
            },
            {
              "internalType": "bool",
              "name": "verifiedAddress",
              "type": "bool"
            },
            {
              "internalType": "uint256",
              "name": "amount",
              "type": "uint256"
            }
          ],
          "internalType": "struct BeneficiariesVault.BeneficiariesStruct",
          "name": "",
          "type": "tuple"
        }
      ],
      "stateMutability": "view",
      "type": "function"
    },
    {
      "inputs": [
        {
          "internalType": "address",
          "name": "_newBeneficiaryAddress",
          "type": "address"
        },
        {
          "internalType": "string",
          "name": "_newBeneficiaryEmail",
          "type": "string"
        },
        {
          "internalType": "string",
          "name": "_newBeneficiaryName",
          "type": "string"
        }
      ],
      "name": "ow_AddBeneficiary",
      "outputs": [],
      "stateMutability": "nonpayable",
      "type": "function"
    },
    {
      "inputs": [
        {
          "internalType": "address",
          "name": "_beneficiaryAddress",
          "type": "address"
        },
        {
          "internalType": "uint256",
          "name": "_amount",
          "type": "uint256"
        }
      ],
      "name": "ow_UpdateBeneficiaryAmount",
      "outputs": [],
      "stateMutability": "nonpayable",
      "type": "function"
    },
    {
      "inputs": [
        {
          "internalType": "address",
          "name": "_beneficiaryAddress",
          "type": "address"
        }
      ],
      "name": "ow_RemoveBeneficiary",
      "outputs": [],
      "stateMutability": "nonpayable",
      "type": "function"
    },
    {
      "inputs": [
        {
          "internalType": "uint256",
          "name": "_amount",
          "type": "uint256"
        }
      ],
      "name": "ow_Withdraw",
      "outputs": [],
      "stateMutability": "payable",
      "type": "function"
    },
    {
      "inputs": [],
      "name": "ow_GetBeneficiariesLength",
      "outputs": [
        {
          "internalType": "uint256",
          "name": "",
          "type": "uint256"
        }
      ],
      "stateMutability": "view",
      "type": "function"
    },
    {
      "inputs": [
        {
          "internalType": "uint256",
          "name": "index",
          "type": "uint256"
        }
      ],
      "name": "ow_GetBeneficiariesAtIndex",
      "outputs": [
        {
          "internalType": "address",
          "name": "",
          "type": "address"
        }
      ],
      "stateMutability": "view",
      "type": "function"
    },
    {
      "inputs": [],
      "name": "ow_GetUnassignAmount",
      "outputs": [
        {
          "internalType": "uint256",
          "name": "",
          "type": "uint256"
        }
      ],
      "stateMutability": "view",
      "type": "function"
    },
    {
      "inputs": [],
      "name": "ow_GetOwnerPageSummary",
      "outputs": [
        {
          "internalType": "uint256",
          "name": "",
          "type": "uint256"
        },
        {
          "internalType": "uint256",
          "name": "",
          "type": "uint256"
        },
        {
          "internalType": "uint256",
          "name": "",
          "type": "uint256"
        },
        {
          "internalType": "uint256",
          "name": "",
          "type": "uint256"
        }
      ],
      "stateMutability": "view",
      "type": "function"
    },
    {
      "inputs": [
        {
          "internalType": "address payable",
          "name": "_beneficiaryAddress",
          "type": "address"
        }
      ],
      "name": "be_Withdraw",
      "outputs": [],
      "stateMutability": "payable",
      "type": "function"
    },
    {
      "inputs": [],
      "name": "be_VerifyAddress",
      "outputs": [],
      "stateMutability": "payable",
      "type": "function"
    },
    {
      "inputs": [
        {
          "internalType": "uint256",
          "name": "_numberOfDays",
          "type": "uint256"
        }
      ],
      "name": "ow_SetDeadlineFromToday",
      "outputs": [],
      "stateMutability": "nonpayable",
      "type": "function"
    },
    {
      "inputs": [],
      "name": "getDeadlineTimestamp",
      "outputs": [
        {
          "internalType": "uint256",
          "name": "",
          "type": "uint256"
        }
      ],
      "stateMutability": "view",
      "type": "function"
    },
    {
      "inputs": [],
      "name": "isWithdrawAllowed",
      "outputs": [
        {
          "internalType": "bool",
          "name": "",
          "type": "bool"
        }
      ],
      "stateMutability": "view",
      "type": "function"
    }
  ],
  "bytecode": "0x60806040523480156200001157600080fd5b5060405162002a3b38038062002a3b8339818101604052810190620000379190620000d0565b6301e1338042620000499190620000fc565b6005819055506000600660006101000a81548160ff021916908315150217905550806000806101000a81548173ffffffffffffffffffffffffffffffffffffffff021916908373ffffffffffffffffffffffffffffffffffffffff160217905550600060018190555050620001e0565b600081519050620000ca81620001c6565b92915050565b600060208284031215620000e357600080fd5b6000620000f384828501620000b9565b91505092915050565b600062000109826200018d565b915062000116836200018d565b9250827fffffffffffffffffffffffffffffffffffffffffffffffffffffffffffffffff038211156200014e576200014d62000197565b5b828201905092915050565b600062000166826200016d565b9050919050565b600073ffffffffffffffffffffffffffffffffffffffff82169050919050565b6000819050919050565b7f4e487b7100000000000000000000000000000000000000000000000000000000600052601160045260246000fd5b620001d18162000159565b8114620001dd57600080fd5b50565b61284b80620001f06000396000f3fe6080604052600436106101025760003560e01c806379cd9a3111610095578063a63c496711610064578063a63c49671461038f578063b1e2ccd4146103b8578063dfc6e9c2146103d4578063e4fdcfe914610402578063f6cd8dc11461040c57610189565b806379cd9a31146102e35780637b70209f1461030e5780637e6d0fa0146103395780638f32d59b1461036457610189565b806349578fcf116100d157806349578fcf1461023b5780636e6addd4146102645780636f9fb98a1461028d578063715875d8146102b857610189565b80630d62d37b1461018e5780632383ff81146101b757806335fe629b146101d35780633af55ac31461021057610189565b366101895761010f610449565b61014e576040517f08c379a0000000000000000000000000000000000000000000000000000000008152600401610145906123a5565b60405180910390fd5b7fe1fffcc4923d04b559f4d29a8bfc6cda04eb5b0d3c460751c2402c5c5cc9109c333460405161017f929190612261565b60405180910390a1005b600080fd5b34801561019a57600080fd5b506101b560048036038101906101b09190611ba6565b610486565b005b6101d160048036038101906101cc9190611afe565b610733565b005b3480156101df57600080fd5b506101fa60048036038101906101f59190611be2565b6107f0565b6040516102079190612246565b60405180910390f35b34801561021c57600080fd5b50610225610869565b6040516102329190612487565b60405180910390f35b34801561024757600080fd5b50610262600480360381019061025d9190611ad5565b610914565b005b34801561027057600080fd5b5061028b60048036038101906102869190611be2565b610b00565b005b34801561029957600080fd5b506102a2610bba565b6040516102af9190612487565b60405180910390f35b3480156102c457600080fd5b506102cd610c1b565b6040516102da9190612487565b60405180910390f35b3480156102ef57600080fd5b506102f8610c7e565b6040516103059190612487565b60405180910390f35b34801561031a57600080fd5b50610323610cd6565b604051610330919061228a565b60405180910390f35b34801561034557600080fd5b5061034e610ce6565b60405161035b919061228a565b60405180910390f35b34801561037057600080fd5b50610379610449565b604051610386919061228a565b60405180910390f35b34801561039b57600080fd5b506103b660048036038101906103b19190611b27565b610d5c565b005b6103d260048036038101906103cd9190611be2565b610f34565b005b3480156103e057600080fd5b506103e9610fa7565b6040516103f994939291906124a2565b60405180910390f35b61040a611022565b005b34801561041857600080fd5b50610433600480360381019061042e9190611ad5565b61115f565b6040516104409190612465565b60405180910390f35b60003373ffffffffffffffffffffffffffffffffffffffff1661046a6113f8565b73ffffffffffffffffffffffffffffffffffffffff1614905090565b8161049081611421565b6104cf576040517f08c379a00000000000000000000000000000000000000000000000000000000081526004016104c690612425565b60405180910390fd5b6104d7610449565b610516576040517f08c379a000000000000000000000000000000000000000000000000000000000815260040161050d906123a5565b60405180910390fd5b60011515600460008573ffffffffffffffffffffffffffffffffffffffff1673ffffffffffffffffffffffffffffffffffffffff16815260200190815260200160002060020160149054906101000a900460ff161515146105ac576040517f08c379a00000000000000000000000000000000000000000000000000000000081526004016105a390612405565b60405180910390fd5b6105b4610869565b8211156105f6576040517f08c379a00000000000000000000000000000000000000000000000000000000081526004016105ed90612385565b60405180910390fd5b600080610647600154600460008873ffffffffffffffffffffffffffffffffffffffff1673ffffffffffffffffffffffffffffffffffffffff1681526020019081526020016000206003015461143e565b915091508161068b576040517f08c379a0000000000000000000000000000000000000000000000000000000008152600401610682906123e5565b60405180910390fd5b6000806106988387611466565b91509150816106dc576040517f08c379a00000000000000000000000000000000000000000000000000000000081526004016106d3906123c5565b60405180910390fd5b85600460008973ffffffffffffffffffffffffffffffffffffffff1673ffffffffffffffffffffffffffffffffffffffff168152602001908152602001600020600301819055508060018190555050505050505050565b8061073d81611421565b61077c576040517f08c379a000000000000000000000000000000000000000000000000000000000815260040161077390612425565b60405180910390fd5b610784610ce6565b6107c3576040517f08c379a00000000000000000000000000000000000000000000000000000000081526004016107ba90612445565b60405180910390fd5b6107ec348373ffffffffffffffffffffffffffffffffffffffff1661149590919063ffffffff16565b5050565b60006107fa610449565b610839576040517f08c379a0000000000000000000000000000000000000000000000000000000008152600401610830906123a5565b60405180910390fd5b6108436002611589565b821061084e57600080fd5b61086282600261159e90919063ffffffff16565b9050919050565b6000610873610449565b6108b2576040517f08c379a00000000000000000000000000000000000000000000000000000000081526004016108a9906123a5565b60405180910390fd5b6000806108c86108c0610bba565b60015461143e565b915091508161090c576040517f08c379a0000000000000000000000000000000000000000000000000000000008152600401610903906123e5565b60405180910390fd5b809250505090565b8061091e81611421565b61095d576040517f08c379a000000000000000000000000000000000000000000000000000000000815260040161095490612425565b60405180910390fd5b610965610449565b6109a4576040517f08c379a000000000000000000000000000000000000000000000000000000000815260040161099b906123a5565b60405180910390fd5b6000806109f5600154600460008773ffffffffffffffffffffffffffffffffffffffff1673ffffffffffffffffffffffffffffffffffffffff1681526020019081526020016000206003015461143e565b9150915081610a39576040517f08c379a0000000000000000000000000000000000000000000000000000000008152600401610a30906123e5565b60405180910390fd5b80600181905550600460008573ffffffffffffffffffffffffffffffffffffffff1673ffffffffffffffffffffffffffffffffffffffff16815260200190815260200160002060008082016000610a909190611904565b600182016000610aa09190611904565b6002820160006101000a81549073ffffffffffffffffffffffffffffffffffffffff02191690556002820160146101000a81549060ff021916905560038201600090555050610af98460026115b890919063ffffffff16565b5050505050565b610b08610449565b610b47576040517f08c379a0000000000000000000000000000000000000000000000000000000008152600401610b3e906123a5565b60405180910390fd5b600781118015610b58575061016d81105b610b97576040517f08c379a0000000000000000000000000000000000000000000000000000000008152600401610b8e906122c5565b60405180910390fd5b6201518081610ba691906125d6565b42610bb19190612580565b60058190555050565b600033610bc5610449565b80610bd55750610bd481611421565b5b610c14576040517f08c379a0000000000000000000000000000000000000000000000000000000008152600401610c0b906122e5565b60405180910390fd5b4791505090565b600033610c26610449565b80610c365750610c3581611421565b5b610c75576040517f08c379a0000000000000000000000000000000000000000000000000000000008152600401610c6c906122e5565b60405180910390fd5b60055491505090565b6000610c88610449565b610cc7576040517f08c379a0000000000000000000000000000000000000000000000000000000008152600401610cbe906123a5565b60405180910390fd5b610cd16002611589565b905090565b6000610ce133611421565b905090565b600033610cf1610449565b80610d015750610d0081611421565b5b610d40576040517f08c379a0000000000000000000000000000000000000000000000000000000008152600401610d37906122e5565b60405180910390fd5b600554421115610d535760019150610d58565b600091505b5090565b610d64610449565b610da3576040517f08c379a0000000000000000000000000000000000000000000000000000000008152600401610d9a906123a5565b60405180910390fd5b610dac83611421565b15610dec576040517f08c379a0000000000000000000000000000000000000000000000000000000008152600401610de390612365565b60405180910390fd5b6040518060a001604052808381526020018281526020018473ffffffffffffffffffffffffffffffffffffffff1681526020016000151581526020016000815250600460008573ffffffffffffffffffffffffffffffffffffffff1673ffffffffffffffffffffffffffffffffffffffff1681526020019081526020016000206000820151816000019080519060200190610e88929190611944565b506020820151816001019080519060200190610ea5929190611944565b5060408201518160020160006101000a81548173ffffffffffffffffffffffffffffffffffffffff021916908373ffffffffffffffffffffffffffffffffffffffff16021790555060608201518160020160146101000a81548160ff02191690831515021790555060808201518160030155905050610f2e8360026115e890919063ffffffff16565b50505050565b610f3c610449565b610f7b576040517f08c379a0000000000000000000000000000000000000000000000000000000008152600401610f72906123a5565b60405180910390fd5b610fa4813373ffffffffffffffffffffffffffffffffffffffff1661149590919063ffffffff16565b50565b600080600080610fb5610449565b610ff4576040517f08c379a0000000000000000000000000000000000000000000000000000000008152600401610feb906123a5565b60405180910390fd5b610ffc610bba565b611004610869565b61100c610c7e565b611014610c1b565b935093509350935090919293565b3361102c81611421565b61106b576040517f08c379a000000000000000000000000000000000000000000000000000000000815260040161106290612425565b60405180910390fd5b60001515600460003373ffffffffffffffffffffffffffffffffffffffff1673ffffffffffffffffffffffffffffffffffffffff16815260200190815260200160002060020160149054906101000a900460ff16151514611101576040517f08c379a00000000000000000000000000000000000000000000000000000000081526004016110f890612305565b60405180910390fd5b6001600460003373ffffffffffffffffffffffffffffffffffffffff1673ffffffffffffffffffffffffffffffffffffffff16815260200190815260200160002060020160146101000a81548160ff02191690831515021790555050565b6111676119ca565b33611170610449565b80611180575061117f81611421565b5b6111bf576040517f08c379a00000000000000000000000000000000000000000000000000000000081526004016111b6906122e5565b60405180910390fd5b6111c883611421565b611207576040517f08c379a00000000000000000000000000000000000000000000000000000000081526004016111fe90612425565b60405180910390fd5b600460008473ffffffffffffffffffffffffffffffffffffffff1673ffffffffffffffffffffffffffffffffffffffff1681526020019081526020016000206040518060a001604052908160008201805461126190612700565b80601f016020809104026020016040519081016040528092919081815260200182805461128d90612700565b80156112da5780601f106112af576101008083540402835291602001916112da565b820191906000526020600020905b8154815290600101906020018083116112bd57829003601f168201915b505050505081526020016001820180546112f390612700565b80601f016020809104026020016040519081016040528092919081815260200182805461131f90612700565b801561136c5780601f106113415761010080835404028352916020019161136c565b820191906000526020600020905b81548152906001019060200180831161134f57829003601f168201915b505050505081526020016002820160009054906101000a900473ffffffffffffffffffffffffffffffffffffffff1673ffffffffffffffffffffffffffffffffffffffff1673ffffffffffffffffffffffffffffffffffffffff1681526020016002820160149054906101000a900460ff16151515158152602001600382015481525050915050919050565b60008060009054906101000a900473ffffffffffffffffffffffffffffffffffffffff16905090565b600061143782600261161890919063ffffffff16565b9050919050565b60008083831115611455576000809150915061145f565b6001838503915091505b9250929050565b600080600083850190508481101561148557600080925092505061148e565b60018192509250505b9250929050565b804710156114d8576040517f08c379a00000000000000000000000000000000000000000000000000000000081526004016114cf90612345565b60405180910390fd5b60008273ffffffffffffffffffffffffffffffffffffffff16826040516114fe90612231565b60006040518083038185875af1925050503d806000811461153b576040519150601f19603f3d011682016040523d82523d6000602084013e611540565b606091505b5050905080611584576040517f08c379a000000000000000000000000000000000000000000000000000000000815260040161157b90612325565b60405180910390fd5b505050565b600061159782600001611648565b9050919050565b60006115ad8360000183611659565b60001c905092915050565b60006115e0836000018373ffffffffffffffffffffffffffffffffffffffff1660001b6116f3565b905092915050565b6000611610836000018373ffffffffffffffffffffffffffffffffffffffff1660001b611871565b905092915050565b6000611640836000018373ffffffffffffffffffffffffffffffffffffffff1660001b6118e1565b905092915050565b600081600001805490509050919050565b6000818360000180549050116116a4576040517f08c379a000000000000000000000000000000000000000000000000000000000815260040161169b906122a5565b60405180910390fd5b8260000182815481106116e0577f4e487b7100000000000000000000000000000000000000000000000000000000600052603260045260246000fd5b9060005260206000200154905092915050565b600080836001016000848152602001908152602001600020549050600081146118655760006001826117259190612630565b905060006001866000018054905061173d9190612630565b9050600086600001828154811061177d577f4e487b7100000000000000000000000000000000000000000000000000000000600052603260045260246000fd5b90600052602060002001549050808760000184815481106117c7577f4e487b7100000000000000000000000000000000000000000000000000000000600052603260045260246000fd5b9060005260206000200181905550838760010160008381526020019081526020016000208190555086600001805480611829577f4e487b7100000000000000000000000000000000000000000000000000000000600052603160045260246000fd5b6001900381819060005260206000200160009055905586600101600087815260200190815260200160002060009055600194505050505061186b565b60009150505b92915050565b600061187d83836118e1565b6118d65782600001829080600181540180825580915050600190039060005260206000200160009091909190915055826000018054905083600101600084815260200190815260200160002081905550600190506118db565b600090505b92915050565b600080836001016000848152602001908152602001600020541415905092915050565b50805461191090612700565b6000825580601f106119225750611941565b601f0160209004906000526020600020908101906119409190611a11565b5b50565b82805461195090612700565b90600052602060002090601f01602090048101928261197257600085556119b9565b82601f1061198b57805160ff19168380011785556119b9565b828001600101855582156119b9579182015b828111156119b857825182559160200191906001019061199d565b5b5090506119c69190611a11565b5090565b6040518060a001604052806060815260200160608152602001600073ffffffffffffffffffffffffffffffffffffffff168152602001600015158152602001600081525090565b5b80821115611a2a576000816000905550600101611a12565b5090565b6000611a41611a3c84612518565b6124e7565b905082815260208101848484011115611a5957600080fd5b611a648482856126be565b509392505050565b600081359050611a7b816127d0565b92915050565b600081359050611a90816127e7565b92915050565b600082601f830112611aa757600080fd5b8135611ab7848260208601611a2e565b91505092915050565b600081359050611acf816127fe565b92915050565b600060208284031215611ae757600080fd5b6000611af584828501611a6c565b91505092915050565b600060208284031215611b1057600080fd5b6000611b1e84828501611a81565b91505092915050565b600080600060608486031215611b3c57600080fd5b6000611b4a86828701611a6c565b935050602084013567ffffffffffffffff811115611b6757600080fd5b611b7386828701611a96565b925050604084013567ffffffffffffffff811115611b9057600080fd5b611b9c86828701611a96565b9150509250925092565b60008060408385031215611bb957600080fd5b6000611bc785828601611a6c565b9250506020611bd885828601611ac0565b9150509250929050565b600060208284031215611bf457600080fd5b6000611c0284828501611ac0565b91505092915050565b611c1481612664565b82525050565b611c2381612664565b82525050565b611c3281612688565b82525050565b611c4181612688565b82525050565b6000611c5282612548565b611c5c818561255e565b9350611c6c8185602086016126cd565b611c75816127bf565b840191505092915050565b6000611c8d60228361256f565b91507f456e756d657261626c655365743a20696e646578206f7574206f6620626f756e60008301527f64730000000000000000000000000000000000000000000000000000000000006020830152604082019050919050565b6000611cf360488361256f565b91507f657874656e73696f6e20697320736574206f6e6c7920696e206461797320746860008301527f6174206172652067726561746572207468656e203720616e64206c6f7765722060208301527f7468656e203336350000000000000000000000000000000000000000000000006040830152606082019050919050565b6000611d7f60238361256f565b91507f61646472657373206973206e6f74206f776e6572206f722062656e656669636960008301527f61727900000000000000000000000000000000000000000000000000000000006020830152604082019050919050565b6000611de5601d8361256f565b91507f74686973206164647265737320616c72656164792076657269666965640000006000830152602082019050919050565b6000611e25603a8361256f565b91507f416464726573733a20756e61626c6520746f2073656e642076616c75652c207260008301527f6563697069656e74206d617920686176652072657665727465640000000000006020830152604082019050919050565b6000611e8b601d8361256f565b91507f416464726573733a20696e73756666696369656e742062616c616e63650000006000830152602082019050919050565b6000611ecb60228361256f565b91507f62656e6566696369617279206164647265737320616c7265616479206578697360008301527f74210000000000000000000000000000000000000000000000000000000000006020830152604082019050919050565b6000611f31601f8361256f565b91507f616d6f756e7420697320626967676572207468616e20617661696c61626c65006000830152602082019050919050565b6000611f7160208361256f565b91507f4f776e61626c653a2063616c6c6572206973206e6f7420746865206f776e65726000830152602082019050919050565b6000611fb160278361256f565b91507f616d6f756e74206164646974696f6e206e6f7420776f726b696e67206173206560008301527f78706563746564000000000000000000000000000000000000000000000000006020830152604082019050919050565b6000612017600083612553565b9150600082019050919050565b6000612031602d8361256f565b91507f736f6d7468696e672069732077726f6e6720696e2074686520616d6f756e747360008301527f2063616c63756c6174696f6e73000000000000000000000000000000000000006020830152604082019050919050565b600061209760248361256f565b91507f62656e65666963696172792061646472657373206e6f7420796574207665726960008301527f66696564000000000000000000000000000000000000000000000000000000006020830152604082019050919050565b60006120fd601e8361256f565b91507f62656e65666963696172792061646472657373206e6f7420666f756e642100006000830152602082019050919050565b600061213d60258361256f565b91507f7769746864726177206973206e6f7420616c6c6f77656420617420746865206d60008301527f6f6d656e740000000000000000000000000000000000000000000000000000006020830152604082019050919050565b600060a08301600083015184820360008601526121b38282611c47565b915050602083015184820360208601526121cd8282611c47565b91505060408301516121e26040860182611c0b565b5060608301516121f56060860182611c29565b5060808301516122086080860182612213565b508091505092915050565b61221c816126b4565b82525050565b61222b816126b4565b82525050565b600061223c8261200a565b9150819050919050565b600060208201905061225b6000830184611c1a565b92915050565b60006040820190506122766000830185611c1a565b6122836020830184612222565b9392505050565b600060208201905061229f6000830184611c38565b92915050565b600060208201905081810360008301526122be81611c80565b9050919050565b600060208201905081810360008301526122de81611ce6565b9050919050565b600060208201905081810360008301526122fe81611d72565b9050919050565b6000602082019050818103600083015261231e81611dd8565b9050919050565b6000602082019050818103600083015261233e81611e18565b9050919050565b6000602082019050818103600083015261235e81611e7e565b9050919050565b6000602082019050818103600083015261237e81611ebe565b9050919050565b6000602082019050818103600083015261239e81611f24565b9050919050565b600060208201905081810360008301526123be81611f64565b9050919050565b600060208201905081810360008301526123de81611fa4565b9050919050565b600060208201905081810360008301526123fe81612024565b9050919050565b6000602082019050818103600083015261241e8161208a565b9050919050565b6000602082019050818103600083015261243e816120f0565b9050919050565b6000602082019050818103600083015261245e81612130565b9050919050565b6000602082019050818103600083015261247f8184612196565b905092915050565b600060208201905061249c6000830184612222565b92915050565b60006080820190506124b76000830187612222565b6124c46020830186612222565b6124d16040830185612222565b6124de6060830184612222565b95945050505050565b6000604051905081810181811067ffffffffffffffff8211171561250e5761250d612790565b5b8060405250919050565b600067ffffffffffffffff82111561253357612532612790565b5b601f19601f8301169050602081019050919050565b600081519050919050565b600081905092915050565b600082825260208201905092915050565b600082825260208201905092915050565b600061258b826126b4565b9150612596836126b4565b9250827fffffffffffffffffffffffffffffffffffffffffffffffffffffffffffffffff038211156125cb576125ca612732565b5b828201905092915050565b60006125e1826126b4565b91506125ec836126b4565b9250817fffffffffffffffffffffffffffffffffffffffffffffffffffffffffffffffff048311821515161561262557612624612732565b5b828202905092915050565b600061263b826126b4565b9150612646836126b4565b92508282101561265957612658612732565b5b828203905092915050565b600061266f82612694565b9050919050565b600061268182612694565b9050919050565b60008115159050919050565b600073ffffffffffffffffffffffffffffffffffffffff82169050919050565b6000819050919050565b82818337600083830152505050565b60005b838110156126eb5780820151818401526020810190506126d0565b838111156126fa576000848401525b50505050565b6000600282049050600182168061271857607f821691505b6020821081141561272c5761272b612761565b5b50919050565b7f4e487b7100000000000000000000000000000000000000000000000000000000600052601160045260246000fd5b7f4e487b7100000000000000000000000000000000000000000000000000000000600052602260045260246000fd5b7f4e487b7100000000000000000000000000000000000000000000000000000000600052604160045260246000fd5b6000601f19601f8301169050919050565b6127d981612664565b81146127e457600080fd5b50565b6127f081612676565b81146127fb57600080fd5b50565b612807816126b4565b811461281257600080fd5b5056fea2646970667358221220f7a62aa419063295d6e15799e4ba1cfff13c3bfdeae6accc9caad39f88107f9f64736f6c63430008000033",
  "immutableReferences": {},
  "source": "// SPDX-License-Identifier: MIT\npragma solidity ^0.8.0;\n\n//add ownable\nimport \"@openzeppelin/contracts/utils/structs/EnumerableSet.sol\";\nimport \"@openzeppelin/contracts/utils/Address.sol\";\nimport \"@openzeppelin/contracts/utils//math/SafeMath.sol\";\n\ncontract BeneficiariesVault {\n    \n    // public functions that start with prefix ow_ are only for the Owner of the contract\n    // public functions that start with prefix be_ are only for the Beneficiaries\n    // all the other public functions are accesible to the Owner or one of the Beneficiaries but not to any other address (more about access control in the modifiers comments)\n    \n    //START STATE VARIBLES\n    address private _owner;\n    uint private _sumOfAllBeneficiaries;\n    \n    event Deposit(address sender, uint value);\n    \n    using Address for address payable;\n    \n    // Add the library methods\n    using EnumerableSet for EnumerableSet.AddressSet;\n    \n    //using Strings for uint;\n    \n    // Declare a set state variable\n    EnumerableSet.AddressSet private beneficiariesAddresses;\n    \n    struct BeneficiariesStruct {\n        string email;\n        string name;\n        address beneficiarAddress;\n        bool verifiedAddress;\n        uint amount;\n    }\n    \n    //map address to struct\n    mapping(address => BeneficiariesStruct) private beneficiaries;\n    \n    uint deadlineTimestamp;\n    \n    bool withdrawAllowed;\n    \n    //END STATE VARIBLES\n    \n    constructor(address _vaultOwner){\n        //Add a dedline with default of a year from contract creation\n        deadlineTimestamp = block.timestamp + (365 * 1 days);\n        withdrawAllowed = false;\n        _owner = _vaultOwner;\n        _sumOfAllBeneficiaries = 0;\n    }\n    \n    //START UTIL FUNCTIONS\n    \n    function isContains(address  _beneficiaryAddress) private view returns(bool) {\n        return beneficiariesAddresses.contains( _beneficiaryAddress);\n    }\n    \n    function owner() private view returns (address) {\n        return _owner;\n    }\n\n    function isOwner() public view returns(bool){\n        return owner() == msg.sender;\n    }\n\n    function isBeneficiary() public view returns(bool){\n        return isContains(msg.sender);\n    }\n    \n    \n    //END UTIL FUNCTIONS\n    \n    //START MODIFIRES\n    \n    //there are only 2 roles in this contract Owner or Beneficiary\n    //and there are 3 modifiers that provide Access Controll \n    \n     modifier OnlyBeneficiary(address _beneficiaryAddress){\n         require(isContains(_beneficiaryAddress),\"beneficiary address not found!\");\n         _;\n    }\n    \n    modifier OwnerOrBeneficiary(address _address){\n         require(isOwner() || isContains(_address) ,\"address is not owner or beneficiary\");\n         _;       \n    }\n    \n    modifier onlyOwner() {\n        require(isOwner(), \"Ownable: caller is not the owner\");\n        _;\n    }\n    \n    //END MODIFIRES\n    \n    \n    //START CONTRACT PUBLIC API\n    \n    function getContractBalance() public view OwnerOrBeneficiary(msg.sender) returns (uint) {\n        return address(this).balance;\n    }\n    \n    function getBeneficiaryStruct(address _beneficiaryAddress) public view OwnerOrBeneficiary(msg.sender) returns(BeneficiariesStruct memory){\n        \n        require(isContains(_beneficiaryAddress),\"beneficiary address not found!\");\n        \n        return beneficiaries[_beneficiaryAddress];\n    }\n\n    function ow_AddBeneficiary(address _newBeneficiaryAddress, string memory _newBeneficiaryEmail, string memory _newBeneficiaryName) public onlyOwner{\n        \n        require(!isContains(_newBeneficiaryAddress),\"beneficiary address already exist!\");\n        //add to beneficiaries mapping\n        beneficiaries[_newBeneficiaryAddress] = BeneficiariesStruct(_newBeneficiaryEmail,_newBeneficiaryName, _newBeneficiaryAddress, false, 0);\n        //add to beneficiariesAddresses set\n        beneficiariesAddresses.add(_newBeneficiaryAddress);\n    }\n\n    function ow_UpdateBeneficiaryAmount(address _beneficiaryAddress, uint _amount) public OnlyBeneficiary(_beneficiaryAddress) onlyOwner{\n        \n        require(beneficiaries[_beneficiaryAddress].verifiedAddress == true,\"beneficiary address not yet verified\");\n        require(_amount <= ow_GetUnassignAmount() ,\"amount is bigger than available\");\n        //substract the old amount before adding the new one for uscases after when there is more than one update\n        (bool isSub, uint sumMinusOldAmount) = SafeMath.trySub(_sumOfAllBeneficiaries, beneficiaries[_beneficiaryAddress].amount);\n        require(isSub, \"somthing is wrong in the amounts calculations\");\n        \n        (bool isAdd, uint sum) = SafeMath.tryAdd(sumMinusOldAmount, _amount);\n        require(isAdd, \"amount addition not working as expected\");\n        \n        beneficiaries[_beneficiaryAddress].amount = _amount;\n        _sumOfAllBeneficiaries = sum;\n    }\n    \n    function ow_RemoveBeneficiary(address _beneficiaryAddress) public OnlyBeneficiary(_beneficiaryAddress) onlyOwner{\n\n        (bool isSub, uint sumMinusDeletedAccountAmount) = SafeMath.trySub(_sumOfAllBeneficiaries, beneficiaries[_beneficiaryAddress].amount);\n        require(isSub, \"somthing is wrong in the amounts calculations\");\n        _sumOfAllBeneficiaries = sumMinusDeletedAccountAmount;\n        //remove from beneficiaries mapping\n        delete beneficiaries[_beneficiaryAddress];\n        //remove from beneficiariesAddresses set\n        beneficiariesAddresses.remove(_beneficiaryAddress);\n    }\n\n    function ow_Withdraw(uint _amount) payable public onlyOwner{\n        payable(msg.sender).sendValue(_amount);\n    }\n\n    function ow_GetBeneficiariesLength() public view onlyOwner returns(uint) {\n        return beneficiariesAddresses.length();\n    }\n\n    function ow_GetBeneficiariesAtIndex(uint index) public view onlyOwner returns(address) {\n        require(index < beneficiariesAddresses.length());\n        return beneficiariesAddresses.at(index);\n    }\n    \n    function ow_GetUnassignAmount() public view onlyOwner returns(uint) {\n        (bool isSub, uint unassignAmount) = SafeMath.trySub(getContractBalance(), _sumOfAllBeneficiaries);\n        require(isSub, \"somthing is wrong in the amounts calculations\");\n        return unassignAmount;\n    }\n\n    function ow_GetOwnerPageSummary() public view onlyOwner returns(uint, uint, uint, uint) {\n\n        return (\n            getContractBalance(),\n            ow_GetUnassignAmount(),\n            ow_GetBeneficiariesLength(),\n            getDeadlineTimestamp()\n        );\n    }\n    \n    function be_Withdraw(address payable _beneficiaryAddress) public payable OnlyBeneficiary(_beneficiaryAddress){\n        //check that withdraw is allowed\n        require(isWithdrawAllowed(), \"withdraw is not allowed at the moment\");\n        //check that the msg.sender\n        \n        _beneficiaryAddress.sendValue(msg.value);//temporary just for check\n\n    }\n\n    function be_VerifyAddress() public payable OnlyBeneficiary(msg.sender){\n        require(beneficiaries[msg.sender].verifiedAddress == false, 'this address already verified');\n        beneficiaries[msg.sender].verifiedAddress = true;\n    }\n    \n    function ow_SetDeadlineFromToday(uint _numberOfDays) public onlyOwner {\n        require(_numberOfDays > 7 && _numberOfDays < 365 , \"extension is set only in days that are greater then 7 and lower then 365\");\n        deadlineTimestamp = block.timestamp + (_numberOfDays * 1 days);\n    }\n    \n    function getDeadlineTimestamp() public view OwnerOrBeneficiary(msg.sender) returns(uint){\n        return deadlineTimestamp;\n    }\n    \n    \n    function isWithdrawAllowed() public view OwnerOrBeneficiary(msg.sender) returns(bool){\n    \n        if(block.timestamp > deadlineTimestamp){\n            return true;\n        }\n        \n        return false;\n    }\n    \n    //only admin deposit to contract\n    receive() external payable onlyOwner{\n        emit Deposit(msg.sender, msg.value);\n    }\n    \n    \n    //END CONTRACT PUBLIC API\n\n }",
  "sourcePath": "/home/yaniv/Desktop/etherum/my-eth-will/contracts/BeneficiariesVault.sol",
  "compiler": {
    "name": "solc",
    "version": "0.8.0+commit.c7dfd78e.Emscripten.clang"
  },
  "schemaVersion": "3.4.1",
  "updatedAt": "2021-07-05T21:27:32.614Z",
  "devdoc": {
    "kind": "dev",
    "methods": {},
    "version": 1
  },
  "userdoc": {
    "kind": "user",
    "methods": {},
    "version": 1
  }
}