{
  "contractName": "BeneficiariesVault",
  "abi": [
    {
      "inputs": [
        {
          "internalType": "address",
          "name": "_vaultOwner",
          "type": "address"
        }
      ],
      "stateMutability": "nonpayable",
      "type": "constructor"
    },
    {
      "anonymous": false,
      "inputs": [
        {
          "indexed": false,
          "internalType": "address",
          "name": "sender",
          "type": "address"
        },
        {
          "indexed": false,
          "internalType": "uint256",
          "name": "value",
          "type": "uint256"
        }
      ],
      "name": "Deposit",
      "type": "event"
    },
    {
      "stateMutability": "payable",
      "type": "receive"
    },
    {
      "inputs": [],
      "name": "isOwner",
      "outputs": [
        {
          "internalType": "bool",
          "name": "",
          "type": "bool"
        }
      ],
      "stateMutability": "view",
      "type": "function"
    },
    {
      "inputs": [],
      "name": "isBeneficiary",
      "outputs": [
        {
          "internalType": "bool",
          "name": "",
          "type": "bool"
        }
      ],
      "stateMutability": "view",
      "type": "function"
    },
    {
      "inputs": [],
      "name": "getContractBalance",
      "outputs": [
        {
          "internalType": "uint256",
          "name": "",
          "type": "uint256"
        }
      ],
      "stateMutability": "view",
      "type": "function"
    },
    {
      "inputs": [
        {
          "internalType": "address",
          "name": "_beneficiaryAddress",
          "type": "address"
        }
      ],
      "name": "getBeneficiaryStruct",
      "outputs": [
        {
          "components": [
            {
              "internalType": "string",
              "name": "email",
              "type": "string"
            },
            {
              "internalType": "string",
              "name": "name",
              "type": "string"
            },
            {
              "internalType": "address",
              "name": "beneficiarAddress",
              "type": "address"
            },
            {
              "internalType": "bool",
              "name": "verifiedAddress",
              "type": "bool"
            },
            {
              "internalType": "uint256",
              "name": "amount",
              "type": "uint256"
            },
            {
              "internalType": "bool",
              "name": "completed",
              "type": "bool"
            }
          ],
          "internalType": "struct BeneficiariesVault.BeneficiariesStruct",
          "name": "",
          "type": "tuple"
        }
      ],
      "stateMutability": "view",
      "type": "function"
    },
    {
      "inputs": [
        {
          "internalType": "address",
          "name": "_newBeneficiaryAddress",
          "type": "address"
        },
        {
          "internalType": "string",
          "name": "_newBeneficiaryEmail",
          "type": "string"
        },
        {
          "internalType": "string",
          "name": "_newBeneficiaryName",
          "type": "string"
        }
      ],
      "name": "ow_AddBeneficiary",
      "outputs": [],
      "stateMutability": "nonpayable",
      "type": "function"
    },
    {
      "inputs": [
        {
          "internalType": "address",
          "name": "_beneficiaryAddress",
          "type": "address"
        },
        {
          "internalType": "uint256",
          "name": "_amount",
          "type": "uint256"
        }
      ],
      "name": "ow_UpdateBeneficiaryAmount",
      "outputs": [],
      "stateMutability": "nonpayable",
      "type": "function"
    },
    {
      "inputs": [
        {
          "internalType": "address",
          "name": "_beneficiaryAddress",
          "type": "address"
        }
      ],
      "name": "ow_RemoveBeneficiary",
      "outputs": [],
      "stateMutability": "nonpayable",
      "type": "function"
    },
    {
      "inputs": [
        {
          "internalType": "uint256",
          "name": "_amount",
          "type": "uint256"
        }
      ],
      "name": "ow_Withdraw",
      "outputs": [],
      "stateMutability": "payable",
      "type": "function"
    },
    {
      "inputs": [],
      "name": "ow_GetBeneficiariesLength",
      "outputs": [
        {
          "internalType": "uint256",
          "name": "",
          "type": "uint256"
        }
      ],
      "stateMutability": "view",
      "type": "function"
    },
    {
      "inputs": [
        {
          "internalType": "uint256",
          "name": "index",
          "type": "uint256"
        }
      ],
      "name": "ow_GetBeneficiariesAtIndex",
      "outputs": [
        {
          "internalType": "address",
          "name": "",
          "type": "address"
        }
      ],
      "stateMutability": "view",
      "type": "function"
    },
    {
      "inputs": [],
      "name": "ow_GetUnassignAmount",
      "outputs": [
        {
          "internalType": "uint256",
          "name": "",
          "type": "uint256"
        }
      ],
      "stateMutability": "view",
      "type": "function"
    },
    {
      "inputs": [],
      "name": "ow_GetOwnerPageSummary",
      "outputs": [
        {
          "internalType": "uint256",
          "name": "",
          "type": "uint256"
        },
        {
          "internalType": "uint256",
          "name": "",
          "type": "uint256"
        },
        {
          "internalType": "uint256",
          "name": "",
          "type": "uint256"
        },
        {
          "internalType": "uint256",
          "name": "",
          "type": "uint256"
        }
      ],
      "stateMutability": "view",
      "type": "function"
    },
    {
      "inputs": [],
      "name": "be_Withdraw",
      "outputs": [],
      "stateMutability": "payable",
      "type": "function"
    },
    {
      "inputs": [],
      "name": "be_VerifyAddress",
      "outputs": [],
      "stateMutability": "payable",
      "type": "function"
    },
    {
      "inputs": [
        {
          "internalType": "uint256",
          "name": "_numberOfDays",
          "type": "uint256"
        }
      ],
      "name": "ow_SetDeadlineFromToday",
      "outputs": [],
      "stateMutability": "nonpayable",
      "type": "function"
    },
    {
      "inputs": [],
      "name": "getDeadlineTimestamp",
      "outputs": [
        {
          "internalType": "uint256",
          "name": "",
          "type": "uint256"
        }
      ],
      "stateMutability": "view",
      "type": "function"
    },
    {
      "inputs": [],
      "name": "isWithdrawAllowed",
      "outputs": [
        {
          "internalType": "bool",
          "name": "",
          "type": "bool"
        }
      ],
      "stateMutability": "view",
      "type": "function"
    }
  ],
  "bytecode": "0x60806040523480156200001157600080fd5b5060405162002b9438038062002b948339818101604052810190620000379190620000d0565b6301e1338042620000499190620000fc565b6005819055506000600660006101000a81548160ff021916908315150217905550806000806101000a81548173ffffffffffffffffffffffffffffffffffffffff021916908373ffffffffffffffffffffffffffffffffffffffff160217905550600060018190555050620001be565b600081519050620000ca81620001a4565b92915050565b600060208284031215620000e357600080fd5b6000620000f384828501620000b9565b91505092915050565b600062000109826200016b565b915062000116836200016b565b9250828210156200012c576200012b62000175565b5b828203905092915050565b600062000144826200014b565b9050919050565b600073ffffffffffffffffffffffffffffffffffffffff82169050919050565b6000819050919050565b7f4e487b7100000000000000000000000000000000000000000000000000000000600052601160045260246000fd5b620001af8162000137565b8114620001bb57600080fd5b50565b6129c680620001ce6000396000f3fe6080604052600436106101025760003560e01c80637b70209f11610095578063b1e2ccd411610064578063b1e2ccd41461039c578063dfa1e8a7146103b8578063dfc6e9c2146103c2578063e4fdcfe9146103f0578063f6cd8dc1146103fa57610189565b80637b70209f146102f25780637e6d0fa01461031d5780638f32d59b14610348578063a63c49671461037357610189565b80636e6addd4116100d15780636e6addd4146102485780636f9fb98a14610271578063715875d81461029c57806379cd9a31146102c757610189565b80630d62d37b1461018e57806335fe629b146101b75780633af55ac3146101f457806349578fcf1461021f57610189565b366101895761010f610437565b61014e576040517f08c379a000000000000000000000000000000000000000000000000000000000815260040161014590612549565b60405180910390fd5b7fe1fffcc4923d04b559f4d29a8bfc6cda04eb5b0d3c460751c2402c5c5cc9109c333460405161017f929190612405565b60405180910390a1005b600080fd5b34801561019a57600080fd5b506101b560048036038101906101b09190611d37565b610474565b005b3480156101c357600080fd5b506101de60048036038101906101d99190611d73565b610721565b6040516101eb91906123ea565b60405180910390f35b34801561020057600080fd5b5061020961079a565b604051610216919061262b565b60405180910390f35b34801561022b57600080fd5b5061024660048036038101906102419190611c8f565b610845565b005b34801561025457600080fd5b5061026f600480360381019061026a9190611d73565b610a45565b005b34801561027d57600080fd5b50610286610aff565b604051610293919061262b565b60405180910390f35b3480156102a857600080fd5b506102b1610b60565b6040516102be919061262b565b60405180910390f35b3480156102d357600080fd5b506102dc610bc3565b6040516102e9919061262b565b60405180910390f35b3480156102fe57600080fd5b50610307610c1b565b604051610314919061242e565b60405180910390f35b34801561032957600080fd5b50610332610c2b565b60405161033f919061242e565b60405180910390f35b34801561035457600080fd5b5061035d610437565b60405161036a919061242e565b60405180910390f35b34801561037f57600080fd5b5061039a60048036038101906103959190611cb8565b610ca1565b005b6103b660048036038101906103b19190611d73565b610ea2565b005b6103c0610f15565b005b3480156103ce57600080fd5b506103d7611152565b6040516103e79493929190612646565b60405180910390f35b6103f86111cd565b005b34801561040657600080fd5b50610421600480360381019061041c9190611c8f565b61130a565b60405161042e9190612609565b60405180910390f35b60003373ffffffffffffffffffffffffffffffffffffffff166104586115be565b73ffffffffffffffffffffffffffffffffffffffff1614905090565b8161047e816115e7565b6104bd576040517f08c379a00000000000000000000000000000000000000000000000000000000081526004016104b4906125c9565b60405180910390fd5b6104c5610437565b610504576040517f08c379a00000000000000000000000000000000000000000000000000000000081526004016104fb90612549565b60405180910390fd5b60011515600460008573ffffffffffffffffffffffffffffffffffffffff1673ffffffffffffffffffffffffffffffffffffffff16815260200190815260200160002060020160149054906101000a900460ff1615151461059a576040517f08c379a0000000000000000000000000000000000000000000000000000000008152600401610591906125a9565b60405180910390fd5b6105a261079a565b8211156105e4576040517f08c379a00000000000000000000000000000000000000000000000000000000081526004016105db90612529565b60405180910390fd5b600080610635600154600460008873ffffffffffffffffffffffffffffffffffffffff1673ffffffffffffffffffffffffffffffffffffffff16815260200190815260200160002060030154611604565b9150915081610679576040517f08c379a000000000000000000000000000000000000000000000000000000000815260040161067090612589565b60405180910390fd5b600080610686838761162c565b91509150816106ca576040517f08c379a00000000000000000000000000000000000000000000000000000000081526004016106c190612569565b60405180910390fd5b85600460008973ffffffffffffffffffffffffffffffffffffffff1673ffffffffffffffffffffffffffffffffffffffff168152602001908152602001600020600301819055508060018190555050505050505050565b600061072b610437565b61076a576040517f08c379a000000000000000000000000000000000000000000000000000000000815260040161076190612549565b60405180910390fd5b610774600261165b565b821061077f57600080fd5b61079382600261167090919063ffffffff16565b9050919050565b60006107a4610437565b6107e3576040517f08c379a00000000000000000000000000000000000000000000000000000000081526004016107da90612549565b60405180910390fd5b6000806107f96107f1610aff565b600154611604565b915091508161083d576040517f08c379a000000000000000000000000000000000000000000000000000000000815260040161083490612589565b60405180910390fd5b809250505090565b8061084f816115e7565b61088e576040517f08c379a0000000000000000000000000000000000000000000000000000000008152600401610885906125c9565b60405180910390fd5b610896610437565b6108d5576040517f08c379a00000000000000000000000000000000000000000000000000000000081526004016108cc90612549565b60405180910390fd5b600080610926600154600460008773ffffffffffffffffffffffffffffffffffffffff1673ffffffffffffffffffffffffffffffffffffffff16815260200190815260200160002060030154611604565b915091508161096a576040517f08c379a000000000000000000000000000000000000000000000000000000000815260040161096190612589565b60405180910390fd5b80600181905550600460008573ffffffffffffffffffffffffffffffffffffffff1673ffffffffffffffffffffffffffffffffffffffff168152602001908152602001600020600080820160006109c19190611aca565b6001820160006109d19190611aca565b6002820160006101000a81549073ffffffffffffffffffffffffffffffffffffffff02191690556002820160146101000a81549060ff021916905560038201600090556004820160006101000a81549060ff02191690555050610a3e84600261168a90919063ffffffff16565b5050505050565b610a4d610437565b610a8c576040517f08c379a0000000000000000000000000000000000000000000000000000000008152600401610a8390612549565b60405180910390fd5b600781118015610a9d575061016d81105b610adc576040517f08c379a0000000000000000000000000000000000000000000000000000000008152600401610ad390612469565b60405180910390fd5b6201518081610aeb919061277a565b42610af69190612724565b60058190555050565b600033610b0a610437565b80610b1a5750610b19816115e7565b5b610b59576040517f08c379a0000000000000000000000000000000000000000000000000000000008152600401610b5090612489565b60405180910390fd5b4791505090565b600033610b6b610437565b80610b7b5750610b7a816115e7565b5b610bba576040517f08c379a0000000000000000000000000000000000000000000000000000000008152600401610bb190612489565b60405180910390fd5b60055491505090565b6000610bcd610437565b610c0c576040517f08c379a0000000000000000000000000000000000000000000000000000000008152600401610c0390612549565b60405180910390fd5b610c16600261165b565b905090565b6000610c26336115e7565b905090565b600033610c36610437565b80610c465750610c45816115e7565b5b610c85576040517f08c379a0000000000000000000000000000000000000000000000000000000008152600401610c7c90612489565b60405180910390fd5b600554421115610c985760019150610c9d565b600091505b5090565b610ca9610437565b610ce8576040517f08c379a0000000000000000000000000000000000000000000000000000000008152600401610cdf90612549565b60405180910390fd5b610cf1836115e7565b15610d31576040517f08c379a0000000000000000000000000000000000000000000000000000000008152600401610d2890612509565b60405180910390fd5b6040518060c001604052808381526020018281526020018473ffffffffffffffffffffffffffffffffffffffff1681526020016000151581526020016000815260200160001515815250600460008573ffffffffffffffffffffffffffffffffffffffff1673ffffffffffffffffffffffffffffffffffffffff1681526020019081526020016000206000820151816000019080519060200190610dd6929190611b0a565b506020820151816001019080519060200190610df3929190611b0a565b5060408201518160020160006101000a81548173ffffffffffffffffffffffffffffffffffffffff021916908373ffffffffffffffffffffffffffffffffffffffff16021790555060608201518160020160146101000a81548160ff0219169083151502179055506080820151816003015560a08201518160040160006101000a81548160ff021916908315150217905550905050610e9c8360026116ba90919063ffffffff16565b50505050565b610eaa610437565b610ee9576040517f08c379a0000000000000000000000000000000000000000000000000000000008152600401610ee090612549565b60405180910390fd5b610f12813373ffffffffffffffffffffffffffffffffffffffff166116ea90919063ffffffff16565b50565b33610f1f816115e7565b610f5e576040517f08c379a0000000000000000000000000000000000000000000000000000000008152600401610f55906125c9565b60405180910390fd5b610f66610c2b565b610fa5576040517f08c379a0000000000000000000000000000000000000000000000000000000008152600401610f9c906125e9565b60405180910390fd5b60011515600460003373ffffffffffffffffffffffffffffffffffffffff1673ffffffffffffffffffffffffffffffffffffffff16815260200190815260200160002060020160149054906101000a900460ff1615151461103b576040517f08c379a0000000000000000000000000000000000000000000000000000000008152600401611032906125a9565b60405180910390fd5b6000600460003373ffffffffffffffffffffffffffffffffffffffff1673ffffffffffffffffffffffffffffffffffffffff1681526020019081526020016000206003015490506000600460003373ffffffffffffffffffffffffffffffffffffffff1673ffffffffffffffffffffffffffffffffffffffff168152602001908152602001600020600301819055506001600460003373ffffffffffffffffffffffffffffffffffffffff1673ffffffffffffffffffffffffffffffffffffffff16815260200190815260200160002060040160006101000a81548160ff02191690831515021790555061114e813373ffffffffffffffffffffffffffffffffffffffff166116ea90919063ffffffff16565b5050565b600080600080611160610437565b61119f576040517f08c379a000000000000000000000000000000000000000000000000000000000815260040161119690612549565b60405180910390fd5b6111a7610aff565b6111af61079a565b6111b7610bc3565b6111bf610b60565b935093509350935090919293565b336111d7816115e7565b611216576040517f08c379a000000000000000000000000000000000000000000000000000000000815260040161120d906125c9565b60405180910390fd5b60001515600460003373ffffffffffffffffffffffffffffffffffffffff1673ffffffffffffffffffffffffffffffffffffffff16815260200190815260200160002060020160149054906101000a900460ff161515146112ac576040517f08c379a00000000000000000000000000000000000000000000000000000000081526004016112a3906124a9565b60405180910390fd5b6001600460003373ffffffffffffffffffffffffffffffffffffffff1673ffffffffffffffffffffffffffffffffffffffff16815260200190815260200160002060020160146101000a81548160ff02191690831515021790555050565b611312611b90565b3361131b610437565b8061132b575061132a816115e7565b5b61136a576040517f08c379a000000000000000000000000000000000000000000000000000000000815260040161136190612489565b60405180910390fd5b611373836115e7565b6113b2576040517f08c379a00000000000000000000000000000000000000000000000000000000081526004016113a9906125c9565b60405180910390fd5b600460008473ffffffffffffffffffffffffffffffffffffffff1673ffffffffffffffffffffffffffffffffffffffff1681526020019081526020016000206040518060c001604052908160008201805461140c90612892565b80601f016020809104026020016040519081016040528092919081815260200182805461143890612892565b80156114855780601f1061145a57610100808354040283529160200191611485565b820191906000526020600020905b81548152906001019060200180831161146857829003601f168201915b5050505050815260200160018201805461149e90612892565b80601f01602080910402602001604051908101604052809291908181526020018280546114ca90612892565b80156115175780601f106114ec57610100808354040283529160200191611517565b820191906000526020600020905b8154815290600101906020018083116114fa57829003601f168201915b505050505081526020016002820160009054906101000a900473ffffffffffffffffffffffffffffffffffffffff1673ffffffffffffffffffffffffffffffffffffffff1673ffffffffffffffffffffffffffffffffffffffff1681526020016002820160149054906101000a900460ff16151515158152602001600382015481526020016004820160009054906101000a900460ff161515151581525050915050919050565b60008060009054906101000a900473ffffffffffffffffffffffffffffffffffffffff16905090565b60006115fd8260026117de90919063ffffffff16565b9050919050565b6000808383111561161b5760008091509150611625565b6001838503915091505b9250929050565b600080600083850190508481101561164b576000809250925050611654565b60018192509250505b9250929050565b60006116698260000161180e565b9050919050565b600061167f836000018361181f565b60001c905092915050565b60006116b2836000018373ffffffffffffffffffffffffffffffffffffffff1660001b6118b9565b905092915050565b60006116e2836000018373ffffffffffffffffffffffffffffffffffffffff1660001b611a37565b905092915050565b8047101561172d576040517f08c379a0000000000000000000000000000000000000000000000000000000008152600401611724906124e9565b60405180910390fd5b60008273ffffffffffffffffffffffffffffffffffffffff1682604051611753906123d5565b60006040518083038185875af1925050503d8060008114611790576040519150601f19603f3d011682016040523d82523d6000602084013e611795565b606091505b50509050806117d9576040517f08c379a00000000000000000000000000000000000000000000000000000000081526004016117d0906124c9565b60405180910390fd5b505050565b6000611806836000018373ffffffffffffffffffffffffffffffffffffffff1660001b611aa7565b905092915050565b600081600001805490509050919050565b60008183600001805490501161186a576040517f08c379a000000000000000000000000000000000000000000000000000000000815260040161186190612449565b60405180910390fd5b8260000182815481106118a6577f4e487b7100000000000000000000000000000000000000000000000000000000600052603260045260246000fd5b9060005260206000200154905092915050565b60008083600101600084815260200190815260200160002054905060008114611a2b5760006001826118eb91906127d4565b905060006001866000018054905061190391906127d4565b90506000866000018281548110611943577f4e487b7100000000000000000000000000000000000000000000000000000000600052603260045260246000fd5b906000526020600020015490508087600001848154811061198d577f4e487b7100000000000000000000000000000000000000000000000000000000600052603260045260246000fd5b90600052602060002001819055508387600101600083815260200190815260200160002081905550866000018054806119ef577f4e487b7100000000000000000000000000000000000000000000000000000000600052603160045260246000fd5b60019003818190600052602060002001600090559055866001016000878152602001908152602001600020600090556001945050505050611a31565b60009150505b92915050565b6000611a438383611aa7565b611a9c578260000182908060018154018082558091505060019003906000526020600020016000909190919091505582600001805490508360010160008481526020019081526020016000208190555060019050611aa1565b600090505b92915050565b600080836001016000848152602001908152602001600020541415905092915050565b508054611ad690612892565b6000825580601f10611ae85750611b07565b601f016020900490600052602060002090810190611b069190611be0565b5b50565b828054611b1690612892565b90600052602060002090601f016020900481019282611b385760008555611b7f565b82601f10611b5157805160ff1916838001178555611b7f565b82800160010185558215611b7f579182015b82811115611b7e578251825591602001919060010190611b63565b5b509050611b8c9190611be0565b5090565b6040518060c001604052806060815260200160608152602001600073ffffffffffffffffffffffffffffffffffffffff168152602001600015158152602001600081526020016000151581525090565b5b80821115611bf9576000816000905550600101611be1565b5090565b6000611c10611c0b846126bc565b61268b565b905082815260208101848484011115611c2857600080fd5b611c33848285612850565b509392505050565b600081359050611c4a81612962565b92915050565b600082601f830112611c6157600080fd5b8135611c71848260208601611bfd565b91505092915050565b600081359050611c8981612979565b92915050565b600060208284031215611ca157600080fd5b6000611caf84828501611c3b565b91505092915050565b600080600060608486031215611ccd57600080fd5b6000611cdb86828701611c3b565b935050602084013567ffffffffffffffff811115611cf857600080fd5b611d0486828701611c50565b925050604084013567ffffffffffffffff811115611d2157600080fd5b611d2d86828701611c50565b9150509250925092565b60008060408385031215611d4a57600080fd5b6000611d5885828601611c3b565b9250506020611d6985828601611c7a565b9150509250929050565b600060208284031215611d8557600080fd5b6000611d9384828501611c7a565b91505092915050565b611da581612808565b82525050565b611db481612808565b82525050565b611dc38161281a565b82525050565b611dd28161281a565b82525050565b6000611de3826126ec565b611ded8185612702565b9350611dfd81856020860161285f565b611e0681612951565b840191505092915050565b6000611e1e602283612713565b91507f456e756d657261626c655365743a20696e646578206f7574206f6620626f756e60008301527f64730000000000000000000000000000000000000000000000000000000000006020830152604082019050919050565b6000611e84604883612713565b91507f657874656e73696f6e20697320736574206f6e6c7920696e206461797320746860008301527f6174206172652067726561746572207468656e203720616e64206c6f7765722060208301527f7468656e203336350000000000000000000000000000000000000000000000006040830152606082019050919050565b6000611f10602383612713565b91507f61646472657373206973206e6f74206f776e6572206f722062656e656669636960008301527f61727900000000000000000000000000000000000000000000000000000000006020830152604082019050919050565b6000611f76601d83612713565b91507f74686973206164647265737320616c72656164792076657269666965640000006000830152602082019050919050565b6000611fb6603a83612713565b91507f416464726573733a20756e61626c6520746f2073656e642076616c75652c207260008301527f6563697069656e74206d617920686176652072657665727465640000000000006020830152604082019050919050565b600061201c601d83612713565b91507f416464726573733a20696e73756666696369656e742062616c616e63650000006000830152602082019050919050565b600061205c602283612713565b91507f62656e6566696369617279206164647265737320616c7265616479206578697360008301527f74210000000000000000000000000000000000000000000000000000000000006020830152604082019050919050565b60006120c2601f83612713565b91507f616d6f756e7420697320626967676572207468616e20617661696c61626c65006000830152602082019050919050565b6000612102602083612713565b91507f4f776e61626c653a2063616c6c6572206973206e6f7420746865206f776e65726000830152602082019050919050565b6000612142602783612713565b91507f616d6f756e74206164646974696f6e206e6f7420776f726b696e67206173206560008301527f78706563746564000000000000000000000000000000000000000000000000006020830152604082019050919050565b60006121a86000836126f7565b9150600082019050919050565b60006121c2602d83612713565b91507f736f6d7468696e672069732077726f6e6720696e2074686520616d6f756e747360008301527f2063616c63756c6174696f6e73000000000000000000000000000000000000006020830152604082019050919050565b6000612228602483612713565b91507f62656e65666963696172792061646472657373206e6f7420796574207665726960008301527f66696564000000000000000000000000000000000000000000000000000000006020830152604082019050919050565b600061228e601e83612713565b91507f62656e65666963696172792061646472657373206e6f7420666f756e642100006000830152602082019050919050565b60006122ce602583612713565b91507f7769746864726177206973206e6f7420616c6c6f77656420617420746865206d60008301527f6f6d656e740000000000000000000000000000000000000000000000000000006020830152604082019050919050565b600060c08301600083015184820360008601526123448282611dd8565b9150506020830151848203602086015261235e8282611dd8565b91505060408301516123736040860182611d9c565b5060608301516123866060860182611dba565b50608083015161239960808601826123b7565b5060a08301516123ac60a0860182611dba565b508091505092915050565b6123c081612846565b82525050565b6123cf81612846565b82525050565b60006123e08261219b565b9150819050919050565b60006020820190506123ff6000830184611dab565b92915050565b600060408201905061241a6000830185611dab565b61242760208301846123c6565b9392505050565b60006020820190506124436000830184611dc9565b92915050565b6000602082019050818103600083015261246281611e11565b9050919050565b6000602082019050818103600083015261248281611e77565b9050919050565b600060208201905081810360008301526124a281611f03565b9050919050565b600060208201905081810360008301526124c281611f69565b9050919050565b600060208201905081810360008301526124e281611fa9565b9050919050565b600060208201905081810360008301526125028161200f565b9050919050565b600060208201905081810360008301526125228161204f565b9050919050565b60006020820190508181036000830152612542816120b5565b9050919050565b60006020820190508181036000830152612562816120f5565b9050919050565b6000602082019050818103600083015261258281612135565b9050919050565b600060208201905081810360008301526125a2816121b5565b9050919050565b600060208201905081810360008301526125c28161221b565b9050919050565b600060208201905081810360008301526125e281612281565b9050919050565b60006020820190508181036000830152612602816122c1565b9050919050565b600060208201905081810360008301526126238184612327565b905092915050565b600060208201905061264060008301846123c6565b92915050565b600060808201905061265b60008301876123c6565b61266860208301866123c6565b61267560408301856123c6565b61268260608301846123c6565b95945050505050565b6000604051905081810181811067ffffffffffffffff821117156126b2576126b1612922565b5b8060405250919050565b600067ffffffffffffffff8211156126d7576126d6612922565b5b601f19601f8301169050602081019050919050565b600081519050919050565b600081905092915050565b600082825260208201905092915050565b600082825260208201905092915050565b600061272f82612846565b915061273a83612846565b9250827fffffffffffffffffffffffffffffffffffffffffffffffffffffffffffffffff0382111561276f5761276e6128c4565b5b828201905092915050565b600061278582612846565b915061279083612846565b9250817fffffffffffffffffffffffffffffffffffffffffffffffffffffffffffffffff04831182151516156127c9576127c86128c4565b5b828202905092915050565b60006127df82612846565b91506127ea83612846565b9250828210156127fd576127fc6128c4565b5b828203905092915050565b600061281382612826565b9050919050565b60008115159050919050565b600073ffffffffffffffffffffffffffffffffffffffff82169050919050565b6000819050919050565b82818337600083830152505050565b60005b8381101561287d578082015181840152602081019050612862565b8381111561288c576000848401525b50505050565b600060028204905060018216806128aa57607f821691505b602082108114156128be576128bd6128f3565b5b50919050565b7f4e487b7100000000000000000000000000000000000000000000000000000000600052601160045260246000fd5b7f4e487b7100000000000000000000000000000000000000000000000000000000600052602260045260246000fd5b7f4e487b7100000000000000000000000000000000000000000000000000000000600052604160045260246000fd5b6000601f19601f8301169050919050565b61296b81612808565b811461297657600080fd5b50565b61298281612846565b811461298d57600080fd5b5056fea26469706673582212200392cce63deb9e0186ed10970b6df6d3f0565e165edb695da69fd65faf0f2e2664736f6c63430008000033",
  "immutableReferences": {},
  "source": "// SPDX-License-Identifier: MIT\npragma solidity ^0.8.0;\n\n//add ownable\nimport \"@openzeppelin/contracts/utils/structs/EnumerableSet.sol\";\nimport \"@openzeppelin/contracts/utils/Address.sol\";\nimport \"@openzeppelin/contracts/utils//math/SafeMath.sol\";\n\ncontract BeneficiariesVault {\n    \n    // public functions that start with prefix ow_ are only for the Owner of the contract\n    // public functions that start with prefix be_ are only for the Beneficiaries\n    // all the other public functions are accesible to the Owner or one of the Beneficiaries but not to any other address (more about access control in the modifiers comments)\n    \n    //START STATE VARIBLES\n    address private _owner;\n    uint private _sumOfAllBeneficiaries;\n    \n    event Deposit(address sender, uint value);\n    \n    using Address for address payable;\n    \n    // Add the library methods\n    using EnumerableSet for EnumerableSet.AddressSet;\n    \n    //using Strings for uint;\n    \n    // Declare a set state variable\n    EnumerableSet.AddressSet private beneficiariesAddresses;\n    \n    struct BeneficiariesStruct {\n        string email;\n        string name;\n        address beneficiarAddress;\n        bool verifiedAddress;\n        uint amount;\n        bool completed;\n    }\n    \n    //map address to struct\n    mapping(address => BeneficiariesStruct) private beneficiaries;\n    \n    uint deadlineTimestamp;\n    \n    bool withdrawAllowed;\n    \n    //END STATE VARIBLES\n    \n    constructor(address _vaultOwner){\n        //Add a dedline with default of a year from contract creation\n        //deadlineTimestamp = block.timestamp + (365 * 1 days);\n        deadlineTimestamp = block.timestamp - (365 * 1 days);\n        withdrawAllowed = false;\n        _owner = _vaultOwner;\n        _sumOfAllBeneficiaries = 0;\n    }\n    \n    //START UTIL FUNCTIONS\n    \n    function isContains(address  _beneficiaryAddress) private view returns(bool) {\n        return beneficiariesAddresses.contains( _beneficiaryAddress);\n    }\n    \n    function owner() private view returns (address) {\n        return _owner;\n    }\n\n    function isOwner() public view returns(bool){\n        return owner() == msg.sender;\n    }\n\n    function isBeneficiary() public view returns(bool){\n        return isContains(msg.sender);\n    }\n    \n    \n    //END UTIL FUNCTIONS\n    \n    //START MODIFIRES\n    \n    //there are only 2 roles in this contract Owner or Beneficiary\n    //and there are 3 modifiers that provide Access Controll \n    \n     modifier OnlyBeneficiary(address _beneficiaryAddress){\n         require(isContains(_beneficiaryAddress),\"beneficiary address not found!\");\n         _;\n    }\n    \n    modifier OwnerOrBeneficiary(address _address){\n         require(isOwner() || isContains(_address) ,\"address is not owner or beneficiary\");\n         _;       \n    }\n    \n    modifier onlyOwner() {\n        require(isOwner(), \"Ownable: caller is not the owner\");\n        _;\n    }\n    \n    //END MODIFIRES\n    \n    \n    //START CONTRACT PUBLIC API\n    \n    function getContractBalance() public view OwnerOrBeneficiary(msg.sender) returns (uint) {\n        return address(this).balance;\n    }\n    \n    function getBeneficiaryStruct(address _beneficiaryAddress) public view OwnerOrBeneficiary(msg.sender) returns(BeneficiariesStruct memory){\n        \n        require(isContains(_beneficiaryAddress),\"beneficiary address not found!\");\n        \n        return beneficiaries[_beneficiaryAddress];\n    }\n\n    function ow_AddBeneficiary(address _newBeneficiaryAddress, string memory _newBeneficiaryEmail, string memory _newBeneficiaryName) public onlyOwner{\n        \n        require(!isContains(_newBeneficiaryAddress),\"beneficiary address already exist!\");\n        //add to beneficiaries mapping\n        beneficiaries[_newBeneficiaryAddress] = BeneficiariesStruct(_newBeneficiaryEmail,_newBeneficiaryName, _newBeneficiaryAddress, false, 0, false);\n        //add to beneficiariesAddresses set\n        beneficiariesAddresses.add(_newBeneficiaryAddress);\n    }\n\n    function ow_UpdateBeneficiaryAmount(address _beneficiaryAddress, uint _amount) public OnlyBeneficiary(_beneficiaryAddress) onlyOwner{\n        \n        require(beneficiaries[_beneficiaryAddress].verifiedAddress == true,\"beneficiary address not yet verified\");\n        require(_amount <= ow_GetUnassignAmount() ,\"amount is bigger than available\");\n        //substract the old amount before adding the new one for uscases after when there is more than one update\n        (bool isSub, uint sumMinusOldAmount) = SafeMath.trySub(_sumOfAllBeneficiaries, beneficiaries[_beneficiaryAddress].amount);\n        require(isSub, \"somthing is wrong in the amounts calculations\");\n        \n        (bool isAdd, uint sum) = SafeMath.tryAdd(sumMinusOldAmount, _amount);\n        require(isAdd, \"amount addition not working as expected\");\n        \n        beneficiaries[_beneficiaryAddress].amount = _amount;\n        _sumOfAllBeneficiaries = sum;\n    }\n    \n    function ow_RemoveBeneficiary(address _beneficiaryAddress) public OnlyBeneficiary(_beneficiaryAddress) onlyOwner{\n\n        (bool isSub, uint sumMinusDeletedAccountAmount) = SafeMath.trySub(_sumOfAllBeneficiaries, beneficiaries[_beneficiaryAddress].amount);\n        require(isSub, \"somthing is wrong in the amounts calculations\");\n        _sumOfAllBeneficiaries = sumMinusDeletedAccountAmount;\n        //remove from beneficiaries mapping\n        delete beneficiaries[_beneficiaryAddress];\n        //remove from beneficiariesAddresses set\n        beneficiariesAddresses.remove(_beneficiaryAddress);\n    }\n\n    function ow_Withdraw(uint _amount) payable public onlyOwner{\n        payable(msg.sender).sendValue(_amount);\n    }\n\n    function ow_GetBeneficiariesLength() public view onlyOwner returns(uint) {\n        return beneficiariesAddresses.length();\n    }\n\n    function ow_GetBeneficiariesAtIndex(uint index) public view onlyOwner returns(address) {\n        require(index < beneficiariesAddresses.length());\n        return beneficiariesAddresses.at(index);\n    }\n    \n    function ow_GetUnassignAmount() public view onlyOwner returns(uint) {\n        (bool isSub, uint unassignAmount) = SafeMath.trySub(getContractBalance(), _sumOfAllBeneficiaries);\n        require(isSub, \"somthing is wrong in the amounts calculations\");\n        return unassignAmount;\n    }\n\n    function ow_GetOwnerPageSummary() public view onlyOwner returns(uint, uint, uint, uint) {\n\n        return (\n            getContractBalance(),\n            ow_GetUnassignAmount(),\n            ow_GetBeneficiariesLength(),\n            getDeadlineTimestamp()\n        );\n    }\n    \n    function be_Withdraw() public payable OnlyBeneficiary(msg.sender){\n        //check that withdraw is allowed\n        require(isWithdrawAllowed(), \"withdraw is not allowed at the moment\");\n        require(beneficiaries[msg.sender].verifiedAddress == true,\"beneficiary address not yet verified\");\n        \n        uint _amount = beneficiaries[msg.sender].amount;\n        beneficiaries[msg.sender].amount = 0;\n        beneficiaries[msg.sender].completed = true;\n        payable(msg.sender).sendValue(_amount);\n\n    }\n\n    function be_VerifyAddress() public payable OnlyBeneficiary(msg.sender){\n        require(beneficiaries[msg.sender].verifiedAddress == false, 'this address already verified');\n        beneficiaries[msg.sender].verifiedAddress = true;\n    }\n    \n    function ow_SetDeadlineFromToday(uint _numberOfDays) public onlyOwner {\n        require(_numberOfDays > 7 && _numberOfDays < 365 , \"extension is set only in days that are greater then 7 and lower then 365\");\n        deadlineTimestamp = block.timestamp + (_numberOfDays * 1 days);\n    }\n    \n    function getDeadlineTimestamp() public view OwnerOrBeneficiary(msg.sender) returns(uint){\n        return deadlineTimestamp;\n    }\n    \n    \n    function isWithdrawAllowed() public view OwnerOrBeneficiary(msg.sender) returns(bool){\n    \n        if(block.timestamp > deadlineTimestamp){\n            return true;\n        }\n        \n        return false;\n    }\n    \n    //only admin deposit to contract\n    receive() external payable onlyOwner{\n        emit Deposit(msg.sender, msg.value);\n    }\n    \n    \n    //END CONTRACT PUBLIC API\n\n }",
  "sourcePath": "/home/yaniv/Desktop/etherum/my-eth-will/contracts/BeneficiariesVault.sol",
  "compiler": {
    "name": "solc",
    "version": "0.8.0+commit.c7dfd78e.Emscripten.clang"
  },
  "schemaVersion": "3.4.1",
  "updatedAt": "2021-07-22T19:24:52.263Z",
  "devdoc": {
    "kind": "dev",
    "methods": {},
    "version": 1
  },
  "userdoc": {
    "kind": "user",
    "methods": {},
    "version": 1
  }
}