{
    "contractName": "BeneficiariesVault",
    "abi": [
        {
            "inputs": [
                {
                    "internalType": "address",
                    "name": "_vaultOwner",
                    "type": "address"
                }
            ],
            "stateMutability": "nonpayable",
            "type": "constructor"
        },
        {
            "anonymous": false,
            "inputs": [
                {
                    "indexed": false,
                    "internalType": "address",
                    "name": "sender",
                    "type": "address"
                },
                {
                    "indexed": false,
                    "internalType": "uint256",
                    "name": "value",
                    "type": "uint256"
                }
            ],
            "name": "Deposit",
            "type": "event"
        },
        {
            "inputs": [
                {
                    "internalType": "address payable",
                    "name": "_beneficiaryAddress",
                    "type": "address"
                }
            ],
            "name": "be_Withdraw",
            "outputs": [],
            "stateMutability": "payable",
            "type": "function"
        },
        {
            "inputs": [
                {
                    "internalType": "address",
                    "name": "_beneficiaryAddress",
                    "type": "address"
                }
            ],
            "name": "getBeneficiariesStruct",
            "outputs": [
                {
                    "components": [
                        {
                            "internalType": "string",
                            "name": "email",
                            "type": "string"
                        },
                        {
                            "internalType": "string",
                            "name": "name",
                            "type": "string"
                        }
                    ],
                    "internalType": "struct BeneficiariesVault.BeneficiariesStruct",
                    "name": "",
                    "type": "tuple"
                }
            ],
            "stateMutability": "view",
            "type": "function"
        },
        {
            "inputs": [],
            "name": "getContractBalance",
            "outputs": [
                {
                    "internalType": "uint256",
                    "name": "",
                    "type": "uint256"
                }
            ],
            "stateMutability": "view",
            "type": "function"
        },
        {
            "inputs": [],
            "name": "getDeadlineTimestamp",
            "outputs": [
                {
                    "internalType": "uint256",
                    "name": "",
                    "type": "uint256"
                }
            ],
            "stateMutability": "view",
            "type": "function"
        },
        {
            "inputs": [],
            "name": "isBeneficiary",
            "outputs": [
                {
                    "internalType": "bool",
                    "name": "",
                    "type": "bool"
                }
            ],
            "stateMutability": "view",
            "type": "function"
        },
        {
            "inputs": [],
            "name": "isOwner",
            "outputs": [
                {
                    "internalType": "bool",
                    "name": "",
                    "type": "bool"
                }
            ],
            "stateMutability": "view",
            "type": "function"
        },
        {
            "inputs": [],
            "name": "isWithdrawAllowed",
            "outputs": [
                {
                    "internalType": "bool",
                    "name": "",
                    "type": "bool"
                }
            ],
            "stateMutability": "view",
            "type": "function"
        },
        {
            "inputs": [
                {
                    "internalType": "address",
                    "name": "_newBeneficiaryAddress",
                    "type": "address"
                },
                {
                    "internalType": "string",
                    "name": "_newBeneficiaryEmail",
                    "type": "string"
                },
                {
                    "internalType": "string",
                    "name": "_newBeneficiaryName",
                    "type": "string"
                }
            ],
            "name": "ow_AddBeneficiary",
            "outputs": [],
            "stateMutability": "nonpayable",
            "type": "function"
        },
        {
            "inputs": [
                {
                    "internalType": "address",
                    "name": "_beneficiaryAddress",
                    "type": "address"
                }
            ],
            "name": "ow_RemoveBeneficiary",
            "outputs": [],
            "stateMutability": "nonpayable",
            "type": "function"
        },
        {
            "inputs": [
                {
                    "internalType": "uint256",
                    "name": "_numberOfDays",
                    "type": "uint256"
                }
            ],
            "name": "ow_SetDeadlineFromToday",
            "outputs": [],
            "stateMutability": "nonpayable",
            "type": "function"
        },
        {
            "inputs": [
                {
                    "internalType": "uint256",
                    "name": "_amount",
                    "type": "uint256"
                }
            ],
            "name": "ow_Withdraw",
            "outputs": [],
            "stateMutability": "payable",
            "type": "function"
        },
        {
            "stateMutability": "payable",
            "type": "receive"
        }
    ],
    "bytecode": "608060405234801561001057600080fd5b50604051610ff0380380610ff083398101604081905261002f9161006f565b61003d426301e1338061009d565b6004556005805460ff19169055600080546001600160a01b0319166001600160a01b03929092169190911790556100c1565b600060208284031215610080578081fd5b81516001600160a01b0381168114610096578182fd5b9392505050565b600082198211156100bc57634e487b7160e01b81526011600452602481fd5b500190565b610f20806100d06000396000f3fe6080604052600436106100a05760003560e01c8063715875d811610064578063715875d8146101bf5780637b70209f146101d45780637e6d0fa0146101f95780638f32d59b1461020e578063a63c496714610223578063b1e2ccd41461024357600080fd5b80632383ff811461011157806349578fcf1461012657806355e5b3ed146101465780636e6addd41461017c5780636f9fb98a1461019c57600080fd5b3661010c576100ad610256565b6100d25760405162461bcd60e51b81526004016100c990610d72565b60405180910390fd5b604080513381523460208201527fe1fffcc4923d04b559f4d29a8bfc6cda04eb5b0d3c460751c2402c5c5cc9109c910160405180910390a1005b600080fd5b61012461011f366004610c3d565b61027a565b005b34801561013257600080fd5b50610124610141366004610c3d565b610319565b34801561015257600080fd5b50610166610161366004610c3d565b6103a7565b6040516101739190610dde565b60405180910390f35b34801561018857600080fd5b50610124610197366004610ccc565b61052c565b3480156101a857600080fd5b506101b1610601565b604051908152602001610173565b3480156101cb57600080fd5b506101b161063f565b3480156101e057600080fd5b506101e961067d565b6040519015158152602001610173565b34801561020557600080fd5b506101e961068d565b34801561021a57600080fd5b506101e9610256565b34801561022f57600080fd5b5061012461023e366004610c59565b6106dd565b610124610251366004610ccc565b6107d5565b60003361026b6000546001600160a01b031690565b6001600160a01b031614905090565b8061028481610806565b6102a05760405162461bcd60e51b81526004016100c990610da7565b6102a861068d565b6103025760405162461bcd60e51b815260206004820152602560248201527f7769746864726177206973206e6f7420616c6c6f77656420617420746865206d6044820152641bdb595b9d60da1b60648201526084016100c9565b6103156001600160a01b03831634610819565b5050565b8061032381610806565b61033f5760405162461bcd60e51b81526004016100c990610da7565b610347610256565b6103635760405162461bcd60e51b81526004016100c990610d72565b6001600160a01b0382166000908152600360205260408120906103868282610aeb565b610394600183016000610aeb565b506103a29050600183610932565b505050565b60408051808201909152606080825260208201526103c482610806565b6103e05760405162461bcd60e51b81526004016100c990610da7565b6001600160a01b03821660009081526003602052604090819020815180830190925280548290829061041190610e6e565b80601f016020809104026020016040519081016040528092919081815260200182805461043d90610e6e565b801561048a5780601f1061045f5761010080835404028352916020019161048a565b820191906000526020600020905b81548152906001019060200180831161046d57829003601f168201915b505050505081526020016001820180546104a390610e6e565b80601f01602080910402602001604051908101604052809291908181526020018280546104cf90610e6e565b801561051c5780601f106104f15761010080835404028352916020019161051c565b820191906000526020600020905b8154815290600101906020018083116104ff57829003601f168201915b5050505050815250509050919050565b610534610256565b6105505760405162461bcd60e51b81526004016100c990610d72565b600781118015610561575061016d81105b6105e45760405162461bcd60e51b815260206004820152604860248201527f657874656e73696f6e20697320736574206f6e6c7920696e206461797320746860448201527f6174206172652067726561746572207468656e203720616e64206c6f776572206064820152677468656e2033363560c01b608482015260a4016100c9565b6105f18162015180610e38565b6105fb9042610e20565b60045550565b60003361060c610256565b8061061b575061061b81610806565b6106375760405162461bcd60e51b81526004016100c990610d2f565b4791505b5090565b60003361064a610256565b80610659575061065981610806565b6106755760405162461bcd60e51b81526004016100c990610d2f565b505060045490565b600061068833610806565b905090565b600033610698610256565b806106a757506106a781610806565b6106c35760405162461bcd60e51b81526004016100c990610d2f565b6004544211156106d557600191505090565b600091505090565b6106e5610256565b6107015760405162461bcd60e51b81526004016100c990610d72565b61070a83610806565b156107665760405162461bcd60e51b815260206004820152602660248201527f62656e65666963696172792061646472657373206e6f7420616c72656164792060448201526565786973742160d01b60648201526084016100c9565b60408051808201825283815260208082018490526001600160a01b0386166000908152600382529290922081518051929391926107a69284920190610b25565b5060208281015180516107bf9260018501920190610b25565b506107cf9150600190508461094e565b50505050565b6107dd610256565b6107f95760405162461bcd60e51b81526004016100c990610d72565b6108033382610819565b50565b6000610813600183610963565b92915050565b804710156108695760405162461bcd60e51b815260206004820152601d60248201527f416464726573733a20696e73756666696369656e742062616c616e636500000060448201526064016100c9565b6000826001600160a01b03168260405160006040518083038185875af1925050503d80600081146108b6576040519150601f19603f3d011682016040523d82523d6000602084013e6108bb565b606091505b50509050806103a25760405162461bcd60e51b815260206004820152603a60248201527f416464726573733a20756e61626c6520746f2073656e642076616c75652c207260448201527f6563697069656e74206d6179206861766520726576657274656400000000000060648201526084016100c9565b6000610947836001600160a01b038416610985565b9392505050565b6000610947836001600160a01b038416610a9c565b6001600160a01b03811660009081526001830160205260408120541515610947565b60008181526001830160205260408120548015610a925760006109a9600183610e57565b85549091506000906109bd90600190610e57565b905060008660000182815481106109e457634e487b7160e01b600052603260045260246000fd5b9060005260206000200154905080876000018481548110610a1557634e487b7160e01b600052603260045260246000fd5b600091825260208083209091019290925582815260018901909152604090208490558654879080610a5657634e487b7160e01b600052603160045260246000fd5b60019003818190600052602060002001600090559055866001016000878152602001908152602001600020600090556001945050505050610813565b6000915050610813565b6000818152600183016020526040812054610ae357508154600181810184556000848152602080822090930184905584548482528286019093526040902091909155610813565b506000610813565b508054610af790610e6e565b6000825580601f10610b07575050565b601f0160209004906000526020600020908101906108039190610ba1565b828054610b3190610e6e565b90600052602060002090601f016020900481019282610b535760008555610b99565b82601f10610b6c57805160ff1916838001178555610b99565b82800160010185558215610b99579182015b82811115610b99578251825591602001919060010190610b7e565b5061063b9291505b5b8082111561063b5760008155600101610ba2565b600082601f830112610bc6578081fd5b813567ffffffffffffffff80821115610be157610be1610ebf565b604051601f8301601f19908116603f01168101908282118183101715610c0957610c09610ebf565b81604052838152866020858801011115610c21578485fd5b8360208701602083013792830160200193909352509392505050565b600060208284031215610c4e578081fd5b813561094781610ed5565b600080600060608486031215610c6d578182fd5b8335610c7881610ed5565b9250602084013567ffffffffffffffff80821115610c94578384fd5b610ca087838801610bb6565b93506040860135915080821115610cb5578283fd5b50610cc286828701610bb6565b9150509250925092565b600060208284031215610cdd578081fd5b5035919050565b60008151808452815b81811015610d0957602081850181015186830182015201610ced565b81811115610d1a5782602083870101525b50601f01601f19169290920160200192915050565b60208082526023908201527f61646472657373206973206e6f74206f776e6572206f722062656e656669636960408201526261727960e81b606082015260800190565b6020808252818101527f4f776e61626c653a2063616c6c6572206973206e6f7420746865206f776e6572604082015260600190565b6020808252601e908201527f62656e65666963696172792061646472657373206e6f7420666f756e64210000604082015260600190565b602081526000825160406020840152610dfa6060840182610ce4565b90506020840151601f19848303016040850152610e178282610ce4565b95945050505050565b60008219821115610e3357610e33610ea9565b500190565b6000816000190483118215151615610e5257610e52610ea9565b500290565b600082821015610e6957610e69610ea9565b500390565b600181811c90821680610e8257607f821691505b60208210811415610ea357634e487b7160e01b600052602260045260246000fd5b50919050565b634e487b7160e01b600052601160045260246000fd5b634e487b7160e01b600052604160045260246000fd5b6001600160a01b038116811461080357600080fdfea26469706673582212201498ad20dfc6705c67b30cdc7a242570852ee79926f13c58393ac71e9a7af29464736f6c63430008040033",
    "sourcePath": "/home/yaniv/Desktop/etherum/my-eth-will/contracts/BeneficiariesVault.sol",
    "compiler": {
        "name": "solc",
        "version": "0.8.4+commit.c7e474f2"
    },
    "functionHashes": {
        "be_Withdraw(address)": "2383ff81",
        "getBeneficiariesStruct(address)": "55e5b3ed",
        "getContractBalance()": "6f9fb98a",
        "getDeadlineTimestamp()": "715875d8",
        "isBeneficiary()": "7b70209f",
        "isOwner()": "8f32d59b",
        "isWithdrawAllowed()": "7e6d0fa0",
        "ow_AddBeneficiary(address,string,string)": "a63c4967",
        "ow_RemoveBeneficiary(address)": "49578fcf",
        "ow_SetDeadlineFromToday(uint256)": "6e6addd4",
        "ow_Withdraw(uint256)": "b1e2ccd4"
    },
    "gasEstimates": {
        "creation": {
            "codeDepositCost": "774400",
            "executionCost": "infinite",
            "totalCost": "infinite"
        },
        "external": {
            "be_Withdraw(address)": "infinite",
            "getBeneficiariesStruct(address)": "infinite",
            "getContractBalance()": "2312",
            "getDeadlineTimestamp()": "2938",
            "isBeneficiary()": "1235",
            "isOwner()": "1143",
            "isWithdrawAllowed()": "3016",
            "ow_AddBeneficiary(address,string,string)": "infinite",
            "ow_RemoveBeneficiary(address)": "infinite",
            "ow_SetDeadlineFromToday(uint256)": "21416",
            "ow_Withdraw(uint256)": "infinite"
        },
        "internal": {
            "isContains(address)": "984",
            "ow_GetBeneficiariesAtIndex(uint256)": "infinite",
            "ow_GetBeneficiariesLength()": "infinite",
            "owner()": "infinite"
        }
    }
}