{
  "contractName": "BeneficiariesVault",
  "abi": [
    {
      "inputs": [
        {
          "internalType": "address",
          "name": "_vaultOwner",
          "type": "address"
        }
      ],
      "stateMutability": "nonpayable",
      "type": "constructor"
    },
    {
      "anonymous": false,
      "inputs": [
        {
          "indexed": false,
          "internalType": "address",
          "name": "sender",
          "type": "address"
        },
        {
          "indexed": false,
          "internalType": "uint256",
          "name": "value",
          "type": "uint256"
        }
      ],
      "name": "Deposit",
      "type": "event"
    },
    {
      "stateMutability": "payable",
      "type": "receive"
    },
    {
      "inputs": [],
      "name": "isOwner",
      "outputs": [
        {
          "internalType": "bool",
          "name": "",
          "type": "bool"
        }
      ],
      "stateMutability": "view",
      "type": "function"
    },
    {
      "inputs": [],
      "name": "isBeneficiary",
      "outputs": [
        {
          "internalType": "bool",
          "name": "",
          "type": "bool"
        }
      ],
      "stateMutability": "view",
      "type": "function"
    },
    {
      "inputs": [],
      "name": "getContractBalance",
      "outputs": [
        {
          "internalType": "uint256",
          "name": "",
          "type": "uint256"
        }
      ],
      "stateMutability": "view",
      "type": "function"
    },
    {
      "inputs": [
        {
          "internalType": "address",
          "name": "_beneficiaryAddress",
          "type": "address"
        }
      ],
      "name": "getBeneficiariesStruct",
      "outputs": [
        {
          "components": [
            {
              "internalType": "string",
              "name": "email",
              "type": "string"
            },
            {
              "internalType": "string",
              "name": "name",
              "type": "string"
            },
            {
              "internalType": "bool",
              "name": "verifiedAddress",
              "type": "bool"
            }
          ],
          "internalType": "struct BeneficiariesVault.BeneficiariesStruct",
          "name": "",
          "type": "tuple"
        }
      ],
      "stateMutability": "view",
      "type": "function"
    },
    {
      "inputs": [
        {
          "internalType": "address",
          "name": "_newBeneficiaryAddress",
          "type": "address"
        },
        {
          "internalType": "string",
          "name": "_newBeneficiaryEmail",
          "type": "string"
        },
        {
          "internalType": "string",
          "name": "_newBeneficiaryName",
          "type": "string"
        }
      ],
      "name": "ow_AddBeneficiary",
      "outputs": [],
      "stateMutability": "nonpayable",
      "type": "function"
    },
    {
      "inputs": [
        {
          "internalType": "address",
          "name": "_beneficiaryAddress",
          "type": "address"
        }
      ],
      "name": "ow_RemoveBeneficiary",
      "outputs": [],
      "stateMutability": "nonpayable",
      "type": "function"
    },
    {
      "inputs": [
        {
          "internalType": "uint256",
          "name": "_amount",
          "type": "uint256"
        }
      ],
      "name": "ow_Withdraw",
      "outputs": [],
      "stateMutability": "payable",
      "type": "function"
    },
    {
      "inputs": [],
      "name": "ow_GetBeneficiariesLength",
      "outputs": [
        {
          "internalType": "uint256",
          "name": "",
          "type": "uint256"
        }
      ],
      "stateMutability": "view",
      "type": "function"
    },
    {
      "inputs": [
        {
          "internalType": "uint256",
          "name": "index",
          "type": "uint256"
        }
      ],
      "name": "ow_GetBeneficiariesAtIndex",
      "outputs": [
        {
          "internalType": "address",
          "name": "",
          "type": "address"
        }
      ],
      "stateMutability": "view",
      "type": "function"
    },
    {
      "inputs": [
        {
          "internalType": "address payable",
          "name": "_beneficiaryAddress",
          "type": "address"
        }
      ],
      "name": "be_Withdraw",
      "outputs": [],
      "stateMutability": "payable",
      "type": "function"
    },
    {
      "inputs": [],
      "name": "be_VerifyAddress",
      "outputs": [],
      "stateMutability": "payable",
      "type": "function"
    },
    {
      "inputs": [
        {
          "internalType": "uint256",
          "name": "_numberOfDays",
          "type": "uint256"
        }
      ],
      "name": "ow_SetDeadlineFromToday",
      "outputs": [],
      "stateMutability": "nonpayable",
      "type": "function"
    },
    {
      "inputs": [],
      "name": "getDeadlineTimestamp",
      "outputs": [
        {
          "internalType": "uint256",
          "name": "",
          "type": "uint256"
        }
      ],
      "stateMutability": "view",
      "type": "function"
    },
    {
      "inputs": [],
      "name": "isWithdrawAllowed",
      "outputs": [
        {
          "internalType": "bool",
          "name": "",
          "type": "bool"
        }
      ],
      "stateMutability": "view",
      "type": "function"
    }
  ],
  "bytecode": "0x60806040523480156200001157600080fd5b5060405162002091380380620020918339818101604052810190620000379190620000c8565b6301e1338042620000499190620000f4565b6004819055506000600560006101000a81548160ff021916908315150217905550806000806101000a81548173ffffffffffffffffffffffffffffffffffffffff021916908373ffffffffffffffffffffffffffffffffffffffff16021790555050620001d8565b600081519050620000c281620001be565b92915050565b600060208284031215620000db57600080fd5b6000620000eb84828501620000b1565b91505092915050565b6000620001018262000185565b91506200010e8362000185565b9250827fffffffffffffffffffffffffffffffffffffffffffffffffffffffffffffffff038211156200014657620001456200018f565b5b828201905092915050565b60006200015e8262000165565b9050919050565b600073ffffffffffffffffffffffffffffffffffffffff82169050919050565b6000819050919050565b7f4e487b7100000000000000000000000000000000000000000000000000000000600052601160045260246000fd5b620001c98162000151565b8114620001d557600080fd5b50565b611ea980620001e86000396000f3fe6080604052600436106100e15760003560e01c806379cd9a311161007f5780638f32d59b116100595780638f32d59b1461032c578063a63c496714610357578063b1e2ccd414610380578063e4fdcfe91461039c57610168565b806379cd9a31146102ab5780637b70209f146102d65780637e6d0fa01461030157610168565b806355e5b3ed116100bb57806355e5b3ed146101ef5780636e6addd41461022c5780636f9fb98a14610255578063715875d81461028057610168565b80632383ff811461016d57806335fe629b1461018957806349578fcf146101c657610168565b36610168576100ee6103a6565b61012d576040517f08c379a000000000000000000000000000000000000000000000000000000000815260040161012490611a88565b60405180910390fd5b7fe1fffcc4923d04b559f4d29a8bfc6cda04eb5b0d3c460751c2402c5c5cc9109c333460405161015e929190611984565b60405180910390a1005b600080fd5b61018760048036038101906101829190611413565b6103e3565b005b34801561019557600080fd5b506101b060048036038101906101ab91906114bb565b6104a0565b6040516101bd9190611969565b60405180910390f35b3480156101d257600080fd5b506101ed60048036038101906101e891906113ea565b610519565b005b3480156101fb57600080fd5b50610216600480360381019061021191906113ea565b610638565b6040516102239190611b08565b60405180910390f35b34801561023857600080fd5b50610253600480360381019061024e91906114bb565b610818565b005b34801561026157600080fd5b5061026a6108d2565b6040516102779190611b2a565b60405180910390f35b34801561028c57600080fd5b50610295610933565b6040516102a29190611b2a565b60405180910390f35b3480156102b757600080fd5b506102c0610996565b6040516102cd9190611b2a565b60405180910390f35b3480156102e257600080fd5b506102eb6109ee565b6040516102f891906119ad565b60405180910390f35b34801561030d57600080fd5b506103166109fe565b60405161032391906119ad565b60405180910390f35b34801561033857600080fd5b506103416103a6565b60405161034e91906119ad565b60405180910390f35b34801561036357600080fd5b5061037e6004803603810190610379919061143c565b610a74565b005b61039a600480360381019061039591906114bb565b610bd8565b005b6103a4610c4b565b005b60003373ffffffffffffffffffffffffffffffffffffffff166103c7610d88565b73ffffffffffffffffffffffffffffffffffffffff1614905090565b806103ed81610db1565b61042c576040517f08c379a000000000000000000000000000000000000000000000000000000000815260040161042390611ac8565b60405180910390fd5b6104346109fe565b610473576040517f08c379a000000000000000000000000000000000000000000000000000000000815260040161046a90611ae8565b60405180910390fd5b61049c348373ffffffffffffffffffffffffffffffffffffffff16610dce90919063ffffffff16565b5050565b60006104aa6103a6565b6104e9576040517f08c379a00000000000000000000000000000000000000000000000000000000081526004016104e090611a88565b60405180910390fd5b6104f36001610ec2565b82106104fe57600080fd5b610512826001610ed790919063ffffffff16565b9050919050565b8061052381610db1565b610562576040517f08c379a000000000000000000000000000000000000000000000000000000000815260040161055990611ac8565b60405180910390fd5b61056a6103a6565b6105a9576040517f08c379a00000000000000000000000000000000000000000000000000000000081526004016105a090611a88565b60405180910390fd5b600360008373ffffffffffffffffffffffffffffffffffffffff1673ffffffffffffffffffffffffffffffffffffffff168152602001908152602001600020600080820160006105f9919061123d565b600182016000610609919061123d565b6002820160006101000a81549060ff02191690555050610633826001610ef190919063ffffffff16565b505050565b61064061127d565b61064982610db1565b610688576040517f08c379a000000000000000000000000000000000000000000000000000000000815260040161067f90611ac8565b60405180910390fd5b600360008373ffffffffffffffffffffffffffffffffffffffff1673ffffffffffffffffffffffffffffffffffffffff1681526020019081526020016000206040518060600160405290816000820180546106e290611d5e565b80601f016020809104026020016040519081016040528092919081815260200182805461070e90611d5e565b801561075b5780601f106107305761010080835404028352916020019161075b565b820191906000526020600020905b81548152906001019060200180831161073e57829003601f168201915b5050505050815260200160018201805461077490611d5e565b80601f01602080910402602001604051908101604052809291908181526020018280546107a090611d5e565b80156107ed5780601f106107c2576101008083540402835291602001916107ed565b820191906000526020600020905b8154815290600101906020018083116107d057829003601f168201915b505050505081526020016002820160009054906101000a900460ff1615151515815250509050919050565b6108206103a6565b61085f576040517f08c379a000000000000000000000000000000000000000000000000000000000815260040161085690611a88565b60405180910390fd5b600781118015610870575061016d81105b6108af576040517f08c379a00000000000000000000000000000000000000000000000000000000081526004016108a6906119e8565b60405180910390fd5b62015180816108be9190611c34565b426108c99190611bde565b60048190555050565b6000336108dd6103a6565b806108ed57506108ec81610db1565b5b61092c576040517f08c379a000000000000000000000000000000000000000000000000000000000815260040161092390611a08565b60405180910390fd5b4791505090565b60003361093e6103a6565b8061094e575061094d81610db1565b5b61098d576040517f08c379a000000000000000000000000000000000000000000000000000000000815260040161098490611a08565b60405180910390fd5b60045491505090565b60006109a06103a6565b6109df576040517f08c379a00000000000000000000000000000000000000000000000000000000081526004016109d690611a88565b60405180910390fd5b6109e96001610ec2565b905090565b60006109f933610db1565b905090565b600033610a096103a6565b80610a195750610a1881610db1565b5b610a58576040517f08c379a0000000000000000000000000000000000000000000000000000000008152600401610a4f90611a08565b60405180910390fd5b600454421115610a6b5760019150610a70565b600091505b5090565b610a7c6103a6565b610abb576040517f08c379a0000000000000000000000000000000000000000000000000000000008152600401610ab290611a88565b60405180910390fd5b610ac483610db1565b15610b04576040517f08c379a0000000000000000000000000000000000000000000000000000000008152600401610afb90611aa8565b60405180910390fd5b604051806060016040528083815260200182815260200160001515815250600360008573ffffffffffffffffffffffffffffffffffffffff1673ffffffffffffffffffffffffffffffffffffffff1681526020019081526020016000206000820151816000019080519060200190610b7d9291906112a0565b506020820151816001019080519060200190610b9a9291906112a0565b5060408201518160020160006101000a81548160ff021916908315150217905550905050610bd2836001610f2190919063ffffffff16565b50505050565b610be06103a6565b610c1f576040517f08c379a0000000000000000000000000000000000000000000000000000000008152600401610c1690611a88565b60405180910390fd5b610c48813373ffffffffffffffffffffffffffffffffffffffff16610dce90919063ffffffff16565b50565b33610c5581610db1565b610c94576040517f08c379a0000000000000000000000000000000000000000000000000000000008152600401610c8b90611ac8565b60405180910390fd5b60001515600360003373ffffffffffffffffffffffffffffffffffffffff1673ffffffffffffffffffffffffffffffffffffffff16815260200190815260200160002060020160009054906101000a900460ff16151514610d2a576040517f08c379a0000000000000000000000000000000000000000000000000000000008152600401610d2190611a28565b60405180910390fd5b6001600360003373ffffffffffffffffffffffffffffffffffffffff1673ffffffffffffffffffffffffffffffffffffffff16815260200190815260200160002060020160006101000a81548160ff02191690831515021790555050565b60008060009054906101000a900473ffffffffffffffffffffffffffffffffffffffff16905090565b6000610dc7826001610f5190919063ffffffff16565b9050919050565b80471015610e11576040517f08c379a0000000000000000000000000000000000000000000000000000000008152600401610e0890611a68565b60405180910390fd5b60008273ffffffffffffffffffffffffffffffffffffffff1682604051610e3790611954565b60006040518083038185875af1925050503d8060008114610e74576040519150601f19603f3d011682016040523d82523d6000602084013e610e79565b606091505b5050905080610ebd576040517f08c379a0000000000000000000000000000000000000000000000000000000008152600401610eb490611a48565b60405180910390fd5b505050565b6000610ed082600001610f81565b9050919050565b6000610ee68360000183610f92565b60001c905092915050565b6000610f19836000018373ffffffffffffffffffffffffffffffffffffffff1660001b61102c565b905092915050565b6000610f49836000018373ffffffffffffffffffffffffffffffffffffffff1660001b6111aa565b905092915050565b6000610f79836000018373ffffffffffffffffffffffffffffffffffffffff1660001b61121a565b905092915050565b600081600001805490509050919050565b600081836000018054905011610fdd576040517f08c379a0000000000000000000000000000000000000000000000000000000008152600401610fd4906119c8565b60405180910390fd5b826000018281548110611019577f4e487b7100000000000000000000000000000000000000000000000000000000600052603260045260246000fd5b9060005260206000200154905092915050565b6000808360010160008481526020019081526020016000205490506000811461119e57600060018261105e9190611c8e565b90506000600186600001805490506110769190611c8e565b905060008660000182815481106110b6577f4e487b7100000000000000000000000000000000000000000000000000000000600052603260045260246000fd5b9060005260206000200154905080876000018481548110611100577f4e487b7100000000000000000000000000000000000000000000000000000000600052603260045260246000fd5b9060005260206000200181905550838760010160008381526020019081526020016000208190555086600001805480611162577f4e487b7100000000000000000000000000000000000000000000000000000000600052603160045260246000fd5b600190038181906000526020600020016000905590558660010160008781526020019081526020016000206000905560019450505050506111a4565b60009150505b92915050565b60006111b6838361121a565b61120f578260000182908060018154018082558091505060019003906000526020600020016000909190919091505582600001805490508360010160008481526020019081526020016000208190555060019050611214565b600090505b92915050565b600080836001016000848152602001908152602001600020541415905092915050565b50805461124990611d5e565b6000825580601f1061125b575061127a565b601f0160209004906000526020600020908101906112799190611326565b5b50565b604051806060016040528060608152602001606081526020016000151581525090565b8280546112ac90611d5e565b90600052602060002090601f0160209004810192826112ce5760008555611315565b82601f106112e757805160ff1916838001178555611315565b82800160010185558215611315579182015b828111156113145782518255916020019190600101906112f9565b5b5090506113229190611326565b5090565b5b8082111561133f576000816000905550600101611327565b5090565b600061135661135184611b76565b611b45565b90508281526020810184848401111561136e57600080fd5b611379848285611d1c565b509392505050565b60008135905061139081611e2e565b92915050565b6000813590506113a581611e45565b92915050565b600082601f8301126113bc57600080fd5b81356113cc848260208601611343565b91505092915050565b6000813590506113e481611e5c565b92915050565b6000602082840312156113fc57600080fd5b600061140a84828501611381565b91505092915050565b60006020828403121561142557600080fd5b600061143384828501611396565b91505092915050565b60008060006060848603121561145157600080fd5b600061145f86828701611381565b935050602084013567ffffffffffffffff81111561147c57600080fd5b611488868287016113ab565b925050604084013567ffffffffffffffff8111156114a557600080fd5b6114b1868287016113ab565b9150509250925092565b6000602082840312156114cd57600080fd5b60006114db848285016113d5565b91505092915050565b6114ed81611cc2565b82525050565b6114fc81611ce6565b82525050565b61150b81611ce6565b82525050565b600061151c82611ba6565b6115268185611bbc565b9350611536818560208601611d2b565b61153f81611e1d565b840191505092915050565b6000611557602283611bcd565b91507f456e756d657261626c655365743a20696e646578206f7574206f6620626f756e60008301527f64730000000000000000000000000000000000000000000000000000000000006020830152604082019050919050565b60006115bd604883611bcd565b91507f657874656e73696f6e20697320736574206f6e6c7920696e206461797320746860008301527f6174206172652067726561746572207468656e203720616e64206c6f7765722060208301527f7468656e203336350000000000000000000000000000000000000000000000006040830152606082019050919050565b6000611649602383611bcd565b91507f61646472657373206973206e6f74206f776e6572206f722062656e656669636960008301527f61727900000000000000000000000000000000000000000000000000000000006020830152604082019050919050565b60006116af601d83611bcd565b91507f74686973206164647265737320616c72656164792076657269666965640000006000830152602082019050919050565b60006116ef603a83611bcd565b91507f416464726573733a20756e61626c6520746f2073656e642076616c75652c207260008301527f6563697069656e74206d617920686176652072657665727465640000000000006020830152604082019050919050565b6000611755601d83611bcd565b91507f416464726573733a20696e73756666696369656e742062616c616e63650000006000830152602082019050919050565b6000611795602083611bcd565b91507f4f776e61626c653a2063616c6c6572206973206e6f7420746865206f776e65726000830152602082019050919050565b60006117d5600083611bb1565b9150600082019050919050565b60006117ef602683611bcd565b91507f62656e65666963696172792061646472657373206e6f7420616c72656164792060008301527f65786973742100000000000000000000000000000000000000000000000000006020830152604082019050919050565b6000611855601e83611bcd565b91507f62656e65666963696172792061646472657373206e6f7420666f756e642100006000830152602082019050919050565b6000611895602583611bcd565b91507f7769746864726177206973206e6f7420616c6c6f77656420617420746865206d60008301527f6f6d656e740000000000000000000000000000000000000000000000000000006020830152604082019050919050565b6000606083016000830151848203600086015261190b8282611511565b915050602083015184820360208601526119258282611511565b915050604083015161193a60408601826114f3565b508091505092915050565b61194e81611d12565b82525050565b600061195f826117c8565b9150819050919050565b600060208201905061197e60008301846114e4565b92915050565b600060408201905061199960008301856114e4565b6119a66020830184611945565b9392505050565b60006020820190506119c26000830184611502565b92915050565b600060208201905081810360008301526119e18161154a565b9050919050565b60006020820190508181036000830152611a01816115b0565b9050919050565b60006020820190508181036000830152611a218161163c565b9050919050565b60006020820190508181036000830152611a41816116a2565b9050919050565b60006020820190508181036000830152611a61816116e2565b9050919050565b60006020820190508181036000830152611a8181611748565b9050919050565b60006020820190508181036000830152611aa181611788565b9050919050565b60006020820190508181036000830152611ac1816117e2565b9050919050565b60006020820190508181036000830152611ae181611848565b9050919050565b60006020820190508181036000830152611b0181611888565b9050919050565b60006020820190508181036000830152611b2281846118ee565b905092915050565b6000602082019050611b3f6000830184611945565b92915050565b6000604051905081810181811067ffffffffffffffff82111715611b6c57611b6b611dee565b5b8060405250919050565b600067ffffffffffffffff821115611b9157611b90611dee565b5b601f19601f8301169050602081019050919050565b600081519050919050565b600081905092915050565b600082825260208201905092915050565b600082825260208201905092915050565b6000611be982611d12565b9150611bf483611d12565b9250827fffffffffffffffffffffffffffffffffffffffffffffffffffffffffffffffff03821115611c2957611c28611d90565b5b828201905092915050565b6000611c3f82611d12565b9150611c4a83611d12565b9250817fffffffffffffffffffffffffffffffffffffffffffffffffffffffffffffffff0483118215151615611c8357611c82611d90565b5b828202905092915050565b6000611c9982611d12565b9150611ca483611d12565b925082821015611cb757611cb6611d90565b5b828203905092915050565b6000611ccd82611cf2565b9050919050565b6000611cdf82611cf2565b9050919050565b60008115159050919050565b600073ffffffffffffffffffffffffffffffffffffffff82169050919050565b6000819050919050565b82818337600083830152505050565b60005b83811015611d49578082015181840152602081019050611d2e565b83811115611d58576000848401525b50505050565b60006002820490506001821680611d7657607f821691505b60208210811415611d8a57611d89611dbf565b5b50919050565b7f4e487b7100000000000000000000000000000000000000000000000000000000600052601160045260246000fd5b7f4e487b7100000000000000000000000000000000000000000000000000000000600052602260045260246000fd5b7f4e487b7100000000000000000000000000000000000000000000000000000000600052604160045260246000fd5b6000601f19601f8301169050919050565b611e3781611cc2565b8114611e4257600080fd5b50565b611e4e81611cd4565b8114611e5957600080fd5b50565b611e6581611d12565b8114611e7057600080fd5b5056fea2646970667358221220179aee9624f9ee139a3179d564054ea0fc32c3ba534a11a2492500d573fa322564736f6c63430008000033",
  "immutableReferences": {},
  "source": "// SPDX-License-Identifier: MIT\npragma solidity ^0.8.0;\n\n//add ownable\nimport \"@openzeppelin/contracts/utils/structs/EnumerableSet.sol\";\nimport \"@openzeppelin/contracts/utils/Address.sol\";\n\n\ncontract BeneficiariesVault {\n    \n    // public functions that start with prefix ow_ are only for the Owner of the contract\n    // public functions that start with prefix be_ are only for the Beneficiaries\n    // all the other public functions are accesible to the Owner or one of the Beneficiaries but not to any other address (more about access control in the modifiers comments)\n    \n    //START STATE VARIBLES\n    address private _owner;\n    \n    event Deposit(address sender, uint value);\n    \n    using Address for address payable;\n    \n    // Add the library methods\n    using EnumerableSet for EnumerableSet.AddressSet;\n    \n    //using Strings for uint256;\n    \n    // Declare a set state variable\n    EnumerableSet.AddressSet private beneficiariesAddresses;\n    \n    struct BeneficiariesStruct {\n        string email;\n        string name;\n        bool verifiedAddress;\n    }\n    \n    //map address to struct\n    mapping(address => BeneficiariesStruct) private beneficiaries;\n    \n    uint256 deadlineTimestamp;\n    \n    bool withdrawAllowed;\n    \n    //END STATE VARIBLES\n    \n    constructor(address _vaultOwner){\n        //Add a dedline with default of a year from contract creation\n        deadlineTimestamp = block.timestamp + (365 * 1 days);\n        withdrawAllowed = false;\n        _owner = _vaultOwner;\n    }\n    \n    //START UTIL FUNCTIONS\n    \n    function isContains(address  _beneficiaryAddress) private view returns(bool) {\n        return beneficiariesAddresses.contains( _beneficiaryAddress);\n    }\n    \n    function owner() private view returns (address) {\n        return _owner;\n    }\n\n    function isOwner() public view returns(bool){\n        return owner() == msg.sender;\n    }\n\n    function isBeneficiary() public view returns(bool){\n        return isContains(msg.sender);\n    }\n    \n    \n    //END UTIL FUNCTIONS\n    \n    //START MODIFIRES\n    \n    //there are only 2 roles in this contract Owner or Beneficiary\n    //and there are 3 modifiers that provide Access Controll \n    \n     modifier OnlyBeneficiary(address _beneficiaryAddress){\n         require(isContains(_beneficiaryAddress),\"beneficiary address not found!\");\n         _;\n    }\n    \n    modifier OwnerOrBeneficiary(address _address){\n         require(isOwner() || isContains(_address) ,\"address is not owner or beneficiary\");\n         _;       \n    }\n    \n    modifier onlyOwner() {\n        require(isOwner(), \"Ownable: caller is not the owner\");\n        _;\n    }\n    \n    //END MODIFIRES\n    \n    \n    //START CONTRACT PUBLIC API\n    \n    function getContractBalance() public view OwnerOrBeneficiary(msg.sender) returns (uint256) {\n        return address(this).balance;\n    }\n    \n    function getBeneficiariesStruct(address _beneficiaryAddress) public view returns(BeneficiariesStruct memory){\n        \n        require(isContains(_beneficiaryAddress),\"beneficiary address not found!\");\n        \n        return beneficiaries[_beneficiaryAddress];\n    }\n    \n    function ow_AddBeneficiary(address _newBeneficiaryAddress, string memory _newBeneficiaryEmail, string memory _newBeneficiaryName) public onlyOwner{\n        \n        require(!isContains(_newBeneficiaryAddress),\"beneficiary address not already exist!\");\n        //add to beneficiaries mapping\n        beneficiaries[_newBeneficiaryAddress] = BeneficiariesStruct(_newBeneficiaryEmail,_newBeneficiaryName, false);\n        //add to beneficiariesAddresses set\n        beneficiariesAddresses.add(_newBeneficiaryAddress);\n    }\n    \n    function ow_RemoveBeneficiary(address _beneficiaryAddress) public OnlyBeneficiary(_beneficiaryAddress) onlyOwner{\n\n        //remove from beneficiaries mapping\n        delete beneficiaries[_beneficiaryAddress];\n        //remove from beneficiariesAddresses set\n        beneficiariesAddresses.remove(_beneficiaryAddress);\n    }\n\n    function ow_Withdraw(uint _amount) payable public onlyOwner{\n        payable(msg.sender).sendValue(_amount);\n    }\n\n    function ow_GetBeneficiariesLength() public view onlyOwner returns(uint) {\n        return beneficiariesAddresses.length();\n    }\n\n    function ow_GetBeneficiariesAtIndex(uint index) public view onlyOwner returns(address) {\n        require(index < beneficiariesAddresses.length());\n        return beneficiariesAddresses.at(index);\n    }\n    \n    function be_Withdraw(address payable _beneficiaryAddress) public payable OnlyBeneficiary(_beneficiaryAddress){\n        //check that withdraw is allowed\n        require(isWithdrawAllowed(), \"withdraw is not allowed at the moment\");\n        //check that the msg.sender\n        \n        _beneficiaryAddress.sendValue(msg.value);//temporary just for check\n\n    }\n\n    function be_VerifyAddress() public payable OnlyBeneficiary(msg.sender){\n        require(beneficiaries[msg.sender].verifiedAddress == false, 'this address already verified');\n        beneficiaries[msg.sender].verifiedAddress = true;\n    }\n    \n    function ow_SetDeadlineFromToday(uint256 _numberOfDays) public onlyOwner {\n        require(_numberOfDays > 7 && _numberOfDays < 365 , \"extension is set only in days that are greater then 7 and lower then 365\");\n        deadlineTimestamp = block.timestamp + (_numberOfDays * 1 days);\n    }\n    \n    function getDeadlineTimestamp() public view OwnerOrBeneficiary(msg.sender) returns(uint256){\n        return deadlineTimestamp;\n    }\n    \n    \n    function isWithdrawAllowed() public view OwnerOrBeneficiary(msg.sender) returns(bool){\n    \n        if(block.timestamp > deadlineTimestamp){\n            return true;\n        }\n        \n        return false;\n    }\n    \n    //only admin deposit to contract\n    receive() external payable onlyOwner{\n        emit Deposit(msg.sender, msg.value);\n    }\n    \n    \n    //END CONTRACT PUBLIC API\n\n }",
  "sourcePath": "/home/yaniv/Desktop/etherum/my-eth-will/contracts/BeneficiariesVault.sol",
  "compiler": {
    "name": "solc",
    "version": "0.8.0+commit.c7dfd78e.Emscripten.clang"
  },
  "schemaVersion": "3.4.1",
  "updatedAt": "2021-06-07T20:45:47.106Z",
  "devdoc": {
    "kind": "dev",
    "methods": {},
    "version": 1
  },
  "userdoc": {
    "kind": "user",
    "methods": {},
    "version": 1
  }
}