{
  "contractName": "BeneficiariesVault",
  "abi": [
    {
      "inputs": [
        {
          "internalType": "address",
          "name": "_vaultOwner",
          "type": "address"
        }
      ],
      "stateMutability": "nonpayable",
      "type": "constructor"
    },
    {
      "anonymous": false,
      "inputs": [
        {
          "indexed": false,
          "internalType": "address",
          "name": "sender",
          "type": "address"
        },
        {
          "indexed": false,
          "internalType": "uint256",
          "name": "value",
          "type": "uint256"
        }
      ],
      "name": "Deposit",
      "type": "event"
    },
    {
      "stateMutability": "payable",
      "type": "receive"
    },
    {
      "inputs": [],
      "name": "isOwner",
      "outputs": [
        {
          "internalType": "bool",
          "name": "",
          "type": "bool"
        }
      ],
      "stateMutability": "view",
      "type": "function"
    },
    {
      "inputs": [],
      "name": "isBeneficiary",
      "outputs": [
        {
          "internalType": "bool",
          "name": "",
          "type": "bool"
        }
      ],
      "stateMutability": "view",
      "type": "function"
    },
    {
      "inputs": [],
      "name": "getContractBalance",
      "outputs": [
        {
          "internalType": "uint256",
          "name": "",
          "type": "uint256"
        }
      ],
      "stateMutability": "view",
      "type": "function"
    },
    {
      "inputs": [
        {
          "internalType": "address",
          "name": "_beneficiaryAddress",
          "type": "address"
        }
      ],
      "name": "getBeneficiariesStruct",
      "outputs": [
        {
          "components": [
            {
              "internalType": "string",
              "name": "email",
              "type": "string"
            },
            {
              "internalType": "string",
              "name": "name",
              "type": "string"
            }
          ],
          "internalType": "struct BeneficiariesVault.BeneficiariesStruct",
          "name": "",
          "type": "tuple"
        }
      ],
      "stateMutability": "view",
      "type": "function"
    },
    {
      "inputs": [
        {
          "internalType": "address",
          "name": "_newBeneficiaryAddress",
          "type": "address"
        },
        {
          "internalType": "string",
          "name": "_newBeneficiaryEmail",
          "type": "string"
        },
        {
          "internalType": "string",
          "name": "_newBeneficiaryName",
          "type": "string"
        }
      ],
      "name": "ow_AddBeneficiary",
      "outputs": [],
      "stateMutability": "nonpayable",
      "type": "function"
    },
    {
      "inputs": [
        {
          "internalType": "address",
          "name": "_beneficiaryAddress",
          "type": "address"
        }
      ],
      "name": "ow_RemoveBeneficiary",
      "outputs": [],
      "stateMutability": "nonpayable",
      "type": "function"
    },
    {
      "inputs": [
        {
          "internalType": "uint256",
          "name": "_amount",
          "type": "uint256"
        }
      ],
      "name": "ow_Withdraw",
      "outputs": [],
      "stateMutability": "payable",
      "type": "function"
    },
    {
      "inputs": [],
      "name": "ow_GetBeneficiariesLength",
      "outputs": [
        {
          "internalType": "uint256",
          "name": "",
          "type": "uint256"
        }
      ],
      "stateMutability": "view",
      "type": "function"
    },
    {
      "inputs": [
        {
          "internalType": "uint256",
          "name": "index",
          "type": "uint256"
        }
      ],
      "name": "ow_GetBeneficiariesAtIndex",
      "outputs": [
        {
          "internalType": "address",
          "name": "",
          "type": "address"
        }
      ],
      "stateMutability": "view",
      "type": "function"
    },
    {
      "inputs": [
        {
          "internalType": "address payable",
          "name": "_beneficiaryAddress",
          "type": "address"
        }
      ],
      "name": "be_Withdraw",
      "outputs": [],
      "stateMutability": "payable",
      "type": "function"
    },
    {
      "inputs": [
        {
          "internalType": "uint256",
          "name": "_numberOfDays",
          "type": "uint256"
        }
      ],
      "name": "ow_SetDeadlineFromToday",
      "outputs": [],
      "stateMutability": "nonpayable",
      "type": "function"
    },
    {
      "inputs": [],
      "name": "getDeadlineTimestamp",
      "outputs": [
        {
          "internalType": "uint256",
          "name": "",
          "type": "uint256"
        }
      ],
      "stateMutability": "view",
      "type": "function"
    },
    {
      "inputs": [],
      "name": "isWithdrawAllowed",
      "outputs": [
        {
          "internalType": "bool",
          "name": "",
          "type": "bool"
        }
      ],
      "stateMutability": "view",
      "type": "function"
    }
  ],
  "bytecode": "0x60806040523480156200001157600080fd5b5060405162001e4c38038062001e4c8339818101604052810190620000379190620000c8565b6301e1338042620000499190620000f4565b6004819055506000600560006101000a81548160ff021916908315150217905550806000806101000a81548173ffffffffffffffffffffffffffffffffffffffff021916908373ffffffffffffffffffffffffffffffffffffffff16021790555050620001d8565b600081519050620000c281620001be565b92915050565b600060208284031215620000db57600080fd5b6000620000eb84828501620000b1565b91505092915050565b6000620001018262000185565b91506200010e8362000185565b9250827fffffffffffffffffffffffffffffffffffffffffffffffffffffffffffffffff038211156200014657620001456200018f565b5b828201905092915050565b60006200015e8262000165565b9050919050565b600073ffffffffffffffffffffffffffffffffffffffff82169050919050565b6000819050919050565b7f4e487b7100000000000000000000000000000000000000000000000000000000600052601160045260246000fd5b620001c98162000151565b8114620001d557600080fd5b50565b611c6480620001e86000396000f3fe6080604052600436106100c65760003560e01c8063715875d81161007f5780637e6d0fa0116100595780637e6d0fa0146102e65780638f32d59b14610311578063a63c49671461033c578063b1e2ccd4146103655761014d565b8063715875d81461026557806379cd9a31146102905780637b70209f146102bb5761014d565b80632383ff811461015257806335fe629b1461016e57806349578fcf146101ab57806355e5b3ed146101d45780636e6addd4146102115780636f9fb98a1461023a5761014d565b3661014d576100d3610381565b610112576040517f08c379a000000000000000000000000000000000000000000000000000000000815260040161010990611843565b60405180910390fd5b7fe1fffcc4923d04b559f4d29a8bfc6cda04eb5b0d3c460751c2402c5c5cc9109c333460405161014392919061175f565b60405180910390a1005b600080fd5b61016c60048036038101906101679190611250565b6103be565b005b34801561017a57600080fd5b50610195600480360381019061019091906112f8565b61047b565b6040516101a29190611744565b60405180910390f35b3480156101b757600080fd5b506101d260048036038101906101cd9190611227565b6104f4565b005b3480156101e057600080fd5b506101fb60048036038101906101f69190611227565b6105ff565b60405161020891906118c3565b60405180910390f35b34801561021d57600080fd5b50610238600480360381019061023391906112f8565b6107c4565b005b34801561024657600080fd5b5061024f61087e565b60405161025c91906118e5565b60405180910390f35b34801561027157600080fd5b5061027a6108df565b60405161028791906118e5565b60405180910390f35b34801561029c57600080fd5b506102a5610942565b6040516102b291906118e5565b60405180910390f35b3480156102c757600080fd5b506102d061099a565b6040516102dd9190611788565b60405180910390f35b3480156102f257600080fd5b506102fb6109aa565b6040516103089190611788565b60405180910390f35b34801561031d57600080fd5b50610326610381565b6040516103339190611788565b60405180910390f35b34801561034857600080fd5b50610363600480360381019061035e9190611279565b610a20565b005b61037f600480360381019061037a91906112f8565b610b5b565b005b60003373ffffffffffffffffffffffffffffffffffffffff166103a2610bce565b73ffffffffffffffffffffffffffffffffffffffff1614905090565b806103c881610bf7565b610407576040517f08c379a00000000000000000000000000000000000000000000000000000000081526004016103fe90611883565b60405180910390fd5b61040f6109aa565b61044e576040517f08c379a0000000000000000000000000000000000000000000000000000000008152600401610445906118a3565b60405180910390fd5b610477348373ffffffffffffffffffffffffffffffffffffffff16610c1490919063ffffffff16565b5050565b6000610485610381565b6104c4576040517f08c379a00000000000000000000000000000000000000000000000000000000081526004016104bb90611843565b60405180910390fd5b6104ce6001610d08565b82106104d957600080fd5b6104ed826001610d1d90919063ffffffff16565b9050919050565b806104fe81610bf7565b61053d576040517f08c379a000000000000000000000000000000000000000000000000000000000815260040161053490611883565b60405180910390fd5b610545610381565b610584576040517f08c379a000000000000000000000000000000000000000000000000000000000815260040161057b90611843565b60405180910390fd5b600360008373ffffffffffffffffffffffffffffffffffffffff1673ffffffffffffffffffffffffffffffffffffffff168152602001908152602001600020600080820160006105d49190611083565b6001820160006105e49190611083565b50506105fa826001610d3790919063ffffffff16565b505050565b6106076110c3565b61061082610bf7565b61064f576040517f08c379a000000000000000000000000000000000000000000000000000000000815260040161064690611883565b60405180910390fd5b600360008373ffffffffffffffffffffffffffffffffffffffff1673ffffffffffffffffffffffffffffffffffffffff1681526020019081526020016000206040518060400160405290816000820180546106a990611b19565b80601f01602080910402602001604051908101604052809291908181526020018280546106d590611b19565b80156107225780601f106106f757610100808354040283529160200191610722565b820191906000526020600020905b81548152906001019060200180831161070557829003601f168201915b5050505050815260200160018201805461073b90611b19565b80601f016020809104026020016040519081016040528092919081815260200182805461076790611b19565b80156107b45780601f10610789576101008083540402835291602001916107b4565b820191906000526020600020905b81548152906001019060200180831161079757829003601f168201915b5050505050815250509050919050565b6107cc610381565b61080b576040517f08c379a000000000000000000000000000000000000000000000000000000000815260040161080290611843565b60405180910390fd5b60078111801561081c575061016d81105b61085b576040517f08c379a0000000000000000000000000000000000000000000000000000000008152600401610852906117c3565b60405180910390fd5b620151808161086a91906119ef565b426108759190611999565b60048190555050565b600033610889610381565b80610899575061089881610bf7565b5b6108d8576040517f08c379a00000000000000000000000000000000000000000000000000000000081526004016108cf906117e3565b60405180910390fd5b4791505090565b6000336108ea610381565b806108fa57506108f981610bf7565b5b610939576040517f08c379a0000000000000000000000000000000000000000000000000000000008152600401610930906117e3565b60405180910390fd5b60045491505090565b600061094c610381565b61098b576040517f08c379a000000000000000000000000000000000000000000000000000000000815260040161098290611843565b60405180910390fd5b6109956001610d08565b905090565b60006109a533610bf7565b905090565b6000336109b5610381565b806109c557506109c481610bf7565b5b610a04576040517f08c379a00000000000000000000000000000000000000000000000000000000081526004016109fb906117e3565b60405180910390fd5b600454421115610a175760019150610a1c565b600091505b5090565b610a28610381565b610a67576040517f08c379a0000000000000000000000000000000000000000000000000000000008152600401610a5e90611843565b60405180910390fd5b610a7083610bf7565b15610ab0576040517f08c379a0000000000000000000000000000000000000000000000000000000008152600401610aa790611863565b60405180910390fd5b604051806040016040528083815260200182815250600360008573ffffffffffffffffffffffffffffffffffffffff1673ffffffffffffffffffffffffffffffffffffffff1681526020019081526020016000206000820151816000019080519060200190610b209291906110dd565b506020820151816001019080519060200190610b3d9291906110dd565b50905050610b55836001610d6790919063ffffffff16565b50505050565b610b63610381565b610ba2576040517f08c379a0000000000000000000000000000000000000000000000000000000008152600401610b9990611843565b60405180910390fd5b610bcb813373ffffffffffffffffffffffffffffffffffffffff16610c1490919063ffffffff16565b50565b60008060009054906101000a900473ffffffffffffffffffffffffffffffffffffffff16905090565b6000610c0d826001610d9790919063ffffffff16565b9050919050565b80471015610c57576040517f08c379a0000000000000000000000000000000000000000000000000000000008152600401610c4e90611823565b60405180910390fd5b60008273ffffffffffffffffffffffffffffffffffffffff1682604051610c7d9061172f565b60006040518083038185875af1925050503d8060008114610cba576040519150601f19603f3d011682016040523d82523d6000602084013e610cbf565b606091505b5050905080610d03576040517f08c379a0000000000000000000000000000000000000000000000000000000008152600401610cfa90611803565b60405180910390fd5b505050565b6000610d1682600001610dc7565b9050919050565b6000610d2c8360000183610dd8565b60001c905092915050565b6000610d5f836000018373ffffffffffffffffffffffffffffffffffffffff1660001b610e72565b905092915050565b6000610d8f836000018373ffffffffffffffffffffffffffffffffffffffff1660001b610ff0565b905092915050565b6000610dbf836000018373ffffffffffffffffffffffffffffffffffffffff1660001b611060565b905092915050565b600081600001805490509050919050565b600081836000018054905011610e23576040517f08c379a0000000000000000000000000000000000000000000000000000000008152600401610e1a906117a3565b60405180910390fd5b826000018281548110610e5f577f4e487b7100000000000000000000000000000000000000000000000000000000600052603260045260246000fd5b9060005260206000200154905092915050565b60008083600101600084815260200190815260200160002054905060008114610fe4576000600182610ea49190611a49565b9050600060018660000180549050610ebc9190611a49565b90506000866000018281548110610efc577f4e487b7100000000000000000000000000000000000000000000000000000000600052603260045260246000fd5b9060005260206000200154905080876000018481548110610f46577f4e487b7100000000000000000000000000000000000000000000000000000000600052603260045260246000fd5b9060005260206000200181905550838760010160008381526020019081526020016000208190555086600001805480610fa8577f4e487b7100000000000000000000000000000000000000000000000000000000600052603160045260246000fd5b60019003818190600052602060002001600090559055866001016000878152602001908152602001600020600090556001945050505050610fea565b60009150505b92915050565b6000610ffc8383611060565b61105557826000018290806001815401808255809150506001900390600052602060002001600090919091909150558260000180549050836001016000848152602001908152602001600020819055506001905061105a565b600090505b92915050565b600080836001016000848152602001908152602001600020541415905092915050565b50805461108f90611b19565b6000825580601f106110a157506110c0565b601f0160209004906000526020600020908101906110bf9190611163565b5b50565b604051806040016040528060608152602001606081525090565b8280546110e990611b19565b90600052602060002090601f01602090048101928261110b5760008555611152565b82601f1061112457805160ff1916838001178555611152565b82800160010185558215611152579182015b82811115611151578251825591602001919060010190611136565b5b50905061115f9190611163565b5090565b5b8082111561117c576000816000905550600101611164565b5090565b600061119361118e84611931565b611900565b9050828152602081018484840111156111ab57600080fd5b6111b6848285611ad7565b509392505050565b6000813590506111cd81611be9565b92915050565b6000813590506111e281611c00565b92915050565b600082601f8301126111f957600080fd5b8135611209848260208601611180565b91505092915050565b60008135905061122181611c17565b92915050565b60006020828403121561123957600080fd5b6000611247848285016111be565b91505092915050565b60006020828403121561126257600080fd5b6000611270848285016111d3565b91505092915050565b60008060006060848603121561128e57600080fd5b600061129c868287016111be565b935050602084013567ffffffffffffffff8111156112b957600080fd5b6112c5868287016111e8565b925050604084013567ffffffffffffffff8111156112e257600080fd5b6112ee868287016111e8565b9150509250925092565b60006020828403121561130a57600080fd5b600061131884828501611212565b91505092915050565b61132a81611a7d565b82525050565b61133981611aa1565b82525050565b600061134a82611961565b6113548185611977565b9350611364818560208601611ae6565b61136d81611bd8565b840191505092915050565b6000611385602283611988565b91507f456e756d657261626c655365743a20696e646578206f7574206f6620626f756e60008301527f64730000000000000000000000000000000000000000000000000000000000006020830152604082019050919050565b60006113eb604883611988565b91507f657874656e73696f6e20697320736574206f6e6c7920696e206461797320746860008301527f6174206172652067726561746572207468656e203720616e64206c6f7765722060208301527f7468656e203336350000000000000000000000000000000000000000000000006040830152606082019050919050565b6000611477602383611988565b91507f61646472657373206973206e6f74206f776e6572206f722062656e656669636960008301527f61727900000000000000000000000000000000000000000000000000000000006020830152604082019050919050565b60006114dd603a83611988565b91507f416464726573733a20756e61626c6520746f2073656e642076616c75652c207260008301527f6563697069656e74206d617920686176652072657665727465640000000000006020830152604082019050919050565b6000611543601d83611988565b91507f416464726573733a20696e73756666696369656e742062616c616e63650000006000830152602082019050919050565b6000611583602083611988565b91507f4f776e61626c653a2063616c6c6572206973206e6f7420746865206f776e65726000830152602082019050919050565b60006115c360008361196c565b9150600082019050919050565b60006115dd602683611988565b91507f62656e65666963696172792061646472657373206e6f7420616c72656164792060008301527f65786973742100000000000000000000000000000000000000000000000000006020830152604082019050919050565b6000611643601e83611988565b91507f62656e65666963696172792061646472657373206e6f7420666f756e642100006000830152602082019050919050565b6000611683602583611988565b91507f7769746864726177206973206e6f7420616c6c6f77656420617420746865206d60008301527f6f6d656e740000000000000000000000000000000000000000000000000000006020830152604082019050919050565b600060408301600083015184820360008601526116f9828261133f565b91505060208301518482036020860152611713828261133f565b9150508091505092915050565b61172981611acd565b82525050565b600061173a826115b6565b9150819050919050565b60006020820190506117596000830184611321565b92915050565b60006040820190506117746000830185611321565b6117816020830184611720565b9392505050565b600060208201905061179d6000830184611330565b92915050565b600060208201905081810360008301526117bc81611378565b9050919050565b600060208201905081810360008301526117dc816113de565b9050919050565b600060208201905081810360008301526117fc8161146a565b9050919050565b6000602082019050818103600083015261181c816114d0565b9050919050565b6000602082019050818103600083015261183c81611536565b9050919050565b6000602082019050818103600083015261185c81611576565b9050919050565b6000602082019050818103600083015261187c816115d0565b9050919050565b6000602082019050818103600083015261189c81611636565b9050919050565b600060208201905081810360008301526118bc81611676565b9050919050565b600060208201905081810360008301526118dd81846116dc565b905092915050565b60006020820190506118fa6000830184611720565b92915050565b6000604051905081810181811067ffffffffffffffff8211171561192757611926611ba9565b5b8060405250919050565b600067ffffffffffffffff82111561194c5761194b611ba9565b5b601f19601f8301169050602081019050919050565b600081519050919050565b600081905092915050565b600082825260208201905092915050565b600082825260208201905092915050565b60006119a482611acd565b91506119af83611acd565b9250827fffffffffffffffffffffffffffffffffffffffffffffffffffffffffffffffff038211156119e4576119e3611b4b565b5b828201905092915050565b60006119fa82611acd565b9150611a0583611acd565b9250817fffffffffffffffffffffffffffffffffffffffffffffffffffffffffffffffff0483118215151615611a3e57611a3d611b4b565b5b828202905092915050565b6000611a5482611acd565b9150611a5f83611acd565b925082821015611a7257611a71611b4b565b5b828203905092915050565b6000611a8882611aad565b9050919050565b6000611a9a82611aad565b9050919050565b60008115159050919050565b600073ffffffffffffffffffffffffffffffffffffffff82169050919050565b6000819050919050565b82818337600083830152505050565b60005b83811015611b04578082015181840152602081019050611ae9565b83811115611b13576000848401525b50505050565b60006002820490506001821680611b3157607f821691505b60208210811415611b4557611b44611b7a565b5b50919050565b7f4e487b7100000000000000000000000000000000000000000000000000000000600052601160045260246000fd5b7f4e487b7100000000000000000000000000000000000000000000000000000000600052602260045260246000fd5b7f4e487b7100000000000000000000000000000000000000000000000000000000600052604160045260246000fd5b6000601f19601f8301169050919050565b611bf281611a7d565b8114611bfd57600080fd5b50565b611c0981611a8f565b8114611c1457600080fd5b50565b611c2081611acd565b8114611c2b57600080fd5b5056fea264697066735822122058fed77ab4927f2d01b098e791b0e2a29b43956d840d06a353fbe231e75a4d9964736f6c63430008000033",
  "immutableReferences": {},
  "source": "// SPDX-License-Identifier: MIT\npragma solidity ^0.8.0;\n\n//add ownable\nimport \"@openzeppelin/contracts/utils/structs/EnumerableSet.sol\";\nimport \"@openzeppelin/contracts/utils/Address.sol\";\n\n\ncontract BeneficiariesVault {\n    \n    // public functions that start with prefix ow_ are only for the Owner of the contract\n    // public functions that start with prefix be_ are only for the Beneficiaries\n    // all the other public functions are accesible to the Owner or one of the Beneficiaries but not to any other address (more about access control in the modifiers comments)\n    \n    //START STATE VARIBLES\n    address private _owner;\n    \n    event Deposit(address sender, uint value);\n    \n    using Address for address payable;\n    \n    // Add the library methods\n    using EnumerableSet for EnumerableSet.AddressSet;\n    \n    //using Strings for uint256;\n    \n    // Declare a set state variable\n    EnumerableSet.AddressSet private beneficiariesAddresses;\n    \n    struct BeneficiariesStruct {\n        string email;\n        string name;\n    }\n    \n    //map address to struct\n    mapping(address => BeneficiariesStruct) private beneficiaries;\n    \n    uint256 deadlineTimestamp;\n    \n    bool withdrawAllowed;\n    \n    //END STATE VARIBLES\n    \n    constructor(address _vaultOwner){\n        //Add a dedline with default of a year from contract creation\n        deadlineTimestamp = block.timestamp + (365 * 1 days);\n        withdrawAllowed = false;\n        _owner = _vaultOwner;\n    }\n    \n    //START UTIL FUNCTIONS\n    \n    function isContains(address  _beneficiaryAddress) private view returns(bool) {\n        return beneficiariesAddresses.contains( _beneficiaryAddress);\n    }\n    \n    function owner() private view returns (address) {\n        return _owner;\n    }\n\n    function isOwner() public view returns(bool){\n        return owner() == msg.sender;\n    }\n\n    function isBeneficiary() public view returns(bool){\n        return isContains(msg.sender);\n    }\n    \n    \n    //END UTIL FUNCTIONS\n    \n    //START MODIFIRES\n    \n    //there are only 2 roles in this contract Owner or Beneficiary\n    //and there are 3 modifiers that provide Access Controll \n    \n     modifier OnlyBeneficiary(address _beneficiaryAddress){\n         require(isContains(_beneficiaryAddress),\"beneficiary address not found!\");\n         _;\n    }\n    \n    modifier OwnerOrBeneficiary(address _address){\n         require(isOwner() || isContains(_address) ,\"address is not owner or beneficiary\");\n         _;       \n    }\n    \n    modifier onlyOwner() {\n        require(isOwner(), \"Ownable: caller is not the owner\");\n        _;\n    }\n    \n    //END MODIFIRES\n    \n    \n    //START CONTRACT PUBLIC API\n    \n    function getContractBalance() public view OwnerOrBeneficiary(msg.sender) returns (uint256) {\n        return address(this).balance;\n    }\n    \n    function getBeneficiariesStruct(address _beneficiaryAddress) public view returns(BeneficiariesStruct memory){\n        \n        require(isContains(_beneficiaryAddress),\"beneficiary address not found!\");\n        \n        return beneficiaries[_beneficiaryAddress];\n    }\n    \n    function ow_AddBeneficiary(address _newBeneficiaryAddress, string memory _newBeneficiaryEmail, string memory _newBeneficiaryName) public onlyOwner{\n        \n        require(!isContains(_newBeneficiaryAddress),\"beneficiary address not already exist!\");\n        //add to beneficiaries mapping\n        beneficiaries[_newBeneficiaryAddress] = BeneficiariesStruct(_newBeneficiaryEmail,_newBeneficiaryName);\n        //add to beneficiariesAddresses set\n        beneficiariesAddresses.add(_newBeneficiaryAddress);\n    }\n    \n    function ow_RemoveBeneficiary(address _beneficiaryAddress) public OnlyBeneficiary(_beneficiaryAddress) onlyOwner{\n\n        //remove from beneficiaries mapping\n        delete beneficiaries[_beneficiaryAddress];\n        //remove from beneficiariesAddresses set\n        beneficiariesAddresses.remove(_beneficiaryAddress);\n    }\n\n    function ow_Withdraw(uint _amount) payable public onlyOwner{\n        payable(msg.sender).sendValue(_amount);\n    }\n\n    function ow_GetBeneficiariesLength() public view onlyOwner returns(uint) {\n        return beneficiariesAddresses.length();\n    }\n\n    function ow_GetBeneficiariesAtIndex(uint index) public view onlyOwner returns(address) {\n        require(index < beneficiariesAddresses.length());\n        return beneficiariesAddresses.at(index);\n    }\n    \n    function be_Withdraw(address payable _beneficiaryAddress) public payable OnlyBeneficiary(_beneficiaryAddress){\n        //check that withdraw is allowed\n        require(isWithdrawAllowed(), \"withdraw is not allowed at the moment\");\n        //check that the msg.sender\n        \n        _beneficiaryAddress.sendValue(msg.value);//temporary just for check\n\n    }\n    \n    function ow_SetDeadlineFromToday(uint256 _numberOfDays) public onlyOwner {\n        require(_numberOfDays > 7 && _numberOfDays < 365 , \"extension is set only in days that are greater then 7 and lower then 365\");\n        deadlineTimestamp = block.timestamp + (_numberOfDays * 1 days);\n    }\n    \n    function getDeadlineTimestamp() public view OwnerOrBeneficiary(msg.sender) returns(uint256){\n        return deadlineTimestamp;\n    }\n    \n    \n    function isWithdrawAllowed() public view OwnerOrBeneficiary(msg.sender) returns(bool){\n    \n        if(block.timestamp > deadlineTimestamp){\n            return true;\n        }\n        \n        return false;\n    }\n    \n    //only admin deposit to contract\n    receive() external payable onlyOwner{\n        emit Deposit(msg.sender, msg.value);\n    }\n    \n    \n    //END CONTRACT PUBLIC API\n\n }",
  "sourcePath": "/home/yaniv/Desktop/etherum/my-eth-will/contracts/BeneficiariesVault.sol",
  "compiler": {
    "name": "solc",
    "version": "0.8.0+commit.c7dfd78e.Emscripten.clang"
  },
  "schemaVersion": "3.4.1",
  "updatedAt": "2021-06-07T00:39:48.035Z",
  "devdoc": {
    "kind": "dev",
    "methods": {},
    "version": 1
  },
  "userdoc": {
    "kind": "user",
    "methods": {},
    "version": 1
  }
}