{
  "contractName": "BeneficiariesVault",
  "abi": [
    {
      "inputs": [
        {
          "internalType": "address",
          "name": "_vaultOwner",
          "type": "address"
        }
      ],
      "stateMutability": "nonpayable",
      "type": "constructor"
    },
    {
      "anonymous": false,
      "inputs": [
        {
          "indexed": false,
          "internalType": "address",
          "name": "sender",
          "type": "address"
        },
        {
          "indexed": false,
          "internalType": "uint256",
          "name": "value",
          "type": "uint256"
        }
      ],
      "name": "Deposit",
      "type": "event"
    },
    {
      "stateMutability": "payable",
      "type": "receive"
    },
    {
      "inputs": [],
      "name": "isOwner",
      "outputs": [
        {
          "internalType": "bool",
          "name": "",
          "type": "bool"
        }
      ],
      "stateMutability": "view",
      "type": "function"
    },
    {
      "inputs": [],
      "name": "isBeneficiary",
      "outputs": [
        {
          "internalType": "bool",
          "name": "",
          "type": "bool"
        }
      ],
      "stateMutability": "view",
      "type": "function"
    },
    {
      "inputs": [],
      "name": "getContractBalance",
      "outputs": [
        {
          "internalType": "uint256",
          "name": "",
          "type": "uint256"
        }
      ],
      "stateMutability": "view",
      "type": "function"
    },
    {
      "inputs": [
        {
          "internalType": "address",
          "name": "_beneficiaryAddress",
          "type": "address"
        }
      ],
      "name": "getBeneficiaryStruct",
      "outputs": [
        {
          "components": [
            {
              "internalType": "string",
              "name": "email",
              "type": "string"
            },
            {
              "internalType": "string",
              "name": "name",
              "type": "string"
            },
            {
              "internalType": "address",
              "name": "beneficiarAddress",
              "type": "address"
            },
            {
              "internalType": "bool",
              "name": "verifiedAddress",
              "type": "bool"
            },
            {
              "internalType": "uint256",
              "name": "amount",
              "type": "uint256"
            }
          ],
          "internalType": "struct BeneficiariesVault.BeneficiariesStruct",
          "name": "",
          "type": "tuple"
        }
      ],
      "stateMutability": "view",
      "type": "function"
    },
    {
      "inputs": [
        {
          "internalType": "address",
          "name": "_newBeneficiaryAddress",
          "type": "address"
        },
        {
          "internalType": "string",
          "name": "_newBeneficiaryEmail",
          "type": "string"
        },
        {
          "internalType": "string",
          "name": "_newBeneficiaryName",
          "type": "string"
        }
      ],
      "name": "ow_AddBeneficiary",
      "outputs": [],
      "stateMutability": "nonpayable",
      "type": "function"
    },
    {
      "inputs": [
        {
          "internalType": "address",
          "name": "_beneficiaryAddress",
          "type": "address"
        },
        {
          "internalType": "uint256",
          "name": "_amount",
          "type": "uint256"
        }
      ],
      "name": "ow_UpdateBeneficiaryAmount",
      "outputs": [],
      "stateMutability": "nonpayable",
      "type": "function"
    },
    {
      "inputs": [
        {
          "internalType": "address",
          "name": "_beneficiaryAddress",
          "type": "address"
        }
      ],
      "name": "ow_RemoveBeneficiary",
      "outputs": [],
      "stateMutability": "nonpayable",
      "type": "function"
    },
    {
      "inputs": [
        {
          "internalType": "uint256",
          "name": "_amount",
          "type": "uint256"
        }
      ],
      "name": "ow_Withdraw",
      "outputs": [],
      "stateMutability": "payable",
      "type": "function"
    },
    {
      "inputs": [],
      "name": "ow_GetBeneficiariesLength",
      "outputs": [
        {
          "internalType": "uint256",
          "name": "",
          "type": "uint256"
        }
      ],
      "stateMutability": "view",
      "type": "function"
    },
    {
      "inputs": [
        {
          "internalType": "uint256",
          "name": "index",
          "type": "uint256"
        }
      ],
      "name": "ow_GetBeneficiariesAtIndex",
      "outputs": [
        {
          "internalType": "address",
          "name": "",
          "type": "address"
        }
      ],
      "stateMutability": "view",
      "type": "function"
    },
    {
      "inputs": [
        {
          "internalType": "address payable",
          "name": "_beneficiaryAddress",
          "type": "address"
        }
      ],
      "name": "be_Withdraw",
      "outputs": [],
      "stateMutability": "payable",
      "type": "function"
    },
    {
      "inputs": [],
      "name": "be_VerifyAddress",
      "outputs": [],
      "stateMutability": "payable",
      "type": "function"
    },
    {
      "inputs": [
        {
          "internalType": "uint256",
          "name": "_numberOfDays",
          "type": "uint256"
        }
      ],
      "name": "ow_SetDeadlineFromToday",
      "outputs": [],
      "stateMutability": "nonpayable",
      "type": "function"
    },
    {
      "inputs": [],
      "name": "getDeadlineTimestamp",
      "outputs": [
        {
          "internalType": "uint256",
          "name": "",
          "type": "uint256"
        }
      ],
      "stateMutability": "view",
      "type": "function"
    },
    {
      "inputs": [],
      "name": "isWithdrawAllowed",
      "outputs": [
        {
          "internalType": "bool",
          "name": "",
          "type": "bool"
        }
      ],
      "stateMutability": "view",
      "type": "function"
    }
  ],
  "bytecode": "0x60806040523480156200001157600080fd5b50604051620024bb380380620024bb8339818101604052810190620000379190620000c8565b6301e1338042620000499190620000f4565b6004819055506000600560006101000a81548160ff021916908315150217905550806000806101000a81548173ffffffffffffffffffffffffffffffffffffffff021916908373ffffffffffffffffffffffffffffffffffffffff16021790555050620001d8565b600081519050620000c281620001be565b92915050565b600060208284031215620000db57600080fd5b6000620000eb84828501620000b1565b91505092915050565b6000620001018262000185565b91506200010e8362000185565b9250827fffffffffffffffffffffffffffffffffffffffffffffffffffffffffffffffff038211156200014657620001456200018f565b5b828201905092915050565b60006200015e8262000165565b9050919050565b600073ffffffffffffffffffffffffffffffffffffffff82169050919050565b6000819050919050565b7f4e487b7100000000000000000000000000000000000000000000000000000000600052601160045260246000fd5b620001c98162000151565b8114620001d557600080fd5b50565b6122d380620001e86000396000f3fe6080604052600436106100ec5760003560e01c806379cd9a311161008a578063a63c496711610059578063a63c49671461034e578063b1e2ccd414610377578063e4fdcfe914610393578063f6cd8dc11461039d57610173565b806379cd9a31146102a25780637b70209f146102cd5780637e6d0fa0146102f85780638f32d59b1461032357610173565b806349578fcf116100c657806349578fcf146101fa5780636e6addd4146102235780636f9fb98a1461024c578063715875d81461027757610173565b80630d62d37b146101785780632383ff81146101a157806335fe629b146101bd57610173565b36610173576100f96103da565b610138576040517f08c379a000000000000000000000000000000000000000000000000000000000815260040161012f90611eb2565b60405180910390fd5b7fe1fffcc4923d04b559f4d29a8bfc6cda04eb5b0d3c460751c2402c5c5cc9109c3334604051610169929190611d8e565b60405180910390a1005b600080fd5b34801561018457600080fd5b5061019f600480360381019061019a91906117df565b610417565b005b6101bb60048036038101906101b69190611737565b610587565b005b3480156101c957600080fd5b506101e460048036038101906101df919061181b565b610644565b6040516101f19190611d73565b60405180910390f35b34801561020657600080fd5b50610221600480360381019061021c919061170e565b6106bd565b005b34801561022f57600080fd5b5061024a6004803603810190610245919061181b565b61080b565b005b34801561025857600080fd5b506102616108c5565b60405161026e9190611f54565b60405180910390f35b34801561028357600080fd5b5061028c610926565b6040516102999190611f54565b60405180910390f35b3480156102ae57600080fd5b506102b7610989565b6040516102c49190611f54565b60405180910390f35b3480156102d957600080fd5b506102e26109e1565b6040516102ef9190611db7565b60405180910390f35b34801561030457600080fd5b5061030d6109f1565b60405161031a9190611db7565b60405180910390f35b34801561032f57600080fd5b506103386103da565b6040516103459190611db7565b60405180910390f35b34801561035a57600080fd5b5061037560048036038101906103709190611760565b610a67565b005b610391600480360381019061038c919061181b565b610c3f565b005b61039b610cb2565b005b3480156103a957600080fd5b506103c460048036038101906103bf919061170e565b610def565b6040516103d19190611f32565b60405180910390f35b60003373ffffffffffffffffffffffffffffffffffffffff166103fb611088565b73ffffffffffffffffffffffffffffffffffffffff1614905090565b61041f6103da565b61045e576040517f08c379a000000000000000000000000000000000000000000000000000000000815260040161045590611eb2565b60405180910390fd5b610467826110b1565b6104a6576040517f08c379a000000000000000000000000000000000000000000000000000000000815260040161049d90611ef2565b60405180910390fd5b60011515600360008473ffffffffffffffffffffffffffffffffffffffff1673ffffffffffffffffffffffffffffffffffffffff16815260200190815260200160002060020160149054906101000a900460ff1615151461053c576040517f08c379a000000000000000000000000000000000000000000000000000000000815260040161053390611ed2565b60405180910390fd5b80600360008473ffffffffffffffffffffffffffffffffffffffff1673ffffffffffffffffffffffffffffffffffffffff168152602001908152602001600020600301819055505050565b80610591816110b1565b6105d0576040517f08c379a00000000000000000000000000000000000000000000000000000000081526004016105c790611ef2565b60405180910390fd5b6105d86109f1565b610617576040517f08c379a000000000000000000000000000000000000000000000000000000000815260040161060e90611f12565b60405180910390fd5b610640348373ffffffffffffffffffffffffffffffffffffffff166110ce90919063ffffffff16565b5050565b600061064e6103da565b61068d576040517f08c379a000000000000000000000000000000000000000000000000000000000815260040161068490611eb2565b60405180910390fd5b61069760016111c2565b82106106a257600080fd5b6106b68260016111d790919063ffffffff16565b9050919050565b806106c7816110b1565b610706576040517f08c379a00000000000000000000000000000000000000000000000000000000081526004016106fd90611ef2565b60405180910390fd5b61070e6103da565b61074d576040517f08c379a000000000000000000000000000000000000000000000000000000000815260040161074490611eb2565b60405180910390fd5b600360008373ffffffffffffffffffffffffffffffffffffffff1673ffffffffffffffffffffffffffffffffffffffff1681526020019081526020016000206000808201600061079d919061153d565b6001820160006107ad919061153d565b6002820160006101000a81549073ffffffffffffffffffffffffffffffffffffffff02191690556002820160146101000a81549060ff0219169055600382016000905550506108068260016111f190919063ffffffff16565b505050565b6108136103da565b610852576040517f08c379a000000000000000000000000000000000000000000000000000000000815260040161084990611eb2565b60405180910390fd5b600781118015610863575061016d81105b6108a2576040517f08c379a000000000000000000000000000000000000000000000000000000000815260040161089990611df2565b60405180910390fd5b62015180816108b1919061205e565b426108bc9190612008565b60048190555050565b6000336108d06103da565b806108e057506108df816110b1565b5b61091f576040517f08c379a000000000000000000000000000000000000000000000000000000000815260040161091690611e12565b60405180910390fd5b4791505090565b6000336109316103da565b806109415750610940816110b1565b5b610980576040517f08c379a000000000000000000000000000000000000000000000000000000000815260040161097790611e12565b60405180910390fd5b60045491505090565b60006109936103da565b6109d2576040517f08c379a00000000000000000000000000000000000000000000000000000000081526004016109c990611eb2565b60405180910390fd5b6109dc60016111c2565b905090565b60006109ec336110b1565b905090565b6000336109fc6103da565b80610a0c5750610a0b816110b1565b5b610a4b576040517f08c379a0000000000000000000000000000000000000000000000000000000008152600401610a4290611e12565b60405180910390fd5b600454421115610a5e5760019150610a63565b600091505b5090565b610a6f6103da565b610aae576040517f08c379a0000000000000000000000000000000000000000000000000000000008152600401610aa590611eb2565b60405180910390fd5b610ab7836110b1565b15610af7576040517f08c379a0000000000000000000000000000000000000000000000000000000008152600401610aee90611e92565b60405180910390fd5b6040518060a001604052808381526020018281526020018473ffffffffffffffffffffffffffffffffffffffff1681526020016000151581526020016000815250600360008573ffffffffffffffffffffffffffffffffffffffff1673ffffffffffffffffffffffffffffffffffffffff1681526020019081526020016000206000820151816000019080519060200190610b9392919061157d565b506020820151816001019080519060200190610bb092919061157d565b5060408201518160020160006101000a81548173ffffffffffffffffffffffffffffffffffffffff021916908373ffffffffffffffffffffffffffffffffffffffff16021790555060608201518160020160146101000a81548160ff02191690831515021790555060808201518160030155905050610c3983600161122190919063ffffffff16565b50505050565b610c476103da565b610c86576040517f08c379a0000000000000000000000000000000000000000000000000000000008152600401610c7d90611eb2565b60405180910390fd5b610caf813373ffffffffffffffffffffffffffffffffffffffff166110ce90919063ffffffff16565b50565b33610cbc816110b1565b610cfb576040517f08c379a0000000000000000000000000000000000000000000000000000000008152600401610cf290611ef2565b60405180910390fd5b60001515600360003373ffffffffffffffffffffffffffffffffffffffff1673ffffffffffffffffffffffffffffffffffffffff16815260200190815260200160002060020160149054906101000a900460ff16151514610d91576040517f08c379a0000000000000000000000000000000000000000000000000000000008152600401610d8890611e32565b60405180910390fd5b6001600360003373ffffffffffffffffffffffffffffffffffffffff1673ffffffffffffffffffffffffffffffffffffffff16815260200190815260200160002060020160146101000a81548160ff02191690831515021790555050565b610df7611603565b33610e006103da565b80610e105750610e0f816110b1565b5b610e4f576040517f08c379a0000000000000000000000000000000000000000000000000000000008152600401610e4690611e12565b60405180910390fd5b610e58836110b1565b610e97576040517f08c379a0000000000000000000000000000000000000000000000000000000008152600401610e8e90611ef2565b60405180910390fd5b600360008473ffffffffffffffffffffffffffffffffffffffff1673ffffffffffffffffffffffffffffffffffffffff1681526020019081526020016000206040518060a0016040529081600082018054610ef190612188565b80601f0160208091040260200160405190810160405280929190818152602001828054610f1d90612188565b8015610f6a5780601f10610f3f57610100808354040283529160200191610f6a565b820191906000526020600020905b815481529060010190602001808311610f4d57829003601f168201915b50505050508152602001600182018054610f8390612188565b80601f0160208091040260200160405190810160405280929190818152602001828054610faf90612188565b8015610ffc5780601f10610fd157610100808354040283529160200191610ffc565b820191906000526020600020905b815481529060010190602001808311610fdf57829003601f168201915b505050505081526020016002820160009054906101000a900473ffffffffffffffffffffffffffffffffffffffff1673ffffffffffffffffffffffffffffffffffffffff1673ffffffffffffffffffffffffffffffffffffffff1681526020016002820160149054906101000a900460ff16151515158152602001600382015481525050915050919050565b60008060009054906101000a900473ffffffffffffffffffffffffffffffffffffffff16905090565b60006110c782600161125190919063ffffffff16565b9050919050565b80471015611111576040517f08c379a000000000000000000000000000000000000000000000000000000000815260040161110890611e72565b60405180910390fd5b60008273ffffffffffffffffffffffffffffffffffffffff168260405161113790611d5e565b60006040518083038185875af1925050503d8060008114611174576040519150601f19603f3d011682016040523d82523d6000602084013e611179565b606091505b50509050806111bd576040517f08c379a00000000000000000000000000000000000000000000000000000000081526004016111b490611e52565b60405180910390fd5b505050565b60006111d082600001611281565b9050919050565b60006111e68360000183611292565b60001c905092915050565b6000611219836000018373ffffffffffffffffffffffffffffffffffffffff1660001b61132c565b905092915050565b6000611249836000018373ffffffffffffffffffffffffffffffffffffffff1660001b6114aa565b905092915050565b6000611279836000018373ffffffffffffffffffffffffffffffffffffffff1660001b61151a565b905092915050565b600081600001805490509050919050565b6000818360000180549050116112dd576040517f08c379a00000000000000000000000000000000000000000000000000000000081526004016112d490611dd2565b60405180910390fd5b826000018281548110611319577f4e487b7100000000000000000000000000000000000000000000000000000000600052603260045260246000fd5b9060005260206000200154905092915050565b6000808360010160008481526020019081526020016000205490506000811461149e57600060018261135e91906120b8565b905060006001866000018054905061137691906120b8565b905060008660000182815481106113b6577f4e487b7100000000000000000000000000000000000000000000000000000000600052603260045260246000fd5b9060005260206000200154905080876000018481548110611400577f4e487b7100000000000000000000000000000000000000000000000000000000600052603260045260246000fd5b9060005260206000200181905550838760010160008381526020019081526020016000208190555086600001805480611462577f4e487b7100000000000000000000000000000000000000000000000000000000600052603160045260246000fd5b600190038181906000526020600020016000905590558660010160008781526020019081526020016000206000905560019450505050506114a4565b60009150505b92915050565b60006114b6838361151a565b61150f578260000182908060018154018082558091505060019003906000526020600020016000909190919091505582600001805490508360010160008481526020019081526020016000208190555060019050611514565b600090505b92915050565b600080836001016000848152602001908152602001600020541415905092915050565b50805461154990612188565b6000825580601f1061155b575061157a565b601f016020900490600052602060002090810190611579919061164a565b5b50565b82805461158990612188565b90600052602060002090601f0160209004810192826115ab57600085556115f2565b82601f106115c457805160ff19168380011785556115f2565b828001600101855582156115f2579182015b828111156115f15782518255916020019190600101906115d6565b5b5090506115ff919061164a565b5090565b6040518060a001604052806060815260200160608152602001600073ffffffffffffffffffffffffffffffffffffffff168152602001600015158152602001600081525090565b5b8082111561166357600081600090555060010161164b565b5090565b600061167a61167584611fa0565b611f6f565b90508281526020810184848401111561169257600080fd5b61169d848285612146565b509392505050565b6000813590506116b481612258565b92915050565b6000813590506116c98161226f565b92915050565b600082601f8301126116e057600080fd5b81356116f0848260208601611667565b91505092915050565b60008135905061170881612286565b92915050565b60006020828403121561172057600080fd5b600061172e848285016116a5565b91505092915050565b60006020828403121561174957600080fd5b6000611757848285016116ba565b91505092915050565b60008060006060848603121561177557600080fd5b6000611783868287016116a5565b935050602084013567ffffffffffffffff8111156117a057600080fd5b6117ac868287016116cf565b925050604084013567ffffffffffffffff8111156117c957600080fd5b6117d5868287016116cf565b9150509250925092565b600080604083850312156117f257600080fd5b6000611800858286016116a5565b9250506020611811858286016116f9565b9150509250929050565b60006020828403121561182d57600080fd5b600061183b848285016116f9565b91505092915050565b61184d816120ec565b82525050565b61185c816120ec565b82525050565b61186b81612110565b82525050565b61187a81612110565b82525050565b600061188b82611fd0565b6118958185611fe6565b93506118a5818560208601612155565b6118ae81612247565b840191505092915050565b60006118c6602283611ff7565b91507f456e756d657261626c655365743a20696e646578206f7574206f6620626f756e60008301527f64730000000000000000000000000000000000000000000000000000000000006020830152604082019050919050565b600061192c604883611ff7565b91507f657874656e73696f6e20697320736574206f6e6c7920696e206461797320746860008301527f6174206172652067726561746572207468656e203720616e64206c6f7765722060208301527f7468656e203336350000000000000000000000000000000000000000000000006040830152606082019050919050565b60006119b8602383611ff7565b91507f61646472657373206973206e6f74206f776e6572206f722062656e656669636960008301527f61727900000000000000000000000000000000000000000000000000000000006020830152604082019050919050565b6000611a1e601d83611ff7565b91507f74686973206164647265737320616c72656164792076657269666965640000006000830152602082019050919050565b6000611a5e603a83611ff7565b91507f416464726573733a20756e61626c6520746f2073656e642076616c75652c207260008301527f6563697069656e74206d617920686176652072657665727465640000000000006020830152604082019050919050565b6000611ac4601d83611ff7565b91507f416464726573733a20696e73756666696369656e742062616c616e63650000006000830152602082019050919050565b6000611b04602283611ff7565b91507f62656e6566696369617279206164647265737320616c7265616479206578697360008301527f74210000000000000000000000000000000000000000000000000000000000006020830152604082019050919050565b6000611b6a602083611ff7565b91507f4f776e61626c653a2063616c6c6572206973206e6f7420746865206f776e65726000830152602082019050919050565b6000611baa600083611fdb565b9150600082019050919050565b6000611bc4602483611ff7565b91507f62656e65666963696172792061646472657373206e6f7420796574207665726960008301527f66696564000000000000000000000000000000000000000000000000000000006020830152604082019050919050565b6000611c2a601e83611ff7565b91507f62656e65666963696172792061646472657373206e6f7420666f756e642100006000830152602082019050919050565b6000611c6a602583611ff7565b91507f7769746864726177206973206e6f7420616c6c6f77656420617420746865206d60008301527f6f6d656e740000000000000000000000000000000000000000000000000000006020830152604082019050919050565b600060a0830160008301518482036000860152611ce08282611880565b91505060208301518482036020860152611cfa8282611880565b9150506040830151611d0f6040860182611844565b506060830151611d226060860182611862565b506080830151611d356080860182611d40565b508091505092915050565b611d498161213c565b82525050565b611d588161213c565b82525050565b6000611d6982611b9d565b9150819050919050565b6000602082019050611d886000830184611853565b92915050565b6000604082019050611da36000830185611853565b611db06020830184611d4f565b9392505050565b6000602082019050611dcc6000830184611871565b92915050565b60006020820190508181036000830152611deb816118b9565b9050919050565b60006020820190508181036000830152611e0b8161191f565b9050919050565b60006020820190508181036000830152611e2b816119ab565b9050919050565b60006020820190508181036000830152611e4b81611a11565b9050919050565b60006020820190508181036000830152611e6b81611a51565b9050919050565b60006020820190508181036000830152611e8b81611ab7565b9050919050565b60006020820190508181036000830152611eab81611af7565b9050919050565b60006020820190508181036000830152611ecb81611b5d565b9050919050565b60006020820190508181036000830152611eeb81611bb7565b9050919050565b60006020820190508181036000830152611f0b81611c1d565b9050919050565b60006020820190508181036000830152611f2b81611c5d565b9050919050565b60006020820190508181036000830152611f4c8184611cc3565b905092915050565b6000602082019050611f696000830184611d4f565b92915050565b6000604051905081810181811067ffffffffffffffff82111715611f9657611f95612218565b5b8060405250919050565b600067ffffffffffffffff821115611fbb57611fba612218565b5b601f19601f8301169050602081019050919050565b600081519050919050565b600081905092915050565b600082825260208201905092915050565b600082825260208201905092915050565b60006120138261213c565b915061201e8361213c565b9250827fffffffffffffffffffffffffffffffffffffffffffffffffffffffffffffffff03821115612053576120526121ba565b5b828201905092915050565b60006120698261213c565b91506120748361213c565b9250817fffffffffffffffffffffffffffffffffffffffffffffffffffffffffffffffff04831182151516156120ad576120ac6121ba565b5b828202905092915050565b60006120c38261213c565b91506120ce8361213c565b9250828210156120e1576120e06121ba565b5b828203905092915050565b60006120f78261211c565b9050919050565b60006121098261211c565b9050919050565b60008115159050919050565b600073ffffffffffffffffffffffffffffffffffffffff82169050919050565b6000819050919050565b82818337600083830152505050565b60005b83811015612173578082015181840152602081019050612158565b83811115612182576000848401525b50505050565b600060028204905060018216806121a057607f821691505b602082108114156121b4576121b36121e9565b5b50919050565b7f4e487b7100000000000000000000000000000000000000000000000000000000600052601160045260246000fd5b7f4e487b7100000000000000000000000000000000000000000000000000000000600052602260045260246000fd5b7f4e487b7100000000000000000000000000000000000000000000000000000000600052604160045260246000fd5b6000601f19601f8301169050919050565b612261816120ec565b811461226c57600080fd5b50565b612278816120fe565b811461228357600080fd5b50565b61228f8161213c565b811461229a57600080fd5b5056fea2646970667358221220a0c0d5943ba30fa041acdf5afb0758de1119481ca1f936e574a78709ef01046b64736f6c63430008000033",
  "immutableReferences": {},
  "source": "// SPDX-License-Identifier: MIT\npragma solidity ^0.8.0;\n\n//add ownable\nimport \"@openzeppelin/contracts/utils/structs/EnumerableSet.sol\";\nimport \"@openzeppelin/contracts/utils/Address.sol\";\n\n\ncontract BeneficiariesVault {\n    \n    // public functions that start with prefix ow_ are only for the Owner of the contract\n    // public functions that start with prefix be_ are only for the Beneficiaries\n    // all the other public functions are accesible to the Owner or one of the Beneficiaries but not to any other address (more about access control in the modifiers comments)\n    \n    //START STATE VARIBLES\n    address private _owner;\n    \n    event Deposit(address sender, uint value);\n    \n    using Address for address payable;\n    \n    // Add the library methods\n    using EnumerableSet for EnumerableSet.AddressSet;\n    \n    //using Strings for uint256;\n    \n    // Declare a set state variable\n    EnumerableSet.AddressSet private beneficiariesAddresses;\n    \n    struct BeneficiariesStruct {\n        string email;\n        string name;\n        address beneficiarAddress;\n        bool verifiedAddress;\n        uint amount;\n    }\n    \n    //map address to struct\n    mapping(address => BeneficiariesStruct) private beneficiaries;\n    \n    uint256 deadlineTimestamp;\n    \n    bool withdrawAllowed;\n    \n    //END STATE VARIBLES\n    \n    constructor(address _vaultOwner){\n        //Add a dedline with default of a year from contract creation\n        deadlineTimestamp = block.timestamp + (365 * 1 days);\n        withdrawAllowed = false;\n        _owner = _vaultOwner;\n    }\n    \n    //START UTIL FUNCTIONS\n    \n    function isContains(address  _beneficiaryAddress) private view returns(bool) {\n        return beneficiariesAddresses.contains( _beneficiaryAddress);\n    }\n    \n    function owner() private view returns (address) {\n        return _owner;\n    }\n\n    function isOwner() public view returns(bool){\n        return owner() == msg.sender;\n    }\n\n    function isBeneficiary() public view returns(bool){\n        return isContains(msg.sender);\n    }\n    \n    \n    //END UTIL FUNCTIONS\n    \n    //START MODIFIRES\n    \n    //there are only 2 roles in this contract Owner or Beneficiary\n    //and there are 3 modifiers that provide Access Controll \n    \n     modifier OnlyBeneficiary(address _beneficiaryAddress){\n         require(isContains(_beneficiaryAddress),\"beneficiary address not found!\");\n         _;\n    }\n    \n    modifier OwnerOrBeneficiary(address _address){\n         require(isOwner() || isContains(_address) ,\"address is not owner or beneficiary\");\n         _;       \n    }\n    \n    modifier onlyOwner() {\n        require(isOwner(), \"Ownable: caller is not the owner\");\n        _;\n    }\n    \n    //END MODIFIRES\n    \n    \n    //START CONTRACT PUBLIC API\n    \n    function getContractBalance() public view OwnerOrBeneficiary(msg.sender) returns (uint256) {\n        return address(this).balance;\n    }\n    \n    function getBeneficiaryStruct(address _beneficiaryAddress) public view OwnerOrBeneficiary(msg.sender) returns(BeneficiariesStruct memory){\n        \n        require(isContains(_beneficiaryAddress),\"beneficiary address not found!\");\n        \n        return beneficiaries[_beneficiaryAddress];\n    }\n    \n    function ow_AddBeneficiary(address _newBeneficiaryAddress, string memory _newBeneficiaryEmail, string memory _newBeneficiaryName) public onlyOwner{\n        \n        require(!isContains(_newBeneficiaryAddress),\"beneficiary address already exist!\");\n        //add to beneficiaries mapping\n        beneficiaries[_newBeneficiaryAddress] = BeneficiariesStruct(_newBeneficiaryEmail,_newBeneficiaryName, _newBeneficiaryAddress, false, 0);\n        //add to beneficiariesAddresses set\n        beneficiariesAddresses.add(_newBeneficiaryAddress);\n    }\n\n    function ow_UpdateBeneficiaryAmount(address _beneficiaryAddress, uint _amount) public onlyOwner{\n        \n        require(isContains(_beneficiaryAddress),\"beneficiary address not found!\");\n        require(beneficiaries[_beneficiaryAddress].verifiedAddress == true,\"beneficiary address not yet verified\");\n        \n        \n        beneficiaries[_beneficiaryAddress].amount = _amount;\n    }\n    \n    function ow_RemoveBeneficiary(address _beneficiaryAddress) public OnlyBeneficiary(_beneficiaryAddress) onlyOwner{\n\n        //remove from beneficiaries mapping\n        delete beneficiaries[_beneficiaryAddress];\n        //remove from beneficiariesAddresses set\n        beneficiariesAddresses.remove(_beneficiaryAddress);\n    }\n\n    function ow_Withdraw(uint _amount) payable public onlyOwner{\n        payable(msg.sender).sendValue(_amount);\n    }\n\n    function ow_GetBeneficiariesLength() public view onlyOwner returns(uint) {\n        return beneficiariesAddresses.length();\n    }\n\n    function ow_GetBeneficiariesAtIndex(uint index) public view onlyOwner returns(address) {\n        require(index < beneficiariesAddresses.length());\n        return beneficiariesAddresses.at(index);\n    }\n    \n    function be_Withdraw(address payable _beneficiaryAddress) public payable OnlyBeneficiary(_beneficiaryAddress){\n        //check that withdraw is allowed\n        require(isWithdrawAllowed(), \"withdraw is not allowed at the moment\");\n        //check that the msg.sender\n        \n        _beneficiaryAddress.sendValue(msg.value);//temporary just for check\n\n    }\n\n    function be_VerifyAddress() public payable OnlyBeneficiary(msg.sender){\n        require(beneficiaries[msg.sender].verifiedAddress == false, 'this address already verified');\n        beneficiaries[msg.sender].verifiedAddress = true;\n    }\n    \n    function ow_SetDeadlineFromToday(uint256 _numberOfDays) public onlyOwner {\n        require(_numberOfDays > 7 && _numberOfDays < 365 , \"extension is set only in days that are greater then 7 and lower then 365\");\n        deadlineTimestamp = block.timestamp + (_numberOfDays * 1 days);\n    }\n    \n    function getDeadlineTimestamp() public view OwnerOrBeneficiary(msg.sender) returns(uint256){\n        return deadlineTimestamp;\n    }\n    \n    \n    function isWithdrawAllowed() public view OwnerOrBeneficiary(msg.sender) returns(bool){\n    \n        if(block.timestamp > deadlineTimestamp){\n            return true;\n        }\n        \n        return false;\n    }\n    \n    //only admin deposit to contract\n    receive() external payable onlyOwner{\n        emit Deposit(msg.sender, msg.value);\n    }\n    \n    \n    //END CONTRACT PUBLIC API\n\n }",
  "sourcePath": "/home/yaniv/Desktop/etherum/my-eth-will/contracts/BeneficiariesVault.sol",
  "compiler": {
    "name": "solc",
    "version": "0.8.0+commit.c7dfd78e.Emscripten.clang"
  },
  "schemaVersion": "3.4.1",
  "updatedAt": "2021-06-14T20:35:12.402Z",
  "devdoc": {
    "kind": "dev",
    "methods": {},
    "version": 1
  },
  "userdoc": {
    "kind": "user",
    "methods": {},
    "version": 1
  }
}