{
  "contractName": "BeneficiariesVault",
  "abi": [
    {
      "inputs": [
        {
          "internalType": "address",
          "name": "_vaultOwner",
          "type": "address"
        }
      ],
      "stateMutability": "nonpayable",
      "type": "constructor"
    },
    {
      "anonymous": false,
      "inputs": [
        {
          "indexed": false,
          "internalType": "address",
          "name": "sender",
          "type": "address"
        },
        {
          "indexed": false,
          "internalType": "uint256",
          "name": "value",
          "type": "uint256"
        }
      ],
      "name": "Deposit",
      "type": "event"
    },
    {
      "stateMutability": "payable",
      "type": "receive"
    },
    {
      "inputs": [],
      "name": "owner",
      "outputs": [
        {
          "internalType": "address",
          "name": "",
          "type": "address"
        }
      ],
      "stateMutability": "view",
      "type": "function"
    },
    {
      "inputs": [],
      "name": "getContractBalance",
      "outputs": [
        {
          "internalType": "uint256",
          "name": "",
          "type": "uint256"
        }
      ],
      "stateMutability": "view",
      "type": "function"
    },
    {
      "inputs": [
        {
          "internalType": "address",
          "name": "_beneficiaryAddress",
          "type": "address"
        }
      ],
      "name": "getBeneficiariesStruct",
      "outputs": [
        {
          "components": [
            {
              "internalType": "string",
              "name": "email",
              "type": "string"
            },
            {
              "internalType": "string",
              "name": "name",
              "type": "string"
            }
          ],
          "internalType": "struct BeneficiariesVault.BeneficiariesStruct",
          "name": "",
          "type": "tuple"
        }
      ],
      "stateMutability": "view",
      "type": "function"
    },
    {
      "inputs": [
        {
          "internalType": "address",
          "name": "_newBeneficiaryAddress",
          "type": "address"
        },
        {
          "internalType": "string",
          "name": "_newBeneficiaryEmail",
          "type": "string"
        },
        {
          "internalType": "string",
          "name": "_newBeneficiaryName",
          "type": "string"
        }
      ],
      "name": "ow_AddBeneficiary",
      "outputs": [],
      "stateMutability": "nonpayable",
      "type": "function"
    },
    {
      "inputs": [
        {
          "internalType": "address",
          "name": "_beneficiaryAddress",
          "type": "address"
        }
      ],
      "name": "ow_RemoveBeneficiary",
      "outputs": [],
      "stateMutability": "nonpayable",
      "type": "function"
    },
    {
      "inputs": [
        {
          "internalType": "address payable",
          "name": "_beneficiaryAddress",
          "type": "address"
        }
      ],
      "name": "be_Withdraw",
      "outputs": [],
      "stateMutability": "payable",
      "type": "function"
    },
    {
      "inputs": [
        {
          "internalType": "uint256",
          "name": "_numberOfDays",
          "type": "uint256"
        }
      ],
      "name": "ow_SetDeadlineFromToday",
      "outputs": [],
      "stateMutability": "nonpayable",
      "type": "function"
    },
    {
      "inputs": [],
      "name": "getDeadlineTimestamp",
      "outputs": [
        {
          "internalType": "uint256",
          "name": "",
          "type": "uint256"
        }
      ],
      "stateMutability": "view",
      "type": "function"
    },
    {
      "inputs": [],
      "name": "isWithdrawAllowed",
      "outputs": [
        {
          "internalType": "bool",
          "name": "",
          "type": "bool"
        }
      ],
      "stateMutability": "view",
      "type": "function"
    }
  ],
  "bytecode": "0x60806040523480156200001157600080fd5b5060405162001bb238038062001bb28339818101604052810190620000379190620000c8565b6301e1338042620000499190620000f4565b6004819055506000600560006101000a81548160ff021916908315150217905550806000806101000a81548173ffffffffffffffffffffffffffffffffffffffff021916908373ffffffffffffffffffffffffffffffffffffffff16021790555050620001d8565b600081519050620000c281620001be565b92915050565b600060208284031215620000db57600080fd5b6000620000eb84828501620000b1565b91505092915050565b6000620001018262000185565b91506200010e8362000185565b9250827fffffffffffffffffffffffffffffffffffffffffffffffffffffffffffffffff038211156200014657620001456200018f565b5b828201905092915050565b60006200015e8262000165565b9050919050565b600073ffffffffffffffffffffffffffffffffffffffff82169050919050565b6000819050919050565b7f4e487b7100000000000000000000000000000000000000000000000000000000600052601160045260246000fd5b620001c98162000151565b8114620001d557600080fd5b50565b6119ca80620001e86000396000f3fe60806040526004361061008a5760003560e01c80636f9fb98a116100595780636f9fb98a146101ef578063715875d81461021a5780637e6d0fa0146102455780638da5cb5b14610270578063a63c49671461029b5761013f565b80632383ff811461014457806349578fcf1461016057806355e5b3ed146101895780636e6addd4146101c65761013f565b3661013f573373ffffffffffffffffffffffffffffffffffffffff166100ae6102c4565b73ffffffffffffffffffffffffffffffffffffffff1614610104576040517f08c379a00000000000000000000000000000000000000000000000000000000081526004016100fb906115a9565b60405180910390fd5b7fe1fffcc4923d04b559f4d29a8bfc6cda04eb5b0d3c460751c2402c5c5cc9109c33346040516101359291906114e5565b60405180910390a1005b600080fd5b61015e6004803603810190610159919061103c565b6102ed565b005b34801561016c57600080fd5b5061018760048036038101906101829190611013565b6103aa565b005b34801561019557600080fd5b506101b060048036038101906101ab9190611013565b6104e3565b6040516101bd9190611629565b60405180910390f35b3480156101d257600080fd5b506101ed60048036038101906101e891906110e4565b6106a8565b005b3480156101fb57600080fd5b50610204610790565b604051610211919061164b565b60405180910390f35b34801561022657600080fd5b5061022f61081f565b60405161023c919061164b565b60405180910390f35b34801561025157600080fd5b5061025a6108b0565b604051610267919061150e565b60405180910390f35b34801561027c57600080fd5b506102856102c4565b60405161029291906114ca565b60405180910390f35b3480156102a757600080fd5b506102c260048036038101906102bd9190611065565b610954565b005b60008060009054906101000a900473ffffffffffffffffffffffffffffffffffffffff16905090565b806102f781610abd565b610336576040517f08c379a000000000000000000000000000000000000000000000000000000000815260040161032d906115e9565b60405180910390fd5b61033e6108b0565b61037d576040517f08c379a000000000000000000000000000000000000000000000000000000000815260040161037490611609565b60405180910390fd5b6103a6348373ffffffffffffffffffffffffffffffffffffffff16610ada90919063ffffffff16565b5050565b806103b481610abd565b6103f3576040517f08c379a00000000000000000000000000000000000000000000000000000000081526004016103ea906115e9565b60405180910390fd5b3373ffffffffffffffffffffffffffffffffffffffff166104126102c4565b73ffffffffffffffffffffffffffffffffffffffff1614610468576040517f08c379a000000000000000000000000000000000000000000000000000000000815260040161045f906115a9565b60405180910390fd5b600360008373ffffffffffffffffffffffffffffffffffffffff1673ffffffffffffffffffffffffffffffffffffffff168152602001908152602001600020600080820160006104b89190610e6f565b6001820160006104c89190610e6f565b50506104de826001610bce90919063ffffffff16565b505050565b6104eb610eaf565b6104f482610abd565b610533576040517f08c379a000000000000000000000000000000000000000000000000000000000815260040161052a906115e9565b60405180910390fd5b600360008373ffffffffffffffffffffffffffffffffffffffff1673ffffffffffffffffffffffffffffffffffffffff16815260200190815260200160002060405180604001604052908160008201805461058d9061187f565b80601f01602080910402602001604051908101604052809291908181526020018280546105b99061187f565b80156106065780601f106105db57610100808354040283529160200191610606565b820191906000526020600020905b8154815290600101906020018083116105e957829003601f168201915b5050505050815260200160018201805461061f9061187f565b80601f016020809104026020016040519081016040528092919081815260200182805461064b9061187f565b80156106985780601f1061066d57610100808354040283529160200191610698565b820191906000526020600020905b81548152906001019060200180831161067b57829003601f168201915b5050505050815250509050919050565b3373ffffffffffffffffffffffffffffffffffffffff166106c76102c4565b73ffffffffffffffffffffffffffffffffffffffff161461071d576040517f08c379a0000000000000000000000000000000000000000000000000000000008152600401610714906115a9565b60405180910390fd5b60078111801561072e575061016d81105b61076d576040517f08c379a000000000000000000000000000000000000000000000000000000000815260040161076490611529565b60405180910390fd5b620151808161077c9190611755565b4261078791906116ff565b60048190555050565b6000333373ffffffffffffffffffffffffffffffffffffffff166107b26102c4565b73ffffffffffffffffffffffffffffffffffffffff1614806107d957506107d881610abd565b5b610818576040517f08c379a000000000000000000000000000000000000000000000000000000000815260040161080f90611549565b60405180910390fd5b4791505090565b6000333373ffffffffffffffffffffffffffffffffffffffff166108416102c4565b73ffffffffffffffffffffffffffffffffffffffff161480610868575061086781610abd565b5b6108a7576040517f08c379a000000000000000000000000000000000000000000000000000000000815260040161089e90611549565b60405180910390fd5b60045491505090565b6000333373ffffffffffffffffffffffffffffffffffffffff166108d26102c4565b73ffffffffffffffffffffffffffffffffffffffff1614806108f957506108f881610abd565b5b610938576040517f08c379a000000000000000000000000000000000000000000000000000000000815260040161092f90611549565b60405180910390fd5b60045442111561094b5760019150610950565b600091505b5090565b3373ffffffffffffffffffffffffffffffffffffffff166109736102c4565b73ffffffffffffffffffffffffffffffffffffffff16146109c9576040517f08c379a00000000000000000000000000000000000000000000000000000000081526004016109c0906115a9565b60405180910390fd5b6109d283610abd565b15610a12576040517f08c379a0000000000000000000000000000000000000000000000000000000008152600401610a09906115c9565b60405180910390fd5b604051806040016040528083815260200182815250600360008573ffffffffffffffffffffffffffffffffffffffff1673ffffffffffffffffffffffffffffffffffffffff1681526020019081526020016000206000820151816000019080519060200190610a82929190610ec9565b506020820151816001019080519060200190610a9f929190610ec9565b50905050610ab7836001610bfe90919063ffffffff16565b50505050565b6000610ad3826001610c2e90919063ffffffff16565b9050919050565b80471015610b1d576040517f08c379a0000000000000000000000000000000000000000000000000000000008152600401610b1490611589565b60405180910390fd5b60008273ffffffffffffffffffffffffffffffffffffffff1682604051610b43906114b5565b60006040518083038185875af1925050503d8060008114610b80576040519150601f19603f3d011682016040523d82523d6000602084013e610b85565b606091505b5050905080610bc9576040517f08c379a0000000000000000000000000000000000000000000000000000000008152600401610bc090611569565b60405180910390fd5b505050565b6000610bf6836000018373ffffffffffffffffffffffffffffffffffffffff1660001b610c5e565b905092915050565b6000610c26836000018373ffffffffffffffffffffffffffffffffffffffff1660001b610ddc565b905092915050565b6000610c56836000018373ffffffffffffffffffffffffffffffffffffffff1660001b610e4c565b905092915050565b60008083600101600084815260200190815260200160002054905060008114610dd0576000600182610c9091906117af565b9050600060018660000180549050610ca891906117af565b90506000866000018281548110610ce8577f4e487b7100000000000000000000000000000000000000000000000000000000600052603260045260246000fd5b9060005260206000200154905080876000018481548110610d32577f4e487b7100000000000000000000000000000000000000000000000000000000600052603260045260246000fd5b9060005260206000200181905550838760010160008381526020019081526020016000208190555086600001805480610d94577f4e487b7100000000000000000000000000000000000000000000000000000000600052603160045260246000fd5b60019003818190600052602060002001600090559055866001016000878152602001908152602001600020600090556001945050505050610dd6565b60009150505b92915050565b6000610de88383610e4c565b610e41578260000182908060018154018082558091505060019003906000526020600020016000909190919091505582600001805490508360010160008481526020019081526020016000208190555060019050610e46565b600090505b92915050565b600080836001016000848152602001908152602001600020541415905092915050565b508054610e7b9061187f565b6000825580601f10610e8d5750610eac565b601f016020900490600052602060002090810190610eab9190610f4f565b5b50565b604051806040016040528060608152602001606081525090565b828054610ed59061187f565b90600052602060002090601f016020900481019282610ef75760008555610f3e565b82601f10610f1057805160ff1916838001178555610f3e565b82800160010185558215610f3e579182015b82811115610f3d578251825591602001919060010190610f22565b5b509050610f4b9190610f4f565b5090565b5b80821115610f68576000816000905550600101610f50565b5090565b6000610f7f610f7a84611697565b611666565b905082815260208101848484011115610f9757600080fd5b610fa284828561183d565b509392505050565b600081359050610fb98161194f565b92915050565b600081359050610fce81611966565b92915050565b600082601f830112610fe557600080fd5b8135610ff5848260208601610f6c565b91505092915050565b60008135905061100d8161197d565b92915050565b60006020828403121561102557600080fd5b600061103384828501610faa565b91505092915050565b60006020828403121561104e57600080fd5b600061105c84828501610fbf565b91505092915050565b60008060006060848603121561107a57600080fd5b600061108886828701610faa565b935050602084013567ffffffffffffffff8111156110a557600080fd5b6110b186828701610fd4565b925050604084013567ffffffffffffffff8111156110ce57600080fd5b6110da86828701610fd4565b9150509250925092565b6000602082840312156110f657600080fd5b600061110484828501610ffe565b91505092915050565b611116816117e3565b82525050565b61112581611807565b82525050565b6000611136826116c7565b61114081856116dd565b935061115081856020860161184c565b6111598161193e565b840191505092915050565b60006111716048836116ee565b91507f657874656e73696f6e20697320736574206f6e6c7920696e206461797320746860008301527f6174206172652067726561746572207468656e203720616e64206c6f7765722060208301527f7468656e203336350000000000000000000000000000000000000000000000006040830152606082019050919050565b60006111fd6023836116ee565b91507f61646472657373206973206e6f74206f776e6572206f722062656e656669636960008301527f61727900000000000000000000000000000000000000000000000000000000006020830152604082019050919050565b6000611263603a836116ee565b91507f416464726573733a20756e61626c6520746f2073656e642076616c75652c207260008301527f6563697069656e74206d617920686176652072657665727465640000000000006020830152604082019050919050565b60006112c9601d836116ee565b91507f416464726573733a20696e73756666696369656e742062616c616e63650000006000830152602082019050919050565b60006113096020836116ee565b91507f4f776e61626c653a2063616c6c6572206973206e6f7420746865206f776e65726000830152602082019050919050565b60006113496000836116d2565b9150600082019050919050565b60006113636026836116ee565b91507f62656e65666963696172792061646472657373206e6f7420616c72656164792060008301527f65786973742100000000000000000000000000000000000000000000000000006020830152604082019050919050565b60006113c9601e836116ee565b91507f62656e65666963696172792061646472657373206e6f7420666f756e642100006000830152602082019050919050565b60006114096025836116ee565b91507f7769746864726177206973206e6f7420616c6c6f77656420617420746865206d60008301527f6f6d656e740000000000000000000000000000000000000000000000000000006020830152604082019050919050565b6000604083016000830151848203600086015261147f828261112b565b91505060208301518482036020860152611499828261112b565b9150508091505092915050565b6114af81611833565b82525050565b60006114c08261133c565b9150819050919050565b60006020820190506114df600083018461110d565b92915050565b60006040820190506114fa600083018561110d565b61150760208301846114a6565b9392505050565b6000602082019050611523600083018461111c565b92915050565b6000602082019050818103600083015261154281611164565b9050919050565b60006020820190508181036000830152611562816111f0565b9050919050565b6000602082019050818103600083015261158281611256565b9050919050565b600060208201905081810360008301526115a2816112bc565b9050919050565b600060208201905081810360008301526115c2816112fc565b9050919050565b600060208201905081810360008301526115e281611356565b9050919050565b60006020820190508181036000830152611602816113bc565b9050919050565b60006020820190508181036000830152611622816113fc565b9050919050565b600060208201905081810360008301526116438184611462565b905092915050565b600060208201905061166060008301846114a6565b92915050565b6000604051905081810181811067ffffffffffffffff8211171561168d5761168c61190f565b5b8060405250919050565b600067ffffffffffffffff8211156116b2576116b161190f565b5b601f19601f8301169050602081019050919050565b600081519050919050565b600081905092915050565b600082825260208201905092915050565b600082825260208201905092915050565b600061170a82611833565b915061171583611833565b9250827fffffffffffffffffffffffffffffffffffffffffffffffffffffffffffffffff0382111561174a576117496118b1565b5b828201905092915050565b600061176082611833565b915061176b83611833565b9250817fffffffffffffffffffffffffffffffffffffffffffffffffffffffffffffffff04831182151516156117a4576117a36118b1565b5b828202905092915050565b60006117ba82611833565b91506117c583611833565b9250828210156117d8576117d76118b1565b5b828203905092915050565b60006117ee82611813565b9050919050565b600061180082611813565b9050919050565b60008115159050919050565b600073ffffffffffffffffffffffffffffffffffffffff82169050919050565b6000819050919050565b82818337600083830152505050565b60005b8381101561186a57808201518184015260208101905061184f565b83811115611879576000848401525b50505050565b6000600282049050600182168061189757607f821691505b602082108114156118ab576118aa6118e0565b5b50919050565b7f4e487b7100000000000000000000000000000000000000000000000000000000600052601160045260246000fd5b7f4e487b7100000000000000000000000000000000000000000000000000000000600052602260045260246000fd5b7f4e487b7100000000000000000000000000000000000000000000000000000000600052604160045260246000fd5b6000601f19601f8301169050919050565b611958816117e3565b811461196357600080fd5b50565b61196f816117f5565b811461197a57600080fd5b50565b61198681611833565b811461199157600080fd5b5056fea26469706673582212209e63dbfa79d4430e868f55e5687a430f42e87ed343efdea5298a67d0969f0d9664736f6c63430008000033",
  "immutableReferences": {},
  "source": "// SPDX-License-Identifier: MIT\npragma solidity ^0.8.0;\n\n//add ownable\nimport \"@openzeppelin/contracts/utils/structs/EnumerableSet.sol\";\nimport \"@openzeppelin/contracts/utils/Address.sol\";\n\n\ncontract BeneficiariesVault {\n    \n    // public functions that start with prefix ow_ are only for the Owner of the contract\n    // public functions that start with prefix be_ are only for the Beneficiaries\n    // all the other public functions are accesible to the Owner or one of the Beneficiaries but not to any other address (more about access control in the modifiers comments)\n    \n    //START STATE VARIBLES\n    address private _owner;\n    \n    event Deposit(address sender, uint value);\n    \n    using Address for address payable;\n    \n    // Add the library methods\n    using EnumerableSet for EnumerableSet.AddressSet;\n    \n    //using Strings for uint256;\n    \n    // Declare a set state variable\n    EnumerableSet.AddressSet private beneficiariesAddresses;\n    \n    struct BeneficiariesStruct {\n        string email;\n        string name;\n    }\n    \n    //map address to struct\n    mapping(address => BeneficiariesStruct) private beneficiaries;\n    \n    uint256 deadlineTimestamp;\n    \n    bool withdrawAllowed;\n    \n    //END STATE VARIBLES\n    \n    constructor(address _vaultOwner){\n        //Add a dedline with default of a year from contract creation\n        deadlineTimestamp = block.timestamp + (365 * 1 days);\n        withdrawAllowed = false;\n        _owner = _vaultOwner;\n    }\n    \n    //START UTIL FUNCTIONS\n    \n    function isContains(address  _beneficiaryAddress) private view returns(bool) {\n        return beneficiariesAddresses.contains( _beneficiaryAddress);\n    }\n    \n    function getLength() private view returns(uint){\n        return beneficiariesAddresses.length();\n    }\n\n    function at(uint index) private view returns(address) {\n        require(index < beneficiariesAddresses.length());\n        return beneficiariesAddresses.at(index);\n    }\n    \n    function owner() public view virtual returns (address) {\n        return _owner;\n    }\n    \n    \n    //END UTIL FUNCTIONS\n    \n    //START MODIFIRES\n    \n    //there are only 2 roles in this contract Owner or Beneficiary\n    //and there are 3 modifiers that provide Access Controll \n    \n     modifier OnlyBeneficiary(address _beneficiaryAddress){\n         require(isContains(_beneficiaryAddress),\"beneficiary address not found!\");\n         _;\n    }\n    \n    modifier OwnerOrBeneficiary(address _address){\n         require(owner() == msg.sender || isContains(_address) ,\"address is not owner or beneficiary\");\n         _;       \n    }\n    \n    modifier onlyOwner() {\n        require(owner() ==  msg.sender, \"Ownable: caller is not the owner\");\n        _;\n    }\n    \n    //END MODIFIRES\n    \n    \n    //START CONTRACT PUBLIC API\n    \n    function getContractBalance() public view OwnerOrBeneficiary(msg.sender) returns (uint256) {\n        return address(this).balance;\n    }\n    \n    function getBeneficiariesStruct(address _beneficiaryAddress) public view returns(BeneficiariesStruct memory){\n        \n        require(isContains(_beneficiaryAddress),\"beneficiary address not found!\");\n        \n        return beneficiaries[_beneficiaryAddress];\n    }\n    \n    function ow_AddBeneficiary(address _newBeneficiaryAddress, string memory _newBeneficiaryEmail, string memory _newBeneficiaryName) public onlyOwner{\n        \n        require(!isContains(_newBeneficiaryAddress),\"beneficiary address not already exist!\");\n        //add to beneficiaries mapping\n        beneficiaries[_newBeneficiaryAddress] = BeneficiariesStruct(_newBeneficiaryEmail,_newBeneficiaryName);\n        //add to beneficiariesAddresses set\n        beneficiariesAddresses.add(_newBeneficiaryAddress);\n    }\n    \n    function ow_RemoveBeneficiary(address _beneficiaryAddress) public OnlyBeneficiary(_beneficiaryAddress) onlyOwner{\n\n        //remove from beneficiaries mapping\n        delete beneficiaries[_beneficiaryAddress];\n        //remove from beneficiariesAddresses set\n        beneficiariesAddresses.remove(_beneficiaryAddress);\n    }\n    \n    function be_Withdraw(address payable _beneficiaryAddress) public payable OnlyBeneficiary(_beneficiaryAddress){\n        //check that withdraw is allowed\n        require(isWithdrawAllowed(), \"withdraw is not allowed at the moment\");\n        //check that the msg.sender\n        \n        _beneficiaryAddress.sendValue(msg.value);//temporary just for check\n\n    }\n    \n    function ow_SetDeadlineFromToday(uint256 _numberOfDays) public onlyOwner {\n        require(_numberOfDays > 7 && _numberOfDays < 365 , \"extension is set only in days that are greater then 7 and lower then 365\");\n        deadlineTimestamp = block.timestamp + (_numberOfDays * 1 days);\n    }\n    \n    function getDeadlineTimestamp() public view OwnerOrBeneficiary(msg.sender) returns(uint256){\n        return deadlineTimestamp;\n    }\n    \n    \n    function isWithdrawAllowed() public view OwnerOrBeneficiary(msg.sender) returns(bool){\n    \n        if(block.timestamp > deadlineTimestamp){\n            return true;\n        }\n        \n        return false;\n    }\n    \n    //only admin deposit to contract\n    receive() external payable onlyOwner{\n        emit Deposit(msg.sender, msg.value);\n    }\n    \n    \n    //END CONTRACT PUBLIC API\n\n }",
  "sourcePath": "/home/yaniv/Desktop/etherum/my-ethe-vault/contracts/BeneficiariesVault.sol",
  "compiler": {
    "name": "solc",
    "version": "0.8.0+commit.c7dfd78e.Emscripten.clang"
  },
  "schemaVersion": "3.4.1",
  "updatedAt": "2021-05-30T07:10:44.369Z",
  "devdoc": {
    "kind": "dev",
    "methods": {},
    "version": 1
  },
  "userdoc": {
    "kind": "user",
    "methods": {},
    "version": 1
  }
}