{
  "contractName": "BeneficiariesVault",
  "abi": [
    {
      "inputs": [
        {
          "internalType": "address",
          "name": "_vaultOwner",
          "type": "address"
        }
      ],
      "stateMutability": "nonpayable",
      "type": "constructor"
    },
    {
      "anonymous": false,
      "inputs": [
        {
          "indexed": false,
          "internalType": "address",
          "name": "sender",
          "type": "address"
        },
        {
          "indexed": false,
          "internalType": "uint256",
          "name": "value",
          "type": "uint256"
        }
      ],
      "name": "Deposit",
      "type": "event"
    },
    {
      "stateMutability": "payable",
      "type": "receive"
    },
    {
      "inputs": [],
      "name": "isOwner",
      "outputs": [
        {
          "internalType": "bool",
          "name": "",
          "type": "bool"
        }
      ],
      "stateMutability": "view",
      "type": "function"
    },
    {
      "inputs": [],
      "name": "isBeneficiary",
      "outputs": [
        {
          "internalType": "bool",
          "name": "",
          "type": "bool"
        }
      ],
      "stateMutability": "view",
      "type": "function"
    },
    {
      "inputs": [],
      "name": "getContractBalance",
      "outputs": [
        {
          "internalType": "uint256",
          "name": "",
          "type": "uint256"
        }
      ],
      "stateMutability": "view",
      "type": "function"
    },
    {
      "inputs": [
        {
          "internalType": "address",
          "name": "_beneficiaryAddress",
          "type": "address"
        }
      ],
      "name": "getBeneficiariesStruct",
      "outputs": [
        {
          "components": [
            {
              "internalType": "string",
              "name": "email",
              "type": "string"
            },
            {
              "internalType": "string",
              "name": "name",
              "type": "string"
            }
          ],
          "internalType": "struct BeneficiariesVault.BeneficiariesStruct",
          "name": "",
          "type": "tuple"
        }
      ],
      "stateMutability": "view",
      "type": "function"
    },
    {
      "inputs": [
        {
          "internalType": "address",
          "name": "_newBeneficiaryAddress",
          "type": "address"
        },
        {
          "internalType": "string",
          "name": "_newBeneficiaryEmail",
          "type": "string"
        },
        {
          "internalType": "string",
          "name": "_newBeneficiaryName",
          "type": "string"
        }
      ],
      "name": "ow_AddBeneficiary",
      "outputs": [],
      "stateMutability": "nonpayable",
      "type": "function"
    },
    {
      "inputs": [
        {
          "internalType": "address",
          "name": "_beneficiaryAddress",
          "type": "address"
        }
      ],
      "name": "ow_RemoveBeneficiary",
      "outputs": [],
      "stateMutability": "nonpayable",
      "type": "function"
    },
    {
      "inputs": [
        {
          "internalType": "uint256",
          "name": "_amount",
          "type": "uint256"
        }
      ],
      "name": "ow_Withdraw",
      "outputs": [],
      "stateMutability": "payable",
      "type": "function"
    },
    {
      "inputs": [
        {
          "internalType": "address payable",
          "name": "_beneficiaryAddress",
          "type": "address"
        }
      ],
      "name": "be_Withdraw",
      "outputs": [],
      "stateMutability": "payable",
      "type": "function"
    },
    {
      "inputs": [
        {
          "internalType": "uint256",
          "name": "_numberOfDays",
          "type": "uint256"
        }
      ],
      "name": "ow_SetDeadlineFromToday",
      "outputs": [],
      "stateMutability": "nonpayable",
      "type": "function"
    },
    {
      "inputs": [],
      "name": "getDeadlineTimestamp",
      "outputs": [
        {
          "internalType": "uint256",
          "name": "",
          "type": "uint256"
        }
      ],
      "stateMutability": "view",
      "type": "function"
    },
    {
      "inputs": [],
      "name": "isWithdrawAllowed",
      "outputs": [
        {
          "internalType": "bool",
          "name": "",
          "type": "bool"
        }
      ],
      "stateMutability": "view",
      "type": "function"
    }
  ],
  "bytecode": "0x60806040523480156200001157600080fd5b5060405162001b9238038062001b928339818101604052810190620000379190620000c8565b6301e1338042620000499190620000f4565b6004819055506000600560006101000a81548160ff021916908315150217905550806000806101000a81548173ffffffffffffffffffffffffffffffffffffffff021916908373ffffffffffffffffffffffffffffffffffffffff16021790555050620001d8565b600081519050620000c281620001be565b92915050565b600060208284031215620000db57600080fd5b6000620000eb84828501620000b1565b91505092915050565b6000620001018262000185565b91506200010e8362000185565b9250827fffffffffffffffffffffffffffffffffffffffffffffffffffffffffffffffff038211156200014657620001456200018f565b5b828201905092915050565b60006200015e8262000165565b9050919050565b600073ffffffffffffffffffffffffffffffffffffffff82169050919050565b6000819050919050565b7f4e487b7100000000000000000000000000000000000000000000000000000000600052601160045260246000fd5b620001c98162000151565b8114620001d557600080fd5b50565b6119aa80620001e86000396000f3fe6080604052600436106100a05760003560e01c8063715875d811610064578063715875d8146102025780637b70209f1461022d5780637e6d0fa0146102585780638f32d59b14610283578063a63c4967146102ae578063b1e2ccd4146102d757610127565b80632383ff811461012c57806349578fcf1461014857806355e5b3ed146101715780636e6addd4146101ae5780636f9fb98a146101d757610127565b36610127576100ad6102f3565b6100ec576040517f08c379a00000000000000000000000000000000000000000000000000000000081526004016100e390611589565b60405180910390fd5b7fe1fffcc4923d04b559f4d29a8bfc6cda04eb5b0d3c460751c2402c5c5cc9109c333460405161011d9291906114c5565b60405180910390a1005b600080fd5b61014660048036038101906101419190611037565b610330565b005b34801561015457600080fd5b5061016f600480360381019061016a919061100e565b6103ed565b005b34801561017d57600080fd5b506101986004803603810190610193919061100e565b6104f8565b6040516101a59190611609565b60405180910390f35b3480156101ba57600080fd5b506101d560048036038101906101d091906110df565b6106bd565b005b3480156101e357600080fd5b506101ec610777565b6040516101f9919061162b565b60405180910390f35b34801561020e57600080fd5b506102176107d8565b604051610224919061162b565b60405180910390f35b34801561023957600080fd5b5061024261083b565b60405161024f91906114ee565b60405180910390f35b34801561026457600080fd5b5061026d61084b565b60405161027a91906114ee565b60405180910390f35b34801561028f57600080fd5b506102986102f3565b6040516102a591906114ee565b60405180910390f35b3480156102ba57600080fd5b506102d560048036038101906102d09190611060565b6108c1565b005b6102f160048036038101906102ec91906110df565b6109fc565b005b60003373ffffffffffffffffffffffffffffffffffffffff16610314610a8f565b73ffffffffffffffffffffffffffffffffffffffff1614905090565b8061033a81610ab8565b610379576040517f08c379a0000000000000000000000000000000000000000000000000000000008152600401610370906115c9565b60405180910390fd5b61038161084b565b6103c0576040517f08c379a00000000000000000000000000000000000000000000000000000000081526004016103b7906115e9565b60405180910390fd5b6103e9348373ffffffffffffffffffffffffffffffffffffffff16610ad590919063ffffffff16565b5050565b806103f781610ab8565b610436576040517f08c379a000000000000000000000000000000000000000000000000000000000815260040161042d906115c9565b60405180910390fd5b61043e6102f3565b61047d576040517f08c379a000000000000000000000000000000000000000000000000000000000815260040161047490611589565b60405180910390fd5b600360008373ffffffffffffffffffffffffffffffffffffffff1673ffffffffffffffffffffffffffffffffffffffff168152602001908152602001600020600080820160006104cd9190610e6a565b6001820160006104dd9190610e6a565b50506104f3826001610bc990919063ffffffff16565b505050565b610500610eaa565b61050982610ab8565b610548576040517f08c379a000000000000000000000000000000000000000000000000000000000815260040161053f906115c9565b60405180910390fd5b600360008373ffffffffffffffffffffffffffffffffffffffff1673ffffffffffffffffffffffffffffffffffffffff1681526020019081526020016000206040518060400160405290816000820180546105a29061185f565b80601f01602080910402602001604051908101604052809291908181526020018280546105ce9061185f565b801561061b5780601f106105f05761010080835404028352916020019161061b565b820191906000526020600020905b8154815290600101906020018083116105fe57829003601f168201915b505050505081526020016001820180546106349061185f565b80601f01602080910402602001604051908101604052809291908181526020018280546106609061185f565b80156106ad5780601f10610682576101008083540402835291602001916106ad565b820191906000526020600020905b81548152906001019060200180831161069057829003601f168201915b5050505050815250509050919050565b6106c56102f3565b610704576040517f08c379a00000000000000000000000000000000000000000000000000000000081526004016106fb90611589565b60405180910390fd5b600781118015610715575061016d81105b610754576040517f08c379a000000000000000000000000000000000000000000000000000000000815260040161074b90611509565b60405180910390fd5b62015180816107639190611735565b4261076e91906116df565b60048190555050565b6000336107826102f3565b80610792575061079181610ab8565b5b6107d1576040517f08c379a00000000000000000000000000000000000000000000000000000000081526004016107c890611529565b60405180910390fd5b4791505090565b6000336107e36102f3565b806107f357506107f281610ab8565b5b610832576040517f08c379a000000000000000000000000000000000000000000000000000000000815260040161082990611529565b60405180910390fd5b60045491505090565b600061084633610ab8565b905090565b6000336108566102f3565b80610866575061086581610ab8565b5b6108a5576040517f08c379a000000000000000000000000000000000000000000000000000000000815260040161089c90611529565b60405180910390fd5b6004544211156108b857600191506108bd565b600091505b5090565b6108c96102f3565b610908576040517f08c379a00000000000000000000000000000000000000000000000000000000081526004016108ff90611589565b60405180910390fd5b61091183610ab8565b15610951576040517f08c379a0000000000000000000000000000000000000000000000000000000008152600401610948906115a9565b60405180910390fd5b604051806040016040528083815260200182815250600360008573ffffffffffffffffffffffffffffffffffffffff1673ffffffffffffffffffffffffffffffffffffffff16815260200190815260200160002060008201518160000190805190602001906109c1929190610ec4565b5060208201518160010190805190602001906109de929190610ec4565b509050506109f6836001610bf990919063ffffffff16565b50505050565b610a046102f3565b610a43576040517f08c379a0000000000000000000000000000000000000000000000000000000008152600401610a3a90611589565b60405180910390fd5b610a8c8160008054906101000a900473ffffffffffffffffffffffffffffffffffffffff1673ffffffffffffffffffffffffffffffffffffffff16610ad590919063ffffffff16565b50565b60008060009054906101000a900473ffffffffffffffffffffffffffffffffffffffff16905090565b6000610ace826001610c2990919063ffffffff16565b9050919050565b80471015610b18576040517f08c379a0000000000000000000000000000000000000000000000000000000008152600401610b0f90611569565b60405180910390fd5b60008273ffffffffffffffffffffffffffffffffffffffff1682604051610b3e906114b0565b60006040518083038185875af1925050503d8060008114610b7b576040519150601f19603f3d011682016040523d82523d6000602084013e610b80565b606091505b5050905080610bc4576040517f08c379a0000000000000000000000000000000000000000000000000000000008152600401610bbb90611549565b60405180910390fd5b505050565b6000610bf1836000018373ffffffffffffffffffffffffffffffffffffffff1660001b610c59565b905092915050565b6000610c21836000018373ffffffffffffffffffffffffffffffffffffffff1660001b610dd7565b905092915050565b6000610c51836000018373ffffffffffffffffffffffffffffffffffffffff1660001b610e47565b905092915050565b60008083600101600084815260200190815260200160002054905060008114610dcb576000600182610c8b919061178f565b9050600060018660000180549050610ca3919061178f565b90506000866000018281548110610ce3577f4e487b7100000000000000000000000000000000000000000000000000000000600052603260045260246000fd5b9060005260206000200154905080876000018481548110610d2d577f4e487b7100000000000000000000000000000000000000000000000000000000600052603260045260246000fd5b9060005260206000200181905550838760010160008381526020019081526020016000208190555086600001805480610d8f577f4e487b7100000000000000000000000000000000000000000000000000000000600052603160045260246000fd5b60019003818190600052602060002001600090559055866001016000878152602001908152602001600020600090556001945050505050610dd1565b60009150505b92915050565b6000610de38383610e47565b610e3c578260000182908060018154018082558091505060019003906000526020600020016000909190919091505582600001805490508360010160008481526020019081526020016000208190555060019050610e41565b600090505b92915050565b600080836001016000848152602001908152602001600020541415905092915050565b508054610e769061185f565b6000825580601f10610e885750610ea7565b601f016020900490600052602060002090810190610ea69190610f4a565b5b50565b604051806040016040528060608152602001606081525090565b828054610ed09061185f565b90600052602060002090601f016020900481019282610ef25760008555610f39565b82601f10610f0b57805160ff1916838001178555610f39565b82800160010185558215610f39579182015b82811115610f38578251825591602001919060010190610f1d565b5b509050610f469190610f4a565b5090565b5b80821115610f63576000816000905550600101610f4b565b5090565b6000610f7a610f7584611677565b611646565b905082815260208101848484011115610f9257600080fd5b610f9d84828561181d565b509392505050565b600081359050610fb48161192f565b92915050565b600081359050610fc981611946565b92915050565b600082601f830112610fe057600080fd5b8135610ff0848260208601610f67565b91505092915050565b6000813590506110088161195d565b92915050565b60006020828403121561102057600080fd5b600061102e84828501610fa5565b91505092915050565b60006020828403121561104957600080fd5b600061105784828501610fba565b91505092915050565b60008060006060848603121561107557600080fd5b600061108386828701610fa5565b935050602084013567ffffffffffffffff8111156110a057600080fd5b6110ac86828701610fcf565b925050604084013567ffffffffffffffff8111156110c957600080fd5b6110d586828701610fcf565b9150509250925092565b6000602082840312156110f157600080fd5b60006110ff84828501610ff9565b91505092915050565b611111816117c3565b82525050565b611120816117e7565b82525050565b6000611131826116a7565b61113b81856116bd565b935061114b81856020860161182c565b6111548161191e565b840191505092915050565b600061116c6048836116ce565b91507f657874656e73696f6e20697320736574206f6e6c7920696e206461797320746860008301527f6174206172652067726561746572207468656e203720616e64206c6f7765722060208301527f7468656e203336350000000000000000000000000000000000000000000000006040830152606082019050919050565b60006111f86023836116ce565b91507f61646472657373206973206e6f74206f776e6572206f722062656e656669636960008301527f61727900000000000000000000000000000000000000000000000000000000006020830152604082019050919050565b600061125e603a836116ce565b91507f416464726573733a20756e61626c6520746f2073656e642076616c75652c207260008301527f6563697069656e74206d617920686176652072657665727465640000000000006020830152604082019050919050565b60006112c4601d836116ce565b91507f416464726573733a20696e73756666696369656e742062616c616e63650000006000830152602082019050919050565b60006113046020836116ce565b91507f4f776e61626c653a2063616c6c6572206973206e6f7420746865206f776e65726000830152602082019050919050565b60006113446000836116b2565b9150600082019050919050565b600061135e6026836116ce565b91507f62656e65666963696172792061646472657373206e6f7420616c72656164792060008301527f65786973742100000000000000000000000000000000000000000000000000006020830152604082019050919050565b60006113c4601e836116ce565b91507f62656e65666963696172792061646472657373206e6f7420666f756e642100006000830152602082019050919050565b60006114046025836116ce565b91507f7769746864726177206973206e6f7420616c6c6f77656420617420746865206d60008301527f6f6d656e740000000000000000000000000000000000000000000000000000006020830152604082019050919050565b6000604083016000830151848203600086015261147a8282611126565b915050602083015184820360208601526114948282611126565b9150508091505092915050565b6114aa81611813565b82525050565b60006114bb82611337565b9150819050919050565b60006040820190506114da6000830185611108565b6114e760208301846114a1565b9392505050565b60006020820190506115036000830184611117565b92915050565b600060208201905081810360008301526115228161115f565b9050919050565b60006020820190508181036000830152611542816111eb565b9050919050565b6000602082019050818103600083015261156281611251565b9050919050565b60006020820190508181036000830152611582816112b7565b9050919050565b600060208201905081810360008301526115a2816112f7565b9050919050565b600060208201905081810360008301526115c281611351565b9050919050565b600060208201905081810360008301526115e2816113b7565b9050919050565b60006020820190508181036000830152611602816113f7565b9050919050565b60006020820190508181036000830152611623818461145d565b905092915050565b600060208201905061164060008301846114a1565b92915050565b6000604051905081810181811067ffffffffffffffff8211171561166d5761166c6118ef565b5b8060405250919050565b600067ffffffffffffffff821115611692576116916118ef565b5b601f19601f8301169050602081019050919050565b600081519050919050565b600081905092915050565b600082825260208201905092915050565b600082825260208201905092915050565b60006116ea82611813565b91506116f583611813565b9250827fffffffffffffffffffffffffffffffffffffffffffffffffffffffffffffffff0382111561172a57611729611891565b5b828201905092915050565b600061174082611813565b915061174b83611813565b9250817fffffffffffffffffffffffffffffffffffffffffffffffffffffffffffffffff048311821515161561178457611783611891565b5b828202905092915050565b600061179a82611813565b91506117a583611813565b9250828210156117b8576117b7611891565b5b828203905092915050565b60006117ce826117f3565b9050919050565b60006117e0826117f3565b9050919050565b60008115159050919050565b600073ffffffffffffffffffffffffffffffffffffffff82169050919050565b6000819050919050565b82818337600083830152505050565b60005b8381101561184a57808201518184015260208101905061182f565b83811115611859576000848401525b50505050565b6000600282049050600182168061187757607f821691505b6020821081141561188b5761188a6118c0565b5b50919050565b7f4e487b7100000000000000000000000000000000000000000000000000000000600052601160045260246000fd5b7f4e487b7100000000000000000000000000000000000000000000000000000000600052602260045260246000fd5b7f4e487b7100000000000000000000000000000000000000000000000000000000600052604160045260246000fd5b6000601f19601f8301169050919050565b611938816117c3565b811461194357600080fd5b50565b61194f816117d5565b811461195a57600080fd5b50565b61196681611813565b811461197157600080fd5b5056fea264697066735822122014518be58e83b80d09928d2fd3327f24603ffaf7cb1279b31b6829f6d969ea1f64736f6c63430008000033",
  "immutableReferences": {},
  "source": "// SPDX-License-Identifier: MIT\npragma solidity ^0.8.0;\n\n//add ownable\nimport \"@openzeppelin/contracts/utils/structs/EnumerableSet.sol\";\nimport \"@openzeppelin/contracts/utils/Address.sol\";\n\n\ncontract BeneficiariesVault {\n    \n    // public functions that start with prefix ow_ are only for the Owner of the contract\n    // public functions that start with prefix be_ are only for the Beneficiaries\n    // all the other public functions are accesible to the Owner or one of the Beneficiaries but not to any other address (more about access control in the modifiers comments)\n    \n    //START STATE VARIBLES\n    address private _owner;\n    \n    event Deposit(address sender, uint value);\n    \n    using Address for address payable;\n    \n    // Add the library methods\n    using EnumerableSet for EnumerableSet.AddressSet;\n    \n    //using Strings for uint256;\n    \n    // Declare a set state variable\n    EnumerableSet.AddressSet private beneficiariesAddresses;\n    \n    struct BeneficiariesStruct {\n        string email;\n        string name;\n    }\n    \n    //map address to struct\n    mapping(address => BeneficiariesStruct) private beneficiaries;\n    \n    uint256 deadlineTimestamp;\n    \n    bool withdrawAllowed;\n    \n    //END STATE VARIBLES\n    \n    constructor(address _vaultOwner){\n        //Add a dedline with default of a year from contract creation\n        deadlineTimestamp = block.timestamp + (365 * 1 days);\n        withdrawAllowed = false;\n        _owner = payable(_vaultOwner);\n    }\n    \n    //START UTIL FUNCTIONS\n    \n    function isContains(address  _beneficiaryAddress) private view returns(bool) {\n        return beneficiariesAddresses.contains( _beneficiaryAddress);\n    }\n    \n    function getLength() private view returns(uint){\n        return beneficiariesAddresses.length();\n    }\n\n    function at(uint index) private view returns(address) {\n        require(index < beneficiariesAddresses.length());\n        return beneficiariesAddresses.at(index);\n    }\n    \n    function owner() private view returns (address) {\n        return _owner;\n    }\n\n    function isOwner() public view returns(bool){\n        return owner() == msg.sender;\n    }\n\n    function isBeneficiary() public view returns(bool){\n        return isContains(msg.sender);\n    }\n    \n    \n    //END UTIL FUNCTIONS\n    \n    //START MODIFIRES\n    \n    //there are only 2 roles in this contract Owner or Beneficiary\n    //and there are 3 modifiers that provide Access Controll \n    \n     modifier OnlyBeneficiary(address _beneficiaryAddress){\n         require(isContains(_beneficiaryAddress),\"beneficiary address not found!\");\n         _;\n    }\n    \n    modifier OwnerOrBeneficiary(address _address){\n         require(isOwner() || isContains(_address) ,\"address is not owner or beneficiary\");\n         _;       \n    }\n    \n    modifier onlyOwner() {\n        require(isOwner(), \"Ownable: caller is not the owner\");\n        _;\n    }\n    \n    //END MODIFIRES\n    \n    \n    //START CONTRACT PUBLIC API\n    \n    function getContractBalance() public view OwnerOrBeneficiary(msg.sender) returns (uint256) {\n        return address(this).balance;\n    }\n    \n    function getBeneficiariesStruct(address _beneficiaryAddress) public view returns(BeneficiariesStruct memory){\n        \n        require(isContains(_beneficiaryAddress),\"beneficiary address not found!\");\n        \n        return beneficiaries[_beneficiaryAddress];\n    }\n    \n    function ow_AddBeneficiary(address _newBeneficiaryAddress, string memory _newBeneficiaryEmail, string memory _newBeneficiaryName) public onlyOwner{\n        \n        require(!isContains(_newBeneficiaryAddress),\"beneficiary address not already exist!\");\n        //add to beneficiaries mapping\n        beneficiaries[_newBeneficiaryAddress] = BeneficiariesStruct(_newBeneficiaryEmail,_newBeneficiaryName);\n        //add to beneficiariesAddresses set\n        beneficiariesAddresses.add(_newBeneficiaryAddress);\n    }\n    \n    function ow_RemoveBeneficiary(address _beneficiaryAddress) public OnlyBeneficiary(_beneficiaryAddress) onlyOwner{\n\n        //remove from beneficiaries mapping\n        delete beneficiaries[_beneficiaryAddress];\n        //remove from beneficiariesAddresses set\n        beneficiariesAddresses.remove(_beneficiaryAddress);\n    }\n\n    function ow_Withdraw(uint _amount) payable public onlyOwner{\n        payable(_owner).sendValue(_amount);\n    }\n    \n    function be_Withdraw(address payable _beneficiaryAddress) public payable OnlyBeneficiary(_beneficiaryAddress){\n        //check that withdraw is allowed\n        require(isWithdrawAllowed(), \"withdraw is not allowed at the moment\");\n        //check that the msg.sender\n        \n        _beneficiaryAddress.sendValue(msg.value);//temporary just for check\n\n    }\n    \n    function ow_SetDeadlineFromToday(uint256 _numberOfDays) public onlyOwner {\n        require(_numberOfDays > 7 && _numberOfDays < 365 , \"extension is set only in days that are greater then 7 and lower then 365\");\n        deadlineTimestamp = block.timestamp + (_numberOfDays * 1 days);\n    }\n    \n    function getDeadlineTimestamp() public view OwnerOrBeneficiary(msg.sender) returns(uint256){\n        return deadlineTimestamp;\n    }\n    \n    \n    function isWithdrawAllowed() public view OwnerOrBeneficiary(msg.sender) returns(bool){\n    \n        if(block.timestamp > deadlineTimestamp){\n            return true;\n        }\n        \n        return false;\n    }\n    \n    //only admin deposit to contract\n    receive() external payable onlyOwner{\n        emit Deposit(msg.sender, msg.value);\n    }\n    \n    \n    //END CONTRACT PUBLIC API\n\n }",
  "sourcePath": "/home/yaniv/Desktop/etherum/my-eth-will/contracts/BeneficiariesVault.sol",
  "compiler": {
    "name": "solc",
    "version": "0.8.0+commit.c7dfd78e.Emscripten.clang"
  },
  "schemaVersion": "3.4.1",
  "updatedAt": "2021-06-06T19:09:19.541Z",
  "devdoc": {
    "kind": "dev",
    "methods": {},
    "version": 1
  },
  "userdoc": {
    "kind": "user",
    "methods": {},
    "version": 1
  }
}