{
  "contractName": "BeneficiariesVault",
  "abi": [
    {
      "inputs": [
        {
          "internalType": "address",
          "name": "_vaultOwner",
          "type": "address"
        }
      ],
      "stateMutability": "nonpayable",
      "type": "constructor"
    },
    {
      "anonymous": false,
      "inputs": [
        {
          "indexed": false,
          "internalType": "address",
          "name": "sender",
          "type": "address"
        },
        {
          "indexed": false,
          "internalType": "uint256",
          "name": "value",
          "type": "uint256"
        }
      ],
      "name": "Deposit",
      "type": "event"
    },
    {
      "stateMutability": "payable",
      "type": "receive"
    },
    {
      "inputs": [],
      "name": "isOwner",
      "outputs": [
        {
          "internalType": "bool",
          "name": "",
          "type": "bool"
        }
      ],
      "stateMutability": "view",
      "type": "function"
    },
    {
      "inputs": [],
      "name": "getContractBalance",
      "outputs": [
        {
          "internalType": "uint256",
          "name": "",
          "type": "uint256"
        }
      ],
      "stateMutability": "view",
      "type": "function"
    },
    {
      "inputs": [
        {
          "internalType": "address",
          "name": "_beneficiaryAddress",
          "type": "address"
        }
      ],
      "name": "getBeneficiariesStruct",
      "outputs": [
        {
          "components": [
            {
              "internalType": "string",
              "name": "email",
              "type": "string"
            },
            {
              "internalType": "string",
              "name": "name",
              "type": "string"
            }
          ],
          "internalType": "struct BeneficiariesVault.BeneficiariesStruct",
          "name": "",
          "type": "tuple"
        }
      ],
      "stateMutability": "view",
      "type": "function"
    },
    {
      "inputs": [
        {
          "internalType": "address",
          "name": "_newBeneficiaryAddress",
          "type": "address"
        },
        {
          "internalType": "string",
          "name": "_newBeneficiaryEmail",
          "type": "string"
        },
        {
          "internalType": "string",
          "name": "_newBeneficiaryName",
          "type": "string"
        }
      ],
      "name": "ow_AddBeneficiary",
      "outputs": [],
      "stateMutability": "nonpayable",
      "type": "function"
    },
    {
      "inputs": [
        {
          "internalType": "address",
          "name": "_beneficiaryAddress",
          "type": "address"
        }
      ],
      "name": "ow_RemoveBeneficiary",
      "outputs": [],
      "stateMutability": "nonpayable",
      "type": "function"
    },
    {
      "inputs": [
        {
          "internalType": "address payable",
          "name": "_beneficiaryAddress",
          "type": "address"
        }
      ],
      "name": "be_Withdraw",
      "outputs": [],
      "stateMutability": "payable",
      "type": "function"
    },
    {
      "inputs": [
        {
          "internalType": "uint256",
          "name": "_numberOfDays",
          "type": "uint256"
        }
      ],
      "name": "ow_SetDeadlineFromToday",
      "outputs": [],
      "stateMutability": "nonpayable",
      "type": "function"
    },
    {
      "inputs": [],
      "name": "getDeadlineTimestamp",
      "outputs": [
        {
          "internalType": "uint256",
          "name": "",
          "type": "uint256"
        }
      ],
      "stateMutability": "view",
      "type": "function"
    },
    {
      "inputs": [],
      "name": "isWithdrawAllowed",
      "outputs": [
        {
          "internalType": "bool",
          "name": "",
          "type": "bool"
        }
      ],
      "stateMutability": "view",
      "type": "function"
    }
  ],
  "bytecode": "0x60806040523480156200001157600080fd5b5060405162001a9238038062001a928339818101604052810190620000379190620000c8565b6301e1338042620000499190620000f4565b6004819055506000600560006101000a81548160ff021916908315150217905550806000806101000a81548173ffffffffffffffffffffffffffffffffffffffff021916908373ffffffffffffffffffffffffffffffffffffffff16021790555050620001d8565b600081519050620000c281620001be565b92915050565b600060208284031215620000db57600080fd5b6000620000eb84828501620000b1565b91505092915050565b6000620001018262000185565b91506200010e8362000185565b9250827fffffffffffffffffffffffffffffffffffffffffffffffffffffffffffffffff038211156200014657620001456200018f565b5b828201905092915050565b60006200015e8262000165565b9050919050565b600073ffffffffffffffffffffffffffffffffffffffff82169050919050565b6000819050919050565b7f4e487b7100000000000000000000000000000000000000000000000000000000600052601160045260246000fd5b620001c98162000151565b8114620001d557600080fd5b50565b6118aa80620001e86000396000f3fe60806040526004361061008a5760003560e01c80636f9fb98a116100595780636f9fb98a146101c1578063715875d8146101ec5780637e6d0fa0146102175780638f32d59b14610242578063a63c49671461026d57610111565b80632383ff811461011657806349578fcf1461013257806355e5b3ed1461015b5780636e6addd41461019857610111565b3661011157610097610296565b6100d6576040517f08c379a00000000000000000000000000000000000000000000000000000000081526004016100cd90611489565b60405180910390fd5b7fe1fffcc4923d04b559f4d29a8bfc6cda04eb5b0d3c460751c2402c5c5cc9109c33346040516101079291906113c5565b60405180910390a1005b600080fd5b610130600480360381019061012b9190610f37565b6102d3565b005b34801561013e57600080fd5b5061015960048036038101906101549190610f0e565b610390565b005b34801561016757600080fd5b50610182600480360381019061017d9190610f0e565b61049b565b60405161018f9190611509565b60405180910390f35b3480156101a457600080fd5b506101bf60048036038101906101ba9190610fdf565b610660565b005b3480156101cd57600080fd5b506101d661071a565b6040516101e3919061152b565b60405180910390f35b3480156101f857600080fd5b5061020161077b565b60405161020e919061152b565b60405180910390f35b34801561022357600080fd5b5061022c6107de565b60405161023991906113ee565b60405180910390f35b34801561024e57600080fd5b50610257610296565b60405161026491906113ee565b60405180910390f35b34801561027957600080fd5b50610294600480360381019061028f9190610f60565b610854565b005b60003373ffffffffffffffffffffffffffffffffffffffff166102b761098f565b73ffffffffffffffffffffffffffffffffffffffff1614905090565b806102dd816109b8565b61031c576040517f08c379a0000000000000000000000000000000000000000000000000000000008152600401610313906114c9565b60405180910390fd5b6103246107de565b610363576040517f08c379a000000000000000000000000000000000000000000000000000000000815260040161035a906114e9565b60405180910390fd5b61038c348373ffffffffffffffffffffffffffffffffffffffff166109d590919063ffffffff16565b5050565b8061039a816109b8565b6103d9576040517f08c379a00000000000000000000000000000000000000000000000000000000081526004016103d0906114c9565b60405180910390fd5b6103e1610296565b610420576040517f08c379a000000000000000000000000000000000000000000000000000000000815260040161041790611489565b60405180910390fd5b600360008373ffffffffffffffffffffffffffffffffffffffff1673ffffffffffffffffffffffffffffffffffffffff168152602001908152602001600020600080820160006104709190610d6a565b6001820160006104809190610d6a565b5050610496826001610ac990919063ffffffff16565b505050565b6104a3610daa565b6104ac826109b8565b6104eb576040517f08c379a00000000000000000000000000000000000000000000000000000000081526004016104e2906114c9565b60405180910390fd5b600360008373ffffffffffffffffffffffffffffffffffffffff1673ffffffffffffffffffffffffffffffffffffffff1681526020019081526020016000206040518060400160405290816000820180546105459061175f565b80601f01602080910402602001604051908101604052809291908181526020018280546105719061175f565b80156105be5780601f10610593576101008083540402835291602001916105be565b820191906000526020600020905b8154815290600101906020018083116105a157829003601f168201915b505050505081526020016001820180546105d79061175f565b80601f01602080910402602001604051908101604052809291908181526020018280546106039061175f565b80156106505780601f1061062557610100808354040283529160200191610650565b820191906000526020600020905b81548152906001019060200180831161063357829003601f168201915b5050505050815250509050919050565b610668610296565b6106a7576040517f08c379a000000000000000000000000000000000000000000000000000000000815260040161069e90611489565b60405180910390fd5b6007811180156106b8575061016d81105b6106f7576040517f08c379a00000000000000000000000000000000000000000000000000000000081526004016106ee90611409565b60405180910390fd5b62015180816107069190611635565b4261071191906115df565b60048190555050565b600033610725610296565b806107355750610734816109b8565b5b610774576040517f08c379a000000000000000000000000000000000000000000000000000000000815260040161076b90611429565b60405180910390fd5b4791505090565b600033610786610296565b806107965750610795816109b8565b5b6107d5576040517f08c379a00000000000000000000000000000000000000000000000000000000081526004016107cc90611429565b60405180910390fd5b60045491505090565b6000336107e9610296565b806107f957506107f8816109b8565b5b610838576040517f08c379a000000000000000000000000000000000000000000000000000000000815260040161082f90611429565b60405180910390fd5b60045442111561084b5760019150610850565b600091505b5090565b61085c610296565b61089b576040517f08c379a000000000000000000000000000000000000000000000000000000000815260040161089290611489565b60405180910390fd5b6108a4836109b8565b156108e4576040517f08c379a00000000000000000000000000000000000000000000000000000000081526004016108db906114a9565b60405180910390fd5b604051806040016040528083815260200182815250600360008573ffffffffffffffffffffffffffffffffffffffff1673ffffffffffffffffffffffffffffffffffffffff1681526020019081526020016000206000820151816000019080519060200190610954929190610dc4565b506020820151816001019080519060200190610971929190610dc4565b50905050610989836001610af990919063ffffffff16565b50505050565b60008060009054906101000a900473ffffffffffffffffffffffffffffffffffffffff16905090565b60006109ce826001610b2990919063ffffffff16565b9050919050565b80471015610a18576040517f08c379a0000000000000000000000000000000000000000000000000000000008152600401610a0f90611469565b60405180910390fd5b60008273ffffffffffffffffffffffffffffffffffffffff1682604051610a3e906113b0565b60006040518083038185875af1925050503d8060008114610a7b576040519150601f19603f3d011682016040523d82523d6000602084013e610a80565b606091505b5050905080610ac4576040517f08c379a0000000000000000000000000000000000000000000000000000000008152600401610abb90611449565b60405180910390fd5b505050565b6000610af1836000018373ffffffffffffffffffffffffffffffffffffffff1660001b610b59565b905092915050565b6000610b21836000018373ffffffffffffffffffffffffffffffffffffffff1660001b610cd7565b905092915050565b6000610b51836000018373ffffffffffffffffffffffffffffffffffffffff1660001b610d47565b905092915050565b60008083600101600084815260200190815260200160002054905060008114610ccb576000600182610b8b919061168f565b9050600060018660000180549050610ba3919061168f565b90506000866000018281548110610be3577f4e487b7100000000000000000000000000000000000000000000000000000000600052603260045260246000fd5b9060005260206000200154905080876000018481548110610c2d577f4e487b7100000000000000000000000000000000000000000000000000000000600052603260045260246000fd5b9060005260206000200181905550838760010160008381526020019081526020016000208190555086600001805480610c8f577f4e487b7100000000000000000000000000000000000000000000000000000000600052603160045260246000fd5b60019003818190600052602060002001600090559055866001016000878152602001908152602001600020600090556001945050505050610cd1565b60009150505b92915050565b6000610ce38383610d47565b610d3c578260000182908060018154018082558091505060019003906000526020600020016000909190919091505582600001805490508360010160008481526020019081526020016000208190555060019050610d41565b600090505b92915050565b600080836001016000848152602001908152602001600020541415905092915050565b508054610d769061175f565b6000825580601f10610d885750610da7565b601f016020900490600052602060002090810190610da69190610e4a565b5b50565b604051806040016040528060608152602001606081525090565b828054610dd09061175f565b90600052602060002090601f016020900481019282610df25760008555610e39565b82601f10610e0b57805160ff1916838001178555610e39565b82800160010185558215610e39579182015b82811115610e38578251825591602001919060010190610e1d565b5b509050610e469190610e4a565b5090565b5b80821115610e63576000816000905550600101610e4b565b5090565b6000610e7a610e7584611577565b611546565b905082815260208101848484011115610e9257600080fd5b610e9d84828561171d565b509392505050565b600081359050610eb48161182f565b92915050565b600081359050610ec981611846565b92915050565b600082601f830112610ee057600080fd5b8135610ef0848260208601610e67565b91505092915050565b600081359050610f088161185d565b92915050565b600060208284031215610f2057600080fd5b6000610f2e84828501610ea5565b91505092915050565b600060208284031215610f4957600080fd5b6000610f5784828501610eba565b91505092915050565b600080600060608486031215610f7557600080fd5b6000610f8386828701610ea5565b935050602084013567ffffffffffffffff811115610fa057600080fd5b610fac86828701610ecf565b925050604084013567ffffffffffffffff811115610fc957600080fd5b610fd586828701610ecf565b9150509250925092565b600060208284031215610ff157600080fd5b6000610fff84828501610ef9565b91505092915050565b611011816116c3565b82525050565b611020816116e7565b82525050565b6000611031826115a7565b61103b81856115bd565b935061104b81856020860161172c565b6110548161181e565b840191505092915050565b600061106c6048836115ce565b91507f657874656e73696f6e20697320736574206f6e6c7920696e206461797320746860008301527f6174206172652067726561746572207468656e203720616e64206c6f7765722060208301527f7468656e203336350000000000000000000000000000000000000000000000006040830152606082019050919050565b60006110f86023836115ce565b91507f61646472657373206973206e6f74206f776e6572206f722062656e656669636960008301527f61727900000000000000000000000000000000000000000000000000000000006020830152604082019050919050565b600061115e603a836115ce565b91507f416464726573733a20756e61626c6520746f2073656e642076616c75652c207260008301527f6563697069656e74206d617920686176652072657665727465640000000000006020830152604082019050919050565b60006111c4601d836115ce565b91507f416464726573733a20696e73756666696369656e742062616c616e63650000006000830152602082019050919050565b60006112046020836115ce565b91507f4f776e61626c653a2063616c6c6572206973206e6f7420746865206f776e65726000830152602082019050919050565b60006112446000836115b2565b9150600082019050919050565b600061125e6026836115ce565b91507f62656e65666963696172792061646472657373206e6f7420616c72656164792060008301527f65786973742100000000000000000000000000000000000000000000000000006020830152604082019050919050565b60006112c4601e836115ce565b91507f62656e65666963696172792061646472657373206e6f7420666f756e642100006000830152602082019050919050565b60006113046025836115ce565b91507f7769746864726177206973206e6f7420616c6c6f77656420617420746865206d60008301527f6f6d656e740000000000000000000000000000000000000000000000000000006020830152604082019050919050565b6000604083016000830151848203600086015261137a8282611026565b915050602083015184820360208601526113948282611026565b9150508091505092915050565b6113aa81611713565b82525050565b60006113bb82611237565b9150819050919050565b60006040820190506113da6000830185611008565b6113e760208301846113a1565b9392505050565b60006020820190506114036000830184611017565b92915050565b600060208201905081810360008301526114228161105f565b9050919050565b60006020820190508181036000830152611442816110eb565b9050919050565b6000602082019050818103600083015261146281611151565b9050919050565b60006020820190508181036000830152611482816111b7565b9050919050565b600060208201905081810360008301526114a2816111f7565b9050919050565b600060208201905081810360008301526114c281611251565b9050919050565b600060208201905081810360008301526114e2816112b7565b9050919050565b60006020820190508181036000830152611502816112f7565b9050919050565b60006020820190508181036000830152611523818461135d565b905092915050565b600060208201905061154060008301846113a1565b92915050565b6000604051905081810181811067ffffffffffffffff8211171561156d5761156c6117ef565b5b8060405250919050565b600067ffffffffffffffff821115611592576115916117ef565b5b601f19601f8301169050602081019050919050565b600081519050919050565b600081905092915050565b600082825260208201905092915050565b600082825260208201905092915050565b60006115ea82611713565b91506115f583611713565b9250827fffffffffffffffffffffffffffffffffffffffffffffffffffffffffffffffff0382111561162a57611629611791565b5b828201905092915050565b600061164082611713565b915061164b83611713565b9250817fffffffffffffffffffffffffffffffffffffffffffffffffffffffffffffffff048311821515161561168457611683611791565b5b828202905092915050565b600061169a82611713565b91506116a583611713565b9250828210156116b8576116b7611791565b5b828203905092915050565b60006116ce826116f3565b9050919050565b60006116e0826116f3565b9050919050565b60008115159050919050565b600073ffffffffffffffffffffffffffffffffffffffff82169050919050565b6000819050919050565b82818337600083830152505050565b60005b8381101561174a57808201518184015260208101905061172f565b83811115611759576000848401525b50505050565b6000600282049050600182168061177757607f821691505b6020821081141561178b5761178a6117c0565b5b50919050565b7f4e487b7100000000000000000000000000000000000000000000000000000000600052601160045260246000fd5b7f4e487b7100000000000000000000000000000000000000000000000000000000600052602260045260246000fd5b7f4e487b7100000000000000000000000000000000000000000000000000000000600052604160045260246000fd5b6000601f19601f8301169050919050565b611838816116c3565b811461184357600080fd5b50565b61184f816116d5565b811461185a57600080fd5b50565b61186681611713565b811461187157600080fd5b5056fea2646970667358221220d8e4135d687645136831f9d60a0a4737334b994e2add4e02aed8993f7216558a64736f6c63430008000033",
  "immutableReferences": {},
  "source": "// SPDX-License-Identifier: MIT\npragma solidity ^0.8.0;\n\n//add ownable\nimport \"@openzeppelin/contracts/utils/structs/EnumerableSet.sol\";\nimport \"@openzeppelin/contracts/utils/Address.sol\";\n\n\ncontract BeneficiariesVault {\n    \n    // public functions that start with prefix ow_ are only for the Owner of the contract\n    // public functions that start with prefix be_ are only for the Beneficiaries\n    // all the other public functions are accesible to the Owner or one of the Beneficiaries but not to any other address (more about access control in the modifiers comments)\n    \n    //START STATE VARIBLES\n    address private _owner;\n    \n    event Deposit(address sender, uint value);\n    \n    using Address for address payable;\n    \n    // Add the library methods\n    using EnumerableSet for EnumerableSet.AddressSet;\n    \n    //using Strings for uint256;\n    \n    // Declare a set state variable\n    EnumerableSet.AddressSet private beneficiariesAddresses;\n    \n    struct BeneficiariesStruct {\n        string email;\n        string name;\n    }\n    \n    //map address to struct\n    mapping(address => BeneficiariesStruct) private beneficiaries;\n    \n    uint256 deadlineTimestamp;\n    \n    bool withdrawAllowed;\n    \n    //END STATE VARIBLES\n    \n    constructor(address _vaultOwner){\n        //Add a dedline with default of a year from contract creation\n        deadlineTimestamp = block.timestamp + (365 * 1 days);\n        withdrawAllowed = false;\n        _owner = _vaultOwner;\n    }\n    \n    //START UTIL FUNCTIONS\n    \n    function isContains(address  _beneficiaryAddress) private view returns(bool) {\n        return beneficiariesAddresses.contains( _beneficiaryAddress);\n    }\n    \n    function getLength() private view returns(uint){\n        return beneficiariesAddresses.length();\n    }\n\n    function at(uint index) private view returns(address) {\n        require(index < beneficiariesAddresses.length());\n        return beneficiariesAddresses.at(index);\n    }\n    \n    function owner() private view returns (address) {\n        return _owner;\n    }\n\n    function isOwner() public view returns(bool){\n        return owner() == msg.sender;\n    }\n    \n    \n    //END UTIL FUNCTIONS\n    \n    //START MODIFIRES\n    \n    //there are only 2 roles in this contract Owner or Beneficiary\n    //and there are 3 modifiers that provide Access Controll \n    \n     modifier OnlyBeneficiary(address _beneficiaryAddress){\n         require(isContains(_beneficiaryAddress),\"beneficiary address not found!\");\n         _;\n    }\n    \n    modifier OwnerOrBeneficiary(address _address){\n         require(isOwner() || isContains(_address) ,\"address is not owner or beneficiary\");\n         _;       \n    }\n    \n    modifier onlyOwner() {\n        require(isOwner(), \"Ownable: caller is not the owner\");\n        _;\n    }\n    \n    //END MODIFIRES\n    \n    \n    //START CONTRACT PUBLIC API\n    \n    function getContractBalance() public view OwnerOrBeneficiary(msg.sender) returns (uint256) {\n        return address(this).balance;\n    }\n    \n    function getBeneficiariesStruct(address _beneficiaryAddress) public view returns(BeneficiariesStruct memory){\n        \n        require(isContains(_beneficiaryAddress),\"beneficiary address not found!\");\n        \n        return beneficiaries[_beneficiaryAddress];\n    }\n    \n    function ow_AddBeneficiary(address _newBeneficiaryAddress, string memory _newBeneficiaryEmail, string memory _newBeneficiaryName) public onlyOwner{\n        \n        require(!isContains(_newBeneficiaryAddress),\"beneficiary address not already exist!\");\n        //add to beneficiaries mapping\n        beneficiaries[_newBeneficiaryAddress] = BeneficiariesStruct(_newBeneficiaryEmail,_newBeneficiaryName);\n        //add to beneficiariesAddresses set\n        beneficiariesAddresses.add(_newBeneficiaryAddress);\n    }\n    \n    function ow_RemoveBeneficiary(address _beneficiaryAddress) public OnlyBeneficiary(_beneficiaryAddress) onlyOwner{\n\n        //remove from beneficiaries mapping\n        delete beneficiaries[_beneficiaryAddress];\n        //remove from beneficiariesAddresses set\n        beneficiariesAddresses.remove(_beneficiaryAddress);\n    }\n    \n    function be_Withdraw(address payable _beneficiaryAddress) public payable OnlyBeneficiary(_beneficiaryAddress){\n        //check that withdraw is allowed\n        require(isWithdrawAllowed(), \"withdraw is not allowed at the moment\");\n        //check that the msg.sender\n        \n        _beneficiaryAddress.sendValue(msg.value);//temporary just for check\n\n    }\n    \n    function ow_SetDeadlineFromToday(uint256 _numberOfDays) public onlyOwner {\n        require(_numberOfDays > 7 && _numberOfDays < 365 , \"extension is set only in days that are greater then 7 and lower then 365\");\n        deadlineTimestamp = block.timestamp + (_numberOfDays * 1 days);\n    }\n    \n    function getDeadlineTimestamp() public view OwnerOrBeneficiary(msg.sender) returns(uint256){\n        return deadlineTimestamp;\n    }\n    \n    \n    function isWithdrawAllowed() public view OwnerOrBeneficiary(msg.sender) returns(bool){\n    \n        if(block.timestamp > deadlineTimestamp){\n            return true;\n        }\n        \n        return false;\n    }\n    \n    //only admin deposit to contract\n    receive() external payable onlyOwner{\n        emit Deposit(msg.sender, msg.value);\n    }\n    \n    \n    //END CONTRACT PUBLIC API\n\n }",
  "sourcePath": "/home/yaniv/Desktop/etherum/my-eth-will/contracts/BeneficiariesVault.sol",
  "compiler": {
    "name": "solc",
    "version": "0.8.0+commit.c7dfd78e.Emscripten.clang"
  },
  "schemaVersion": "3.4.1",
  "updatedAt": "2021-05-30T22:06:59.328Z",
  "devdoc": {
    "kind": "dev",
    "methods": {},
    "version": 1
  },
  "userdoc": {
    "kind": "user",
    "methods": {},
    "version": 1
  }
}