{
  "contractName": "VaultFactory",
  "abi": [
    {
      "inputs": [
        {
          "internalType": "address",
          "name": "",
          "type": "address"
        }
      ],
      "name": "accountToContractMapping",
      "outputs": [
        {
          "internalType": "address",
          "name": "",
          "type": "address"
        }
      ],
      "stateMutability": "view",
      "type": "function",
      "constant": true
    },
    {
      "inputs": [],
      "name": "createNewVault",
      "outputs": [],
      "stateMutability": "nonpayable",
      "type": "function"
    },
    {
      "inputs": [],
      "name": "getContractAddress",
      "outputs": [
        {
          "internalType": "address",
          "name": "",
          "type": "address"
        }
      ],
      "stateMutability": "view",
      "type": "function",
      "constant": true
    },
    {
      "inputs": [],
      "name": "checkIfAcountHasVault",
      "outputs": [
        {
          "internalType": "bool",
          "name": "",
          "type": "bool"
        }
      ],
      "stateMutability": "view",
      "type": "function",
      "constant": true
    }
  ],
  "bytecode": "0x608060405234801561001057600080fd5b506124cb806100206000396000f3fe608060405234801561001057600080fd5b506004361061004c5760003560e01c806332a2c5d014610051578063889352c21461006f5780638b2d1dbe1461008d5780639d3b8cba14610097575b600080fd5b6100596100c7565b6040516100669190610320565b60405180910390f35b61007761012d565b604051610084919061033b565b60405180910390f35b6100956101d2565b005b6100b160048036038101906100ac91906102d9565b610284565b6040516100be9190610320565b60405180910390f35b60008060003373ffffffffffffffffffffffffffffffffffffffff1673ffffffffffffffffffffffffffffffffffffffff16815260200190815260200160002060009054906101000a900473ffffffffffffffffffffffffffffffffffffffff16905090565b60008073ffffffffffffffffffffffffffffffffffffffff166000803373ffffffffffffffffffffffffffffffffffffffff1673ffffffffffffffffffffffffffffffffffffffff16815260200190815260200160002060009054906101000a900473ffffffffffffffffffffffffffffffffffffffff1673ffffffffffffffffffffffffffffffffffffffff1614156101ca57600090506101cf565b600190505b90565b336040516101df906102b7565b6101e99190610320565b604051809103906000f080158015610205573d6000803e3d6000fd5b506000803373ffffffffffffffffffffffffffffffffffffffff1673ffffffffffffffffffffffffffffffffffffffff16815260200190815260200160002060006101000a81548173ffffffffffffffffffffffffffffffffffffffff021916908373ffffffffffffffffffffffffffffffffffffffff160217905550565b60006020528060005260406000206000915054906101000a900473ffffffffffffffffffffffffffffffffffffffff1681565b6120ea806103ac83390190565b6000813590506102d381610394565b92915050565b6000602082840312156102eb57600080fd5b60006102f9848285016102c4565b91505092915050565b61030b81610356565b82525050565b61031a81610368565b82525050565b60006020820190506103356000830184610302565b92915050565b60006020820190506103506000830184610311565b92915050565b600061036182610374565b9050919050565b60008115159050919050565b600073ffffffffffffffffffffffffffffffffffffffff82169050919050565b61039d81610356565b81146103a857600080fd5b5056fe60806040523480156200001157600080fd5b50604051620020ea380380620020ea8339818101604052810190620000379190620000c8565b6301e1338042620000499190620000f4565b6004819055506000600560006101000a81548160ff021916908315150217905550806000806101000a81548173ffffffffffffffffffffffffffffffffffffffff021916908373ffffffffffffffffffffffffffffffffffffffff16021790555050620001d8565b600081519050620000c281620001be565b92915050565b600060208284031215620000db57600080fd5b6000620000eb84828501620000b1565b91505092915050565b6000620001018262000185565b91506200010e8362000185565b9250827fffffffffffffffffffffffffffffffffffffffffffffffffffffffffffffffff038211156200014657620001456200018f565b5b828201905092915050565b60006200015e8262000165565b9050919050565b600073ffffffffffffffffffffffffffffffffffffffff82169050919050565b6000819050919050565b7f4e487b7100000000000000000000000000000000000000000000000000000000600052601160045260246000fd5b620001c98162000151565b8114620001d557600080fd5b50565b611f0280620001e86000396000f3fe6080604052600436106100e15760003560e01c80637b70209f1161007f578063a63c496711610059578063a63c49671461031a578063b1e2ccd414610343578063e4fdcfe91461035f578063f6cd8dc11461036957610168565b80637b70209f146102995780637e6d0fa0146102c45780638f32d59b146102ef57610168565b80636e6addd4116100bb5780636e6addd4146101ef5780636f9fb98a14610218578063715875d81461024357806379cd9a311461026e57610168565b80632383ff811461016d57806335fe629b1461018957806349578fcf146101c657610168565b36610168576100ee6103a6565b61012d576040517f08c379a000000000000000000000000000000000000000000000000000000000815260040161012490611ae1565b60405180910390fd5b7fe1fffcc4923d04b559f4d29a8bfc6cda04eb5b0d3c460751c2402c5c5cc9109c333460405161015e9291906119dd565b60405180910390a1005b600080fd5b6101876004803603810190610182919061146c565b6103e3565b005b34801561019557600080fd5b506101b060048036038101906101ab9190611514565b6104a0565b6040516101bd91906119c2565b60405180910390f35b3480156101d257600080fd5b506101ed60048036038101906101e89190611443565b610519565b005b3480156101fb57600080fd5b5061021660048036038101906102119190611514565b610638565b005b34801561022457600080fd5b5061022d6106f2565b60405161023a9190611b83565b60405180910390f35b34801561024f57600080fd5b50610258610753565b6040516102659190611b83565b60405180910390f35b34801561027a57600080fd5b506102836107b6565b6040516102909190611b83565b60405180910390f35b3480156102a557600080fd5b506102ae61080e565b6040516102bb9190611a06565b60405180910390f35b3480156102d057600080fd5b506102d961081e565b6040516102e69190611a06565b60405180910390f35b3480156102fb57600080fd5b506103046103a6565b6040516103119190611a06565b60405180910390f35b34801561032657600080fd5b50610341600480360381019061033c9190611495565b610894565b005b61035d60048036038101906103589190611514565b6109f8565b005b610367610a6b565b005b34801561037557600080fd5b50610390600480360381019061038b9190611443565b610ba8565b60405161039d9190611b61565b60405180910390f35b60003373ffffffffffffffffffffffffffffffffffffffff166103c7610de1565b73ffffffffffffffffffffffffffffffffffffffff1614905090565b806103ed81610e0a565b61042c576040517f08c379a000000000000000000000000000000000000000000000000000000000815260040161042390611b21565b60405180910390fd5b61043461081e565b610473576040517f08c379a000000000000000000000000000000000000000000000000000000000815260040161046a90611b41565b60405180910390fd5b61049c348373ffffffffffffffffffffffffffffffffffffffff16610e2790919063ffffffff16565b5050565b60006104aa6103a6565b6104e9576040517f08c379a00000000000000000000000000000000000000000000000000000000081526004016104e090611ae1565b60405180910390fd5b6104f36001610f1b565b82106104fe57600080fd5b610512826001610f3090919063ffffffff16565b9050919050565b8061052381610e0a565b610562576040517f08c379a000000000000000000000000000000000000000000000000000000000815260040161055990611b21565b60405180910390fd5b61056a6103a6565b6105a9576040517f08c379a00000000000000000000000000000000000000000000000000000000081526004016105a090611ae1565b60405180910390fd5b600360008373ffffffffffffffffffffffffffffffffffffffff1673ffffffffffffffffffffffffffffffffffffffff168152602001908152602001600020600080820160006105f99190611296565b6001820160006106099190611296565b6002820160006101000a81549060ff02191690555050610633826001610f4a90919063ffffffff16565b505050565b6106406103a6565b61067f576040517f08c379a000000000000000000000000000000000000000000000000000000000815260040161067690611ae1565b60405180910390fd5b600781118015610690575061016d81105b6106cf576040517f08c379a00000000000000000000000000000000000000000000000000000000081526004016106c690611a41565b60405180910390fd5b62015180816106de9190611c8d565b426106e99190611c37565b60048190555050565b6000336106fd6103a6565b8061070d575061070c81610e0a565b5b61074c576040517f08c379a000000000000000000000000000000000000000000000000000000000815260040161074390611a61565b60405180910390fd5b4791505090565b60003361075e6103a6565b8061076e575061076d81610e0a565b5b6107ad576040517f08c379a00000000000000000000000000000000000000000000000000000000081526004016107a490611a61565b60405180910390fd5b60045491505090565b60006107c06103a6565b6107ff576040517f08c379a00000000000000000000000000000000000000000000000000000000081526004016107f690611ae1565b60405180910390fd5b6108096001610f1b565b905090565b600061081933610e0a565b905090565b6000336108296103a6565b80610839575061083881610e0a565b5b610878576040517f08c379a000000000000000000000000000000000000000000000000000000000815260040161086f90611a61565b60405180910390fd5b60045442111561088b5760019150610890565b600091505b5090565b61089c6103a6565b6108db576040517f08c379a00000000000000000000000000000000000000000000000000000000081526004016108d290611ae1565b60405180910390fd5b6108e483610e0a565b15610924576040517f08c379a000000000000000000000000000000000000000000000000000000000815260040161091b90611b01565b60405180910390fd5b604051806060016040528083815260200182815260200160001515815250600360008573ffffffffffffffffffffffffffffffffffffffff1673ffffffffffffffffffffffffffffffffffffffff168152602001908152602001600020600082015181600001908051906020019061099d9291906112d6565b5060208201518160010190805190602001906109ba9291906112d6565b5060408201518160020160006101000a81548160ff0219169083151502179055509050506109f2836001610f7a90919063ffffffff16565b50505050565b610a006103a6565b610a3f576040517f08c379a0000000000000000000000000000000000000000000000000000000008152600401610a3690611ae1565b60405180910390fd5b610a68813373ffffffffffffffffffffffffffffffffffffffff16610e2790919063ffffffff16565b50565b33610a7581610e0a565b610ab4576040517f08c379a0000000000000000000000000000000000000000000000000000000008152600401610aab90611b21565b60405180910390fd5b60001515600360003373ffffffffffffffffffffffffffffffffffffffff1673ffffffffffffffffffffffffffffffffffffffff16815260200190815260200160002060020160009054906101000a900460ff16151514610b4a576040517f08c379a0000000000000000000000000000000000000000000000000000000008152600401610b4190611a81565b60405180910390fd5b6001600360003373ffffffffffffffffffffffffffffffffffffffff1673ffffffffffffffffffffffffffffffffffffffff16815260200190815260200160002060020160006101000a81548160ff02191690831515021790555050565b610bb061135c565b33610bb96103a6565b80610bc95750610bc881610e0a565b5b610c08576040517f08c379a0000000000000000000000000000000000000000000000000000000008152600401610bff90611a61565b60405180910390fd5b610c1183610e0a565b610c50576040517f08c379a0000000000000000000000000000000000000000000000000000000008152600401610c4790611b21565b60405180910390fd5b600360008473ffffffffffffffffffffffffffffffffffffffff1673ffffffffffffffffffffffffffffffffffffffff168152602001908152602001600020604051806060016040529081600082018054610caa90611db7565b80601f0160208091040260200160405190810160405280929190818152602001828054610cd690611db7565b8015610d235780601f10610cf857610100808354040283529160200191610d23565b820191906000526020600020905b815481529060010190602001808311610d0657829003601f168201915b50505050508152602001600182018054610d3c90611db7565b80601f0160208091040260200160405190810160405280929190818152602001828054610d6890611db7565b8015610db55780601f10610d8a57610100808354040283529160200191610db5565b820191906000526020600020905b815481529060010190602001808311610d9857829003601f168201915b505050505081526020016002820160009054906101000a900460ff161515151581525050915050919050565b60008060009054906101000a900473ffffffffffffffffffffffffffffffffffffffff16905090565b6000610e20826001610faa90919063ffffffff16565b9050919050565b80471015610e6a576040517f08c379a0000000000000000000000000000000000000000000000000000000008152600401610e6190611ac1565b60405180910390fd5b60008273ffffffffffffffffffffffffffffffffffffffff1682604051610e90906119ad565b60006040518083038185875af1925050503d8060008114610ecd576040519150601f19603f3d011682016040523d82523d6000602084013e610ed2565b606091505b5050905080610f16576040517f08c379a0000000000000000000000000000000000000000000000000000000008152600401610f0d90611aa1565b60405180910390fd5b505050565b6000610f2982600001610fda565b9050919050565b6000610f3f8360000183610feb565b60001c905092915050565b6000610f72836000018373ffffffffffffffffffffffffffffffffffffffff1660001b611085565b905092915050565b6000610fa2836000018373ffffffffffffffffffffffffffffffffffffffff1660001b611203565b905092915050565b6000610fd2836000018373ffffffffffffffffffffffffffffffffffffffff1660001b611273565b905092915050565b600081600001805490509050919050565b600081836000018054905011611036576040517f08c379a000000000000000000000000000000000000000000000000000000000815260040161102d90611a21565b60405180910390fd5b826000018281548110611072577f4e487b7100000000000000000000000000000000000000000000000000000000600052603260045260246000fd5b9060005260206000200154905092915050565b600080836001016000848152602001908152602001600020549050600081146111f75760006001826110b79190611ce7565b90506000600186600001805490506110cf9190611ce7565b9050600086600001828154811061110f577f4e487b7100000000000000000000000000000000000000000000000000000000600052603260045260246000fd5b9060005260206000200154905080876000018481548110611159577f4e487b7100000000000000000000000000000000000000000000000000000000600052603260045260246000fd5b90600052602060002001819055508387600101600083815260200190815260200160002081905550866000018054806111bb577f4e487b7100000000000000000000000000000000000000000000000000000000600052603160045260246000fd5b600190038181906000526020600020016000905590558660010160008781526020019081526020016000206000905560019450505050506111fd565b60009150505b92915050565b600061120f8383611273565b61126857826000018290806001815401808255809150506001900390600052602060002001600090919091909150558260000180549050836001016000848152602001908152602001600020819055506001905061126d565b600090505b92915050565b600080836001016000848152602001908152602001600020541415905092915050565b5080546112a290611db7565b6000825580601f106112b457506112d3565b601f0160209004906000526020600020908101906112d2919061137f565b5b50565b8280546112e290611db7565b90600052602060002090601f016020900481019282611304576000855561134b565b82601f1061131d57805160ff191683800117855561134b565b8280016001018555821561134b579182015b8281111561134a57825182559160200191906001019061132f565b5b509050611358919061137f565b5090565b604051806060016040528060608152602001606081526020016000151581525090565b5b80821115611398576000816000905550600101611380565b5090565b60006113af6113aa84611bcf565b611b9e565b9050828152602081018484840111156113c757600080fd5b6113d2848285611d75565b509392505050565b6000813590506113e981611e87565b92915050565b6000813590506113fe81611e9e565b92915050565b600082601f83011261141557600080fd5b813561142584826020860161139c565b91505092915050565b60008135905061143d81611eb5565b92915050565b60006020828403121561145557600080fd5b6000611463848285016113da565b91505092915050565b60006020828403121561147e57600080fd5b600061148c848285016113ef565b91505092915050565b6000806000606084860312156114aa57600080fd5b60006114b8868287016113da565b935050602084013567ffffffffffffffff8111156114d557600080fd5b6114e186828701611404565b925050604084013567ffffffffffffffff8111156114fe57600080fd5b61150a86828701611404565b9150509250925092565b60006020828403121561152657600080fd5b60006115348482850161142e565b91505092915050565b61154681611d1b565b82525050565b61155581611d3f565b82525050565b61156481611d3f565b82525050565b600061157582611bff565b61157f8185611c15565b935061158f818560208601611d84565b61159881611e76565b840191505092915050565b60006115b0602283611c26565b91507f456e756d657261626c655365743a20696e646578206f7574206f6620626f756e60008301527f64730000000000000000000000000000000000000000000000000000000000006020830152604082019050919050565b6000611616604883611c26565b91507f657874656e73696f6e20697320736574206f6e6c7920696e206461797320746860008301527f6174206172652067726561746572207468656e203720616e64206c6f7765722060208301527f7468656e203336350000000000000000000000000000000000000000000000006040830152606082019050919050565b60006116a2602383611c26565b91507f61646472657373206973206e6f74206f776e6572206f722062656e656669636960008301527f61727900000000000000000000000000000000000000000000000000000000006020830152604082019050919050565b6000611708601d83611c26565b91507f74686973206164647265737320616c72656164792076657269666965640000006000830152602082019050919050565b6000611748603a83611c26565b91507f416464726573733a20756e61626c6520746f2073656e642076616c75652c207260008301527f6563697069656e74206d617920686176652072657665727465640000000000006020830152604082019050919050565b60006117ae601d83611c26565b91507f416464726573733a20696e73756666696369656e742062616c616e63650000006000830152602082019050919050565b60006117ee602083611c26565b91507f4f776e61626c653a2063616c6c6572206973206e6f7420746865206f776e65726000830152602082019050919050565b600061182e600083611c0a565b9150600082019050919050565b6000611848602683611c26565b91507f62656e65666963696172792061646472657373206e6f7420616c72656164792060008301527f65786973742100000000000000000000000000000000000000000000000000006020830152604082019050919050565b60006118ae601e83611c26565b91507f62656e65666963696172792061646472657373206e6f7420666f756e642100006000830152602082019050919050565b60006118ee602583611c26565b91507f7769746864726177206973206e6f7420616c6c6f77656420617420746865206d60008301527f6f6d656e740000000000000000000000000000000000000000000000000000006020830152604082019050919050565b60006060830160008301518482036000860152611964828261156a565b9150506020830151848203602086015261197e828261156a565b9150506040830151611993604086018261154c565b508091505092915050565b6119a781611d6b565b82525050565b60006119b882611821565b9150819050919050565b60006020820190506119d7600083018461153d565b92915050565b60006040820190506119f2600083018561153d565b6119ff602083018461199e565b9392505050565b6000602082019050611a1b600083018461155b565b92915050565b60006020820190508181036000830152611a3a816115a3565b9050919050565b60006020820190508181036000830152611a5a81611609565b9050919050565b60006020820190508181036000830152611a7a81611695565b9050919050565b60006020820190508181036000830152611a9a816116fb565b9050919050565b60006020820190508181036000830152611aba8161173b565b9050919050565b60006020820190508181036000830152611ada816117a1565b9050919050565b60006020820190508181036000830152611afa816117e1565b9050919050565b60006020820190508181036000830152611b1a8161183b565b9050919050565b60006020820190508181036000830152611b3a816118a1565b9050919050565b60006020820190508181036000830152611b5a816118e1565b9050919050565b60006020820190508181036000830152611b7b8184611947565b905092915050565b6000602082019050611b98600083018461199e565b92915050565b6000604051905081810181811067ffffffffffffffff82111715611bc557611bc4611e47565b5b8060405250919050565b600067ffffffffffffffff821115611bea57611be9611e47565b5b601f19601f8301169050602081019050919050565b600081519050919050565b600081905092915050565b600082825260208201905092915050565b600082825260208201905092915050565b6000611c4282611d6b565b9150611c4d83611d6b565b9250827fffffffffffffffffffffffffffffffffffffffffffffffffffffffffffffffff03821115611c8257611c81611de9565b5b828201905092915050565b6000611c9882611d6b565b9150611ca383611d6b565b9250817fffffffffffffffffffffffffffffffffffffffffffffffffffffffffffffffff0483118215151615611cdc57611cdb611de9565b5b828202905092915050565b6000611cf282611d6b565b9150611cfd83611d6b565b925082821015611d1057611d0f611de9565b5b828203905092915050565b6000611d2682611d4b565b9050919050565b6000611d3882611d4b565b9050919050565b60008115159050919050565b600073ffffffffffffffffffffffffffffffffffffffff82169050919050565b6000819050919050565b82818337600083830152505050565b60005b83811015611da2578082015181840152602081019050611d87565b83811115611db1576000848401525b50505050565b60006002820490506001821680611dcf57607f821691505b60208210811415611de357611de2611e18565b5b50919050565b7f4e487b7100000000000000000000000000000000000000000000000000000000600052601160045260246000fd5b7f4e487b7100000000000000000000000000000000000000000000000000000000600052602260045260246000fd5b7f4e487b7100000000000000000000000000000000000000000000000000000000600052604160045260246000fd5b6000601f19601f8301169050919050565b611e9081611d1b565b8114611e9b57600080fd5b50565b611ea781611d2d565b8114611eb257600080fd5b50565b611ebe81611d6b565b8114611ec957600080fd5b5056fea264697066735822122013fdb311f469f8aefa22b541ecd1d417a89900852807b2a2a728cae9f974c75e64736f6c63430008000033a2646970667358221220f127f4b5fa996904365c3d5ada4b6756d140a06bd6f735a64b3ef5b02562326964736f6c63430008000033",
  "immutableReferences": {},
  "source": "// SPDX-License-Identifier: MIT\npragma solidity ^0.8.0;\n\nimport \"./BeneficiariesVault.sol\";\n\ncontract VaultFactory {\n    \n    \n    //map address to struct\n    mapping(address => address) public accountToContractMapping;\n    \n    function createNewVault() public {\n      accountToContractMapping[msg.sender] = address(new BeneficiariesVault(msg.sender));\n    }\n    \n    function getContractAddress() public view returns (address){\n        return accountToContractMapping[msg.sender];\n    }\n    \n    \n    function checkIfAcountHasVault() public view returns (bool) {\n        if(accountToContractMapping[msg.sender] == address(0)){\n            return false;\n        }\n        //msg.sender is in the mapping\n        return true;\n    }\n}",
  "sourcePath": "/home/yaniv/Desktop/etherum/my-eth-will/contracts/VaultFactory.sol",
  "compiler": {
    "name": "solc",
    "version": "0.8.0+commit.c7dfd78e.Emscripten.clang"
  },
  "schemaVersion": "3.4.1",
  "updatedAt": "2021-06-08T20:23:54.531Z",
  "networkType": "ethereum",
  "devdoc": {
    "kind": "dev",
    "methods": {},
    "version": 1
  },
  "userdoc": {
    "kind": "user",
    "methods": {},
    "version": 1
  }
}