{
  "contractName": "VaultFactory",
  "abi": [
    {
      "inputs": [
        {
          "internalType": "address",
          "name": "",
          "type": "address"
        }
      ],
      "name": "accountToContractMapping",
      "outputs": [
        {
          "internalType": "address",
          "name": "",
          "type": "address"
        }
      ],
      "stateMutability": "view",
      "type": "function",
      "constant": true
    },
    {
      "inputs": [],
      "name": "createNewVault",
      "outputs": [],
      "stateMutability": "nonpayable",
      "type": "function"
    },
    {
      "inputs": [],
      "name": "getContractAddress",
      "outputs": [
        {
          "internalType": "address",
          "name": "",
          "type": "address"
        }
      ],
      "stateMutability": "view",
      "type": "function",
      "constant": true
    },
    {
      "inputs": [],
      "name": "checkIfAcountHasVault",
      "outputs": [
        {
          "internalType": "bool",
          "name": "",
          "type": "bool"
        }
      ],
      "stateMutability": "view",
      "type": "function",
      "constant": true
    }
  ],
  "bytecode": "0x608060405234801561001057600080fd5b506125ea806100206000396000f3fe608060405234801561001057600080fd5b506004361061004c5760003560e01c806332a2c5d014610051578063889352c21461006f5780638b2d1dbe1461008d5780639d3b8cba14610097575b600080fd5b6100596100c7565b6040516100669190610320565b60405180910390f35b61007761012d565b604051610084919061033b565b60405180910390f35b6100956101d2565b005b6100b160048036038101906100ac91906102d9565b610284565b6040516100be9190610320565b60405180910390f35b60008060003373ffffffffffffffffffffffffffffffffffffffff1673ffffffffffffffffffffffffffffffffffffffff16815260200190815260200160002060009054906101000a900473ffffffffffffffffffffffffffffffffffffffff16905090565b60008073ffffffffffffffffffffffffffffffffffffffff166000803373ffffffffffffffffffffffffffffffffffffffff1673ffffffffffffffffffffffffffffffffffffffff16815260200190815260200160002060009054906101000a900473ffffffffffffffffffffffffffffffffffffffff1673ffffffffffffffffffffffffffffffffffffffff1614156101ca57600090506101cf565b600190505b90565b336040516101df906102b7565b6101e99190610320565b604051809103906000f080158015610205573d6000803e3d6000fd5b506000803373ffffffffffffffffffffffffffffffffffffffff1673ffffffffffffffffffffffffffffffffffffffff16815260200190815260200160002060006101000a81548173ffffffffffffffffffffffffffffffffffffffff021916908373ffffffffffffffffffffffffffffffffffffffff160217905550565b60006020528060005260406000206000915054906101000a900473ffffffffffffffffffffffffffffffffffffffff1681565b612209806103ac83390190565b6000813590506102d381610394565b92915050565b6000602082840312156102eb57600080fd5b60006102f9848285016102c4565b91505092915050565b61030b81610356565b82525050565b61031a81610368565b82525050565b60006020820190506103356000830184610302565b92915050565b60006020820190506103506000830184610311565b92915050565b600061036182610374565b9050919050565b60008115159050919050565b600073ffffffffffffffffffffffffffffffffffffffff82169050919050565b61039d81610356565b81146103a857600080fd5b5056fe60806040523480156200001157600080fd5b5060405162002209380380620022098339818101604052810190620000379190620000c8565b6301e1338042620000499190620000f4565b6004819055506000600560006101000a81548160ff021916908315150217905550806000806101000a81548173ffffffffffffffffffffffffffffffffffffffff021916908373ffffffffffffffffffffffffffffffffffffffff16021790555050620001d8565b600081519050620000c281620001be565b92915050565b600060208284031215620000db57600080fd5b6000620000eb84828501620000b1565b91505092915050565b6000620001018262000185565b91506200010e8362000185565b9250827fffffffffffffffffffffffffffffffffffffffffffffffffffffffffffffffff038211156200014657620001456200018f565b5b828201905092915050565b60006200015e8262000165565b9050919050565b600073ffffffffffffffffffffffffffffffffffffffff82169050919050565b6000819050919050565b7f4e487b7100000000000000000000000000000000000000000000000000000000600052601160045260246000fd5b620001c98162000151565b8114620001d557600080fd5b50565b61202180620001e86000396000f3fe6080604052600436106100e15760003560e01c80637b70209f1161007f578063a63c496711610059578063a63c49671461031a578063b1e2ccd414610343578063e4fdcfe91461035f578063f6cd8dc11461036957610168565b80637b70209f146102995780637e6d0fa0146102c45780638f32d59b146102ef57610168565b80636e6addd4116100bb5780636e6addd4146101ef5780636f9fb98a14610218578063715875d81461024357806379cd9a311461026e57610168565b80632383ff811461016d57806335fe629b1461018957806349578fcf146101c657610168565b36610168576100ee6103a6565b61012d576040517f08c379a000000000000000000000000000000000000000000000000000000000815260040161012490611c00565b60405180910390fd5b7fe1fffcc4923d04b559f4d29a8bfc6cda04eb5b0d3c460751c2402c5c5cc9109c333460405161015e929190611afc565b60405180910390a1005b600080fd5b61018760048036038101906101829190611569565b6103e3565b005b34801561019557600080fd5b506101b060048036038101906101ab9190611611565b6104a0565b6040516101bd9190611ae1565b60405180910390f35b3480156101d257600080fd5b506101ed60048036038101906101e89190611540565b610519565b005b3480156101fb57600080fd5b5061021660048036038101906102119190611611565b61065f565b005b34801561022457600080fd5b5061022d610719565b60405161023a9190611ca2565b60405180910390f35b34801561024f57600080fd5b5061025861077a565b6040516102659190611ca2565b60405180910390f35b34801561027a57600080fd5b506102836107dd565b6040516102909190611ca2565b60405180910390f35b3480156102a557600080fd5b506102ae610835565b6040516102bb9190611b25565b60405180910390f35b3480156102d057600080fd5b506102d9610845565b6040516102e69190611b25565b60405180910390f35b3480156102fb57600080fd5b506103046103a6565b6040516103119190611b25565b60405180910390f35b34801561032657600080fd5b50610341600480360381019061033c9190611592565b6108bb565b005b61035d60048036038101906103589190611611565b610a82565b005b610367610af5565b005b34801561037557600080fd5b50610390600480360381019061038b9190611540565b610c32565b60405161039d9190611c80565b60405180910390f35b60003373ffffffffffffffffffffffffffffffffffffffff166103c7610ec1565b73ffffffffffffffffffffffffffffffffffffffff1614905090565b806103ed81610eea565b61042c576040517f08c379a000000000000000000000000000000000000000000000000000000000815260040161042390611c40565b60405180910390fd5b610434610845565b610473576040517f08c379a000000000000000000000000000000000000000000000000000000000815260040161046a90611c60565b60405180910390fd5b61049c348373ffffffffffffffffffffffffffffffffffffffff16610f0790919063ffffffff16565b5050565b60006104aa6103a6565b6104e9576040517f08c379a00000000000000000000000000000000000000000000000000000000081526004016104e090611c00565b60405180910390fd5b6104f36001610ffb565b82106104fe57600080fd5b61051282600161101090919063ffffffff16565b9050919050565b8061052381610eea565b610562576040517f08c379a000000000000000000000000000000000000000000000000000000000815260040161055990611c40565b60405180910390fd5b61056a6103a6565b6105a9576040517f08c379a00000000000000000000000000000000000000000000000000000000081526004016105a090611c00565b60405180910390fd5b600360008373ffffffffffffffffffffffffffffffffffffffff1673ffffffffffffffffffffffffffffffffffffffff168152602001908152602001600020600080820160006105f99190611376565b6001820160006106099190611376565b6002820160006101000a81549073ffffffffffffffffffffffffffffffffffffffff02191690556002820160146101000a81549060ff0219169055505061065a82600161102a90919063ffffffff16565b505050565b6106676103a6565b6106a6576040517f08c379a000000000000000000000000000000000000000000000000000000000815260040161069d90611c00565b60405180910390fd5b6007811180156106b7575061016d81105b6106f6576040517f08c379a00000000000000000000000000000000000000000000000000000000081526004016106ed90611b60565b60405180910390fd5b62015180816107059190611dac565b426107109190611d56565b60048190555050565b6000336107246103a6565b80610734575061073381610eea565b5b610773576040517f08c379a000000000000000000000000000000000000000000000000000000000815260040161076a90611b80565b60405180910390fd5b4791505090565b6000336107856103a6565b80610795575061079481610eea565b5b6107d4576040517f08c379a00000000000000000000000000000000000000000000000000000000081526004016107cb90611b80565b60405180910390fd5b60045491505090565b60006107e76103a6565b610826576040517f08c379a000000000000000000000000000000000000000000000000000000000815260040161081d90611c00565b60405180910390fd5b6108306001610ffb565b905090565b600061084033610eea565b905090565b6000336108506103a6565b80610860575061085f81610eea565b5b61089f576040517f08c379a000000000000000000000000000000000000000000000000000000000815260040161089690611b80565b60405180910390fd5b6004544211156108b257600191506108b7565b600091505b5090565b6108c36103a6565b610902576040517f08c379a00000000000000000000000000000000000000000000000000000000081526004016108f990611c00565b60405180910390fd5b61090b83610eea565b1561094b576040517f08c379a000000000000000000000000000000000000000000000000000000000815260040161094290611c20565b60405180910390fd5b60405180608001604052808381526020018281526020018473ffffffffffffffffffffffffffffffffffffffff16815260200160001515815250600360008573ffffffffffffffffffffffffffffffffffffffff1673ffffffffffffffffffffffffffffffffffffffff16815260200190815260200160002060008201518160000190805190602001906109e09291906113b6565b5060208201518160010190805190602001906109fd9291906113b6565b5060408201518160020160006101000a81548173ffffffffffffffffffffffffffffffffffffffff021916908373ffffffffffffffffffffffffffffffffffffffff16021790555060608201518160020160146101000a81548160ff021916908315150217905550905050610a7c83600161105a90919063ffffffff16565b50505050565b610a8a6103a6565b610ac9576040517f08c379a0000000000000000000000000000000000000000000000000000000008152600401610ac090611c00565b60405180910390fd5b610af2813373ffffffffffffffffffffffffffffffffffffffff16610f0790919063ffffffff16565b50565b33610aff81610eea565b610b3e576040517f08c379a0000000000000000000000000000000000000000000000000000000008152600401610b3590611c40565b60405180910390fd5b60001515600360003373ffffffffffffffffffffffffffffffffffffffff1673ffffffffffffffffffffffffffffffffffffffff16815260200190815260200160002060020160149054906101000a900460ff16151514610bd4576040517f08c379a0000000000000000000000000000000000000000000000000000000008152600401610bcb90611ba0565b60405180910390fd5b6001600360003373ffffffffffffffffffffffffffffffffffffffff1673ffffffffffffffffffffffffffffffffffffffff16815260200190815260200160002060020160146101000a81548160ff02191690831515021790555050565b610c3a61143c565b33610c436103a6565b80610c535750610c5281610eea565b5b610c92576040517f08c379a0000000000000000000000000000000000000000000000000000000008152600401610c8990611b80565b60405180910390fd5b610c9b83610eea565b610cda576040517f08c379a0000000000000000000000000000000000000000000000000000000008152600401610cd190611c40565b60405180910390fd5b600360008473ffffffffffffffffffffffffffffffffffffffff1673ffffffffffffffffffffffffffffffffffffffff168152602001908152602001600020604051806080016040529081600082018054610d3490611ed6565b80601f0160208091040260200160405190810160405280929190818152602001828054610d6090611ed6565b8015610dad5780601f10610d8257610100808354040283529160200191610dad565b820191906000526020600020905b815481529060010190602001808311610d9057829003601f168201915b50505050508152602001600182018054610dc690611ed6565b80601f0160208091040260200160405190810160405280929190818152602001828054610df290611ed6565b8015610e3f5780601f10610e1457610100808354040283529160200191610e3f565b820191906000526020600020905b815481529060010190602001808311610e2257829003601f168201915b505050505081526020016002820160009054906101000a900473ffffffffffffffffffffffffffffffffffffffff1673ffffffffffffffffffffffffffffffffffffffff1673ffffffffffffffffffffffffffffffffffffffff1681526020016002820160149054906101000a900460ff161515151581525050915050919050565b60008060009054906101000a900473ffffffffffffffffffffffffffffffffffffffff16905090565b6000610f0082600161108a90919063ffffffff16565b9050919050565b80471015610f4a576040517f08c379a0000000000000000000000000000000000000000000000000000000008152600401610f4190611be0565b60405180910390fd5b60008273ffffffffffffffffffffffffffffffffffffffff1682604051610f7090611acc565b60006040518083038185875af1925050503d8060008114610fad576040519150601f19603f3d011682016040523d82523d6000602084013e610fb2565b606091505b5050905080610ff6576040517f08c379a0000000000000000000000000000000000000000000000000000000008152600401610fed90611bc0565b60405180910390fd5b505050565b6000611009826000016110ba565b9050919050565b600061101f83600001836110cb565b60001c905092915050565b6000611052836000018373ffffffffffffffffffffffffffffffffffffffff1660001b611165565b905092915050565b6000611082836000018373ffffffffffffffffffffffffffffffffffffffff1660001b6112e3565b905092915050565b60006110b2836000018373ffffffffffffffffffffffffffffffffffffffff1660001b611353565b905092915050565b600081600001805490509050919050565b600081836000018054905011611116576040517f08c379a000000000000000000000000000000000000000000000000000000000815260040161110d90611b40565b60405180910390fd5b826000018281548110611152577f4e487b7100000000000000000000000000000000000000000000000000000000600052603260045260246000fd5b9060005260206000200154905092915050565b600080836001016000848152602001908152602001600020549050600081146112d75760006001826111979190611e06565b90506000600186600001805490506111af9190611e06565b905060008660000182815481106111ef577f4e487b7100000000000000000000000000000000000000000000000000000000600052603260045260246000fd5b9060005260206000200154905080876000018481548110611239577f4e487b7100000000000000000000000000000000000000000000000000000000600052603260045260246000fd5b906000526020600020018190555083876001016000838152602001908152602001600020819055508660000180548061129b577f4e487b7100000000000000000000000000000000000000000000000000000000600052603160045260246000fd5b600190038181906000526020600020016000905590558660010160008781526020019081526020016000206000905560019450505050506112dd565b60009150505b92915050565b60006112ef8383611353565b61134857826000018290806001815401808255809150506001900390600052602060002001600090919091909150558260000180549050836001016000848152602001908152602001600020819055506001905061134d565b600090505b92915050565b600080836001016000848152602001908152602001600020541415905092915050565b50805461138290611ed6565b6000825580601f1061139457506113b3565b601f0160209004906000526020600020908101906113b2919061147c565b5b50565b8280546113c290611ed6565b90600052602060002090601f0160209004810192826113e4576000855561142b565b82601f106113fd57805160ff191683800117855561142b565b8280016001018555821561142b579182015b8281111561142a57825182559160200191906001019061140f565b5b509050611438919061147c565b5090565b60405180608001604052806060815260200160608152602001600073ffffffffffffffffffffffffffffffffffffffff1681526020016000151581525090565b5b8082111561149557600081600090555060010161147d565b5090565b60006114ac6114a784611cee565b611cbd565b9050828152602081018484840111156114c457600080fd5b6114cf848285611e94565b509392505050565b6000813590506114e681611fa6565b92915050565b6000813590506114fb81611fbd565b92915050565b600082601f83011261151257600080fd5b8135611522848260208601611499565b91505092915050565b60008135905061153a81611fd4565b92915050565b60006020828403121561155257600080fd5b6000611560848285016114d7565b91505092915050565b60006020828403121561157b57600080fd5b6000611589848285016114ec565b91505092915050565b6000806000606084860312156115a757600080fd5b60006115b5868287016114d7565b935050602084013567ffffffffffffffff8111156115d257600080fd5b6115de86828701611501565b925050604084013567ffffffffffffffff8111156115fb57600080fd5b61160786828701611501565b9150509250925092565b60006020828403121561162357600080fd5b60006116318482850161152b565b91505092915050565b61164381611e3a565b82525050565b61165281611e3a565b82525050565b61166181611e5e565b82525050565b61167081611e5e565b82525050565b600061168182611d1e565b61168b8185611d34565b935061169b818560208601611ea3565b6116a481611f95565b840191505092915050565b60006116bc602283611d45565b91507f456e756d657261626c655365743a20696e646578206f7574206f6620626f756e60008301527f64730000000000000000000000000000000000000000000000000000000000006020830152604082019050919050565b6000611722604883611d45565b91507f657874656e73696f6e20697320736574206f6e6c7920696e206461797320746860008301527f6174206172652067726561746572207468656e203720616e64206c6f7765722060208301527f7468656e203336350000000000000000000000000000000000000000000000006040830152606082019050919050565b60006117ae602383611d45565b91507f61646472657373206973206e6f74206f776e6572206f722062656e656669636960008301527f61727900000000000000000000000000000000000000000000000000000000006020830152604082019050919050565b6000611814601d83611d45565b91507f74686973206164647265737320616c72656164792076657269666965640000006000830152602082019050919050565b6000611854603a83611d45565b91507f416464726573733a20756e61626c6520746f2073656e642076616c75652c207260008301527f6563697069656e74206d617920686176652072657665727465640000000000006020830152604082019050919050565b60006118ba601d83611d45565b91507f416464726573733a20696e73756666696369656e742062616c616e63650000006000830152602082019050919050565b60006118fa602083611d45565b91507f4f776e61626c653a2063616c6c6572206973206e6f7420746865206f776e65726000830152602082019050919050565b600061193a600083611d29565b9150600082019050919050565b6000611954602683611d45565b91507f62656e65666963696172792061646472657373206e6f7420616c72656164792060008301527f65786973742100000000000000000000000000000000000000000000000000006020830152604082019050919050565b60006119ba601e83611d45565b91507f62656e65666963696172792061646472657373206e6f7420666f756e642100006000830152602082019050919050565b60006119fa602583611d45565b91507f7769746864726177206973206e6f7420616c6c6f77656420617420746865206d60008301527f6f6d656e740000000000000000000000000000000000000000000000000000006020830152604082019050919050565b60006080830160008301518482036000860152611a708282611676565b91505060208301518482036020860152611a8a8282611676565b9150506040830151611a9f604086018261163a565b506060830151611ab26060860182611658565b508091505092915050565b611ac681611e8a565b82525050565b6000611ad78261192d565b9150819050919050565b6000602082019050611af66000830184611649565b92915050565b6000604082019050611b116000830185611649565b611b1e6020830184611abd565b9392505050565b6000602082019050611b3a6000830184611667565b92915050565b60006020820190508181036000830152611b59816116af565b9050919050565b60006020820190508181036000830152611b7981611715565b9050919050565b60006020820190508181036000830152611b99816117a1565b9050919050565b60006020820190508181036000830152611bb981611807565b9050919050565b60006020820190508181036000830152611bd981611847565b9050919050565b60006020820190508181036000830152611bf9816118ad565b9050919050565b60006020820190508181036000830152611c19816118ed565b9050919050565b60006020820190508181036000830152611c3981611947565b9050919050565b60006020820190508181036000830152611c59816119ad565b9050919050565b60006020820190508181036000830152611c79816119ed565b9050919050565b60006020820190508181036000830152611c9a8184611a53565b905092915050565b6000602082019050611cb76000830184611abd565b92915050565b6000604051905081810181811067ffffffffffffffff82111715611ce457611ce3611f66565b5b8060405250919050565b600067ffffffffffffffff821115611d0957611d08611f66565b5b601f19601f8301169050602081019050919050565b600081519050919050565b600081905092915050565b600082825260208201905092915050565b600082825260208201905092915050565b6000611d6182611e8a565b9150611d6c83611e8a565b9250827fffffffffffffffffffffffffffffffffffffffffffffffffffffffffffffffff03821115611da157611da0611f08565b5b828201905092915050565b6000611db782611e8a565b9150611dc283611e8a565b9250817fffffffffffffffffffffffffffffffffffffffffffffffffffffffffffffffff0483118215151615611dfb57611dfa611f08565b5b828202905092915050565b6000611e1182611e8a565b9150611e1c83611e8a565b925082821015611e2f57611e2e611f08565b5b828203905092915050565b6000611e4582611e6a565b9050919050565b6000611e5782611e6a565b9050919050565b60008115159050919050565b600073ffffffffffffffffffffffffffffffffffffffff82169050919050565b6000819050919050565b82818337600083830152505050565b60005b83811015611ec1578082015181840152602081019050611ea6565b83811115611ed0576000848401525b50505050565b60006002820490506001821680611eee57607f821691505b60208210811415611f0257611f01611f37565b5b50919050565b7f4e487b7100000000000000000000000000000000000000000000000000000000600052601160045260246000fd5b7f4e487b7100000000000000000000000000000000000000000000000000000000600052602260045260246000fd5b7f4e487b7100000000000000000000000000000000000000000000000000000000600052604160045260246000fd5b6000601f19601f8301169050919050565b611faf81611e3a565b8114611fba57600080fd5b50565b611fc681611e4c565b8114611fd157600080fd5b50565b611fdd81611e8a565b8114611fe857600080fd5b5056fea26469706673582212203692e8b02dd55f09523e5a7f685bc5bbd90cac8388eaca3bf7eac552d3a32f5764736f6c63430008000033a2646970667358221220f4d6bb664749b8496f1f21c39553ad5fe8964208ee96944534b8e2ebcb6bd64164736f6c63430008000033",
  "immutableReferences": {},
  "source": "// SPDX-License-Identifier: MIT\npragma solidity ^0.8.0;\n\nimport \"./BeneficiariesVault.sol\";\n\ncontract VaultFactory {\n    \n    \n    //map address to struct\n    mapping(address => address) public accountToContractMapping;\n    \n    function createNewVault() public {\n      accountToContractMapping[msg.sender] = address(new BeneficiariesVault(msg.sender));\n    }\n    \n    function getContractAddress() public view returns (address){\n        return accountToContractMapping[msg.sender];\n    }\n    \n    \n    function checkIfAcountHasVault() public view returns (bool) {\n        if(accountToContractMapping[msg.sender] == address(0)){\n            return false;\n        }\n        //msg.sender is in the mapping\n        return true;\n    }\n}",
  "sourcePath": "/home/yaniv/Desktop/etherum/my-eth-will/contracts/VaultFactory.sol",
  "compiler": {
    "name": "solc",
    "version": "0.8.0+commit.c7dfd78e.Emscripten.clang"
  },
  "schemaVersion": "3.4.1",
  "updatedAt": "2021-06-09T21:19:32.590Z",
  "networkType": "ethereum",
  "devdoc": {
    "kind": "dev",
    "methods": {},
    "version": 1
  },
  "userdoc": {
    "kind": "user",
    "methods": {},
    "version": 1
  }
}